:020000040800F2
:100000000004002099030008511D0008091C000885
:10001000491D000861040008E920000800000000F4
:10002000000000000000000000000000611D00084A
:100030006904000800000000591D0008C11D0008E7
:10004000B7030008B7030008B7030008B7030008A8
:10005000B7030008B7030008B7030008B703000898
:10006000B7030008B7030008B7030008B703000888
:10007000B7030008B7030008B7030008B703000878
:10008000B7030008B7030008B7030008B703000868
:10009000B7030008B7030008B7030008B703000858
:1000A000B7030008B7030008B7030008B703000848
:1000B000B7030008B7030008B7030008B703000838
:1000C000B7030008B7030008B7030008B703000828
:1000D000B7030008B7030008B7030008B703000818
:1000E000B7030008B703000800000000B7030008CA
:1000F000B7030008B7030008B7030008B7030008F8
:10010000B7030008B7030008B7030008B7030008E7
:10011000B7030008B7030008B7030008B7030008D7
:10012000B7030008B7030008B7030008B7030008C7
:10013000B7030008B7030008B7030008B7030008B7
:1001400000000000000000000000000000000000AF
:10015000B7030008B7030008B7030008B703000897
:10016000B7030008B7030008B7030008B703000887
:10017000B7030008B7030008B70300080000000039
:10018000B7030008B7030008B7030008B703000867
:10019000B7030008B7030008B7030008B703000857
:1001A000B7030008B7030008B70300080000000009
:1001B000B7030008B7030008B7030008B703000837
:1001C000B7030008B70300080000000000000000AB
:1001D0000000000000000000B7030008000000005D
:1001E000000000000000000000000000000000000F
:1001F0000000000000000000B7030008B70300087B
:10020000B7030008B703000800000000B7030008A8
:10021000B7030008B7030008B7030008B7030008D6
:10022000B703000800000000B7030008000000004A
:10023000B7030008B703000800000000B703000878
:10024000B7030008B7030008B7030008B7030008A6
:10025000B7030008B7030008B7030008B703000896
:10026000B7030008B7030008B7030008B703000886
:10027000B7030008B7030008B70300080000000038
:10028000B7030008B7030008B7030008B703000866
:1002900000000000B7030008B703000800000000DA
:1002A00000000000B7030008B7030008B703000808
:1002B000B7030008B7030008B7030008B703000836
:1002C000B7030008B7030008B703000800F002F8FE
:1002D00000F052F814A696E8000CB244B344DA4594
:1002E00001D100F049F8BAE80F000FA696E83000F7
:1002F000A5EB040504EB0607AAEB0704A7F1010729
:100300004FEA15154FEA3414A4F10104AC4201D3AD
:1003100000F032F813F0010F18BFFB1A43F001038D
:1003200000F001F8DBE71847581E0000881E0000A7
:10033000103A24BF78C878C1FAD8520724BF30C811
:1003400030C144BF04680C60704700007047000073
:100350000023002400250026103A28BF78C1FBD8CE
:10036000520728BF30C148BF0B6070471FB501F06E
:10037000F2FE1FBD10B510BD00F035F81146FFF7B5
:10038000F5FF01F0B5FE00F053F803B4FFF7F2FFFC
:1003900003BC00F05BF800000A4880470A48804729
:1003A0000A480047FEE7FEE7FEE7FEE7FEE7FEE756
:1003B000FEE7FEE7FEE7FEE705480649064A074B6B
:1003C0007047000081040008991E0008CD02000853
:1003D000C800002400040020C802002400000020FF
:1003E000704770477047754600F02CF8AE46050020
:1003F0006946534620F00700854618B020B5FFF740
:10040000DBFFBDE820404FF000064FF000074FF043
:1004100000084FF0000BAC46ACE8C009ACE8C009DE
:10042000ACE8C009ACE8C00921F007018D4670476F
:1004300010B50446AFF300802046BDE81040FFF73A
:10044000A4BF00000048704718000024014918208C
:10045000ABBEFEE72600020070470000000000006F
:10046000FEE70000000000007047000000000000F0
:10047000EFF3108072B600BFFEE70000000000003E
:1004800044F60400C5F60200816841F00201816073
:100490000168890409D4016889045CBF01685FEAC6
:1004A000814102D401688904F2D570470000000040
:1004B000B0B5044600F0E4F840F200010546C2F28F
:1004C0000041621C097818BF0C4400BF00F0D8F846
:1004D000401BA042FAD3B0BD2DE9F04F82B00D68A9
:1004E000002D00F0C78000F1264242F2004402F1E4
:1004F000FF728305C5F602040A27A04243EA92224E
:1005000008BF0927082A40F2040C38BF1746C5F671
:10051000000C4FF0000E0097002700260AE000BFF5
:1005200001360D6835FA06F207F102070EF1040EE6
:1005300000F0A080012202FA06FB15EA0B08EFD0BA
:10054000D1F804A003220AF0030502FA07F36C1E97
:100550006FEA0309012C0FD88368CC6803EA09030A
:10056000BC4023438360CAF30014436823EA0B03AF
:10057000B4402343436003E0032D01D1032520E071
:10058000C3688C6803EA0903BC40022D43EA0403F4
:10059000C36016D16FF003020EF01C0502EA560389
:1005A0000F22034402FA05FBD3F820A00C692AEAC3
:1005B0000B0AAC4044EA0A041C62D1F804A00AF019
:1005C0000305036805FA07F403EA09031AF4403F38
:1005D00043EA04030360A3D044F2F44240F2084A21
:1005E000C5F60202C5F6000A136843F00203136061
:1005F00013680F2203F00203019326F00303019C0A
:100600000EF00C0453F80A9002FA04F5009A29EA55
:10061000050502FA04F44FF0B0492C4343F80A40B0
:10062000D9F800304C6843EA0805E20258BF23EAD3
:100630000805C9F80050A502DCF8002042EA0803CA
:1006400058BF22EA0803A503CCF80030DCF880206C
:1006500042EA080358BF22EA0803E403CCF88030DA
:10066000DCF87C2042EA080358BF22EA0803CCF8F1
:100670007C3055E702B0BDE8F08F000000000000BC
:1006800040F2C400C2F20040006870470000000061
:1006900040F2000040F2C401C2F20040C2F2004148
:1006A00000780A68104408607047000000000000ED
:1006B00080B5032000F0E8F800F052FA44F2184147
:1006C00042F27013C5F60201C0F600030A68C2F3D5
:1006D00003229A5C096801F00F0102F01F02595CC5
:1006E000D04040F20C02C2F2004201F01F0120FA99
:1006F00001F1116040F20801C2F2004108600F20D0
:1007000000F00AF800281CBF012080BD00F07CF832
:10071000002080BD0000000070B540F20006C2F26B
:1007200000463178E1B1044640F20800C2F20040D0
:100730004FF47A72B2FBF1F10068B0FBF1F000F017
:1007400033FD0F2C4FF0010508D838B94FF0FF30BA
:1007500000222146002500F067F87460284670BD2D
:10076000012070BD0000000010B54EF6A05E41787B
:10077000CEF2000E90F800C04EF8081CDEF8001013
:1007800021F00101CEF8001041684EF8041C017BF5
:10079000C37A827A447B1B0643EA0171837B41EA78
:1007A000C241C27B41EA8441447A41EA4341007A32
:1007B00041EA024141EA042141EA400040EA0C00DA
:1007C000CEF8000010BD00004EF62450CEF200001E
:1007D000BFF35F8F016821F4803101600021016760
:1007E00070470000000000004EF6245140F0010068
:1007F000CEF200010867086840F480300860BFF35B
:100800004F8FBFF36F8F704781B044F2F440C5F64D
:100810000200016841F002010160006800F002007E
:100820000090009801B0704770B54EF60C5C4FF028
:10083000FF36CEF2000C00F1604505F56445DCF8AA
:100840000030C3F3022E8EF00703042B28BF0423CD
:10085000BEF1030406FA03F321EA030100F00F03DB
:1008600038BF0024043B0028634406FA04F048BF64
:1008700003F10C05A14022EA0000084300012870A2
:1008800070BD0000000000004EF60C514FF6FF0353
:10089000CEF200010A681A4060F30A2242F080603A
:1008A00040F0FD7008607047B0B544F60C05C5F621
:1008B000020529684907296806D401F00701081ACA
:1008C00018BF0120B0BD00BF21F007010843286018
:1008D000FFF7D6FE044600BF55F8080C800407D485
:1008E000FFF7CEFE001BB0F57A7FF5D90120B0BD31
:1008F0000020B0BD000000002DE9F04381B00028C9
:1009000000F02A8142F200080446C5F20028894618
:10091000D8F8000000F00F0088420ED2D8F800008E
:1009200020F00F0040EA0900C8F80000D8F80000E5
:1009300000F00F00484540F00F81206844F218474E
:100940004107C5F602070AD521693A6802F070022C
:10095000914204D93A6822F07002114339600107CC
:100960000AD561697A6802F07002914204D97A6806
:1009700022F0700211437960C1060AD5A1697A6834
:1009800002F4E062914204D97A6822F4E0621143F1
:10099000796081060AD5E169BA6802F07002914275
:1009A00004D9BA6822F070021143B96010F0020154
:1009B0000AD0E2683B6803F00F039A4204D93B680F
:1009C00023F00F031A433A60C20746D03968D4E9CE
:1009D000010221F47061012841EA0201396009D065
:1009E00003280DD0022811D157F8181C890312D4FE
:1009F000B2E000BF57F8181CC9050CD4ACE000BF2A
:100A000057F8181C890106D4A6E000BF57F8181C37
:100A1000490740F1A18057F8081C21F0070108435D
:100A200047F8080CFFF72CFE064641F2883500BF58
:100A300057F8080C616800F03800B0EBC10F09D01E
:100A4000FFF71EFE801BA842F2D9032001B0BDE8CB
:100A5000F08300BF206800F0020151B1E1683A68FC
:100A600002F00F02914204D23A6822F00F021143C1
:100A70003960D8F8001001F00F0149450DD9D8F8B8
:100A8000001021F00F0141EA0901C8F80010D8F860
:100A9000001001F00F0149455ED141070AD52169D7
:100AA0003A6802F07002914204D23A6822F0700271
:100AB0001143396001070AD561697A6802F0700252
:100AC000914204D27A6822F0700211437960C10623
:100AD0000AD5A1697A6802F4E062914204D27A6888
:100AE00022F4E0621143796080060AD5E069B968B2
:100AF00001F07001884204D2B96821F07001084306
:100B0000B86000F02DF8396842F27012C0F60002A9
:100B1000C1F30321515C3B6803F00F0301F01F0197
:100B2000D25C20FA01F102F01F0040F20C02C2F286
:100B3000004221FA00F0106040F2040040F2080286
:100B4000C2F20040C2F200420068116001B0BDE88C
:100B5000F043FFF7E1BD00BF012001B0BDE8F08325
:100B600044F20041C5F602010869C0F3C20003283F
:100B700010D002282ED098BB0868800649F20000E9
:100B8000C0F2D03058BF70470968C1F3C101C840F6
:100B9000704700BF8A6A886AC0F3051CC86ABCF146
:100BA000000F4B6B22D000F0010002F00302404224
:100BB000022A00EAD3006FF35F3000EE100AB8EEAD
:100BC000400A15D0C2B90868800619D49FED281ACA
:100BD00023E000BF43F20060C0F26E10704700BF18
:100BE00040F60010C0F23D00704700BF0020704783
:100BF0009FED1E1A11E000BF9FED1B1A0DE000BF14
:100C0000086849F20002C0F2D032C0F3C10022FAF3
:100C100000F001EE100AB8EE411A086B9FED153A8C
:100C20006FF35F2002EE100A086BC0F34620B8EEA7
:100C3000422A013000EE032A00EE10CAB7EE003A55
:100C4000B8EE400A81EE000A32EE031A20EE010AE5
:100C500001EE100AB8EE411A80EE010ABCEEC00A9D
:100C600010EE100A704700BF0024744A001BB74BF7
:100C70000024744C0000003970B3F0B581B0044614
:100C8000007844F20046C007C5F6020626D1207857
:100C900080076ED5306910F03801B06A46D0182947
:100CA00008BF5FEA807041D0E0683168002800F03A
:100CB000318121F0190108433060FFF7E1FC05465E
:100CC000306840074ED4FFF7DBFC401B0228F7D901
:100CD000032001B0F0BD00BF01207047306900F073
:100CE0003801B06A102905D018290BD100F0030093
:100CF000022807D130688003C9D560680028C6D1B2
:100D0000AEE000BF6068002800F03A81B0F5A02F87
:100D100000F04E81B0F5803F00F04E81306820F445
:100D200080303060306820F4802048E1306840072F
:100D3000E06802D5002800F09380316821F01901A5
:100D400008433060FFF79CFC054600BF3068400751
:100D500008D4FFF795FC401B02284FF00300F5D99B
:100D600001B0F0BD7068216920F0FE4040EA0160EA
:100D700070602078C0061AD5306900F03801B06A7A
:100D8000082907D0182940F0858000F003000128C9
:100D900040F080803068C00502D5E06980285FD1CE
:100DA000F068216A20F07C5040EA0160F060207811
:100DB00000073FD42078800656D42078400700F101
:100DC0008180656A9DB3306900F03800182840F0D2
:100DD0001981012DB16A306B42D001F00302A36A80
:100DE0009A423DD1C1F30511E26A914238D10146E0
:100DF000226B6FF35F21013A914231D1C0F3462259
:100E0000616B01398A422BD1C0F30642A16B0139D3
:100E10008A4225D1C0F30660E16B013988421FD1B7
:100E2000706BA16CC0F3CC00814240F0A181002026
:100E300001B0F0BD60690028706F59D040F001002A
:100E40007067FFF71DFC0546706F8007B2D4FFF78F
:100E500017FC401B0228F7D9032001B0F0BD00BFEA
:100E6000012001B0F0BD00BFA0690028306875D036
:100E700040F480503060FFF703FC05463068800482
:100E80009BD4FFF7FDFB401B0228F7D9032001B0DC
:100E9000F0BD00BFE0690028306800F0A18040F09C
:100EA00080003060FFF7ECFB054600BF3068C005EE
:100EB0003FF576AFFFF7E4FB401B02284FF003003D
:100EC000F4D94DE7D6F8000440F48070C6F8000469
:100ED000FFF7D6FB054600BFD6F80004C0052BD4AB
:100EE000FFF7CEFB401B6428F6D9032001B0F0BD0C
:100EF00020F001007067FFF7C3FB0546706F8007A5
:100F00007FF558AFFFF7BCFB401B02284FF00300F2
:100F1000F4D925E721F001003060FFF7B1FB054669
:100F2000306840077FF525AFFFF7AAFB401B02287A
:100F30004FF00300F4D913E7A068002800F0848084
:100F4000052800F09B80012800F09C80306F20F085
:100F500001003067306F20F0040096E020F48050EC
:100F60003060FFF78DFB0546306880047FF525AFC4
:100F7000FFF786FB401B02284FF00300F4D9EFE691
:100F8000306820F480303060306820F48020306099
:100F9000FFF776FB054600BF306880037FF577AE2C
:100FA000FFF76EFB401B64284FF00300F4D9D7E62F
:100FB000306840F480203060306840F48030306029
:100FC000FFF75EFB054600BF306880033FF55FAE6C
:100FD000FFF756FB401B6428F6D9032001B0F0BD93
:100FE00020F080003060FFF74BFB05463068C005FD
:100FF0007FF5DDAEFFF744FB401B02284FF00300F6
:10100000F4D9ADE6306820F080703060FFF738FB2F
:10101000022D05460CD100BF3068800148D5FFF78E
:101020002FFB401B02284FF00300F5D998E600BFC4
:10103000306880017FF5FBAEFFF722FB401B0228E2
:101040004FF00300F4D98BE6306F20F001003067D9
:10105000306F20F004003067FFF712FB054641F2C5
:101060008837306F80077FF5ACAEFFF709FB401B78
:10107000B8424FF00300F4D972E600BF306F40F081
:1010800004003067306F40F001003067FFF7F8FA76
:10109000054641F2883700BF306F80073FF591AEBB
:1010A000FFF7EEFA401BB8424FF00300F4D957E6C1
:1010B00004F12807B06A40F2F33188438ECF084329
:1010C000591E40EA02104FF47E426FF35F21B06276
:1010D00002EB47204FF4FE0280B2E36B0844A16BA1
:1010E00002EB01414FF0FE4201F4FE0102EB03620C
:1010F000084402F0FE4108443063F06A4FF6F8718C
:1011000020F00100F062706BA26C884340EAC200DC
:101110007063F06A216C20F00C000843F062F06A02
:10112000616C20F002000843F062F06A40F4803005
:10113000F062F06A40F40030F062F06A40F480201F
:10114000F062F06A40F00100F062306840F08070B8
:101150003060FFF795FA0446306880013FF567AECE
:10116000FFF78EFA001B02284FF00300F4D9F7E5D1
:10117000F06A20F00100F062FFF782FA0546FFF7FF
:101180007FFAA842FBD0706B4FF6F871A26C8843CF
:1011900040EAC2007063F06A40F00100F062002093
:1011A00001B0F0BD00000000411E0020B0EB116F47
:1011B00002D00120704700BF4EF21002F023CEF2A1
:1011C000000251604EF62351CEF200010B70072150
:1011D000906011607047000090F83C20012A4FF0A9
:1011E000020266D0B0B580F83D2040F2004C0268A3
:1011F000C4F2010C42F4806363455368D2F808E0FE
:1012000002BF23F470034C6823434DF6FF740D684E
:10121000C4F2000423F07003A24243EA05035360C2
:1012200014DC40F2FF73C4F200039A4222DD40F660
:101230000003C4F200039A422ED040F60043C4F2E9
:1012400000039A4228D041F6000321E04FF6FF73D5
:10125000C4F200039A4213DD0023C4F201039A4250
:101260001AD044F20003C4F201039A4214D062453A
:1012700012D016E0B2F1804F0ED040F2004307E0EA
:101280004EF20003C4F200039A4205D04EF200432E
:10129000C4F200039A4204D12EF0800389681943F6
:1012A00091600022012180F83D1080F83C20BDE8CB
:1012B000B04010467047000060B310B5044690F887
:1012C0003D0028B9002084F83C00204600F024F8B6
:1012D000022084F83D002068211D00F049FE012015
:1012E00084F8480084F83E0084F83F0084F8400009
:1012F00084F8410084F8420084F8430084F84400F4
:1013000084F8450084F8460084F8470084F83D00DE
:10131000002010BD012070470068B0F1804F18BF59
:10132000704781B044F2E840C5F60200016841F020
:1013300001010160006800F001000090009801B018
:10134000704700000000000090F83C20012A4FF098
:10135000020200F0AA8080B580F83D208822D0F8F3
:1013600000C0CFF6CE72DCF808301A40CCF8082066
:101370000B686F2B0EDDB3F1101F37DAB3F5005F8A
:1013800046DA702B00F09480B3F5805F00F0848023
:10139000D8E000BF2F2B33DD4F2B3FDC302B6FD03D
:1013A000402B40F0CF80D1F804E0C968DCF8203051
:1013B000DCF8202022F00102CCF82020DCF81820F4
:1013C00022F0F00242EA011123F00A02CCF81810D0
:1013D00042EA0E01CCF820104FF68872DCF80810B3
:1013E000CFF6CF721140473154E000BF2F21C0F239
:1013F00010018B423ADCB3F1101F41D020213BE0B9
:10140000002B18BF102B3BD0202B39D09AE000BF07
:1014100062D0B3F5801F33D094E000BF502B6FD063
:10142000602B40F08F80D1F804E0C968DCF82030F0
:10143000DCF8202022F01002CCF82020DCF8182064
:1014400022F4704242EA013123F0A002CCF81810D5
:1014500042EA0E11CCF820104FF68872DCF8081022
:10146000CFF6CF721140673114E000BF3021C0F2D7
:1014700010018B4204D04021C0F210018B4261D197
:101480004FF68872DCF80810CFF6CF72114019437E
:1014900041F00701CCF808100022012180F83D102E
:1014A000002180F83C10BDE880401046704700BF26
:1014B000D1E901E3C968DCF8082043EA0E0322F40D
:1014C0007F4243EA01211143CCF80810DCF80810F0
:1014D00041F07701DEE700BFD1E901E3C968DCF83C
:1014E000082043EA0E0322F47F4243EA012111431C
:1014F000CCF80810DCF8081041F48041CAE700BFBE
:10150000D1F804E0C968DCF82030DCF8202022F0B3
:101510000102CCF82020DCF8182022F0F00242EA88
:10152000011123F00A02CCF8181042EA0E01CCF89F
:1015300020104FF68872DCF80810CFF6CF721140F9
:101540005731A7E70122A8E790F83C30012B01D1E1
:10155000022070474FEAB202052A33D82DE9F04144
:10156000DFE812F0060036007400B200D800FE007A
:10157000036843F6FF76C4F201061C6AB3421A6A96
:1015800024F0020422F001021A621A46D3F804C0C1
:1015900052F818EF8D6844EA0504D1F8008040F352
:1015A000058144F20007C4F20107BB4200F0098143
:1015B00044F60007C4F20107BB4200F0028144F286
:1015C0000047FAE00121002280F83C2008467047DD
:1015D000036840F2004E43F48067C4F2010E1C6AB7
:1015E00077451A6A24F0200422F010021A621A4683
:1015F0005D6852F818CF8E6844EA061407D1CE68A9
:101600006FF0400724F0C00407EA0616344343F69F
:10161000FF76D1F80080C4F20106B34240F3EC80BB
:1016200044F20007C4F20107BB4200F0EC8044F62C
:101630000007C4F20107BB4200F0E58044F2004716
:10164000C4F20107BB4200F0DE80E3E0036840F231
:10165000004E43F48067C4F2010E1C6A77451A6A93
:1016600024F4007422F480721A621A465D6852F8FB
:101670001CCF8E6844EA062407D1CE6840F2FF47AB
:10168000360224F44064BE43344343F6FF76D1F877
:101690000080C4F20106B34240F3D48044F2000754
:1016A000C4F20107BB4200F0D48044F60007C4F244
:1016B0000107BB4200F0CD8044F20047C4F20107AD
:1016C000BB4200F0C680CBE0036843F6FF77C4F26C
:1016D0000107D3F820C0BB421A6A22F480521A6272
:1016E0001A465C6852F81C6F0D68D1F808E040F3A8
:1016F000CF8044F20007C4F20107BB4200F0D38060
:1017000044F60007C4F20107BB4200F0CC8044F26B
:101710000047C4E0036843F6FF77C4F20107D3F83B
:1017200020C0BB421A6A22F480321A621A465C68F0
:1017300052F8546F0D68D1F808E040F3D38044F2BA
:101740000007C4F20107BB4200F0D78044F600074F
:10175000C4F20107BB4200F0D08044F20047C8E069
:10176000036843F6FF77C4F20107D3F820C0BB42F9
:101770001A6A22F480121A621A465C6852F8546F90
:101780000D68D1F808E040F3D98044F20007C4F2B4
:101790000107BB4200F0DD8044F60007C4F20107F8
:1017A000BB4200F0D68044F20047CEE00027C4F2EE
:1017B0000107BB4205D040F20047C4F20107BB421B
:1017C00005D1CF6824F00C0427F004073C43B34252
:1017D00040F3E28044F20006C4F20106B34200F096
:1017E000E68044F60006C4F20106B34200F0DF8052
:1017F00044F20046D7E000BF0027C4F20107BB4215
:1018000001D0734506D1D1E90576374325F440660A
:1018100046EA870548F6FF475D60CFF6FF6707EAAF
:101820000C0747EA08279F614F6809699F631C629C
:101830009F6947F400679F619F6927F480679F61F4
:10184000A7E000BF0027C4F20107BB4201D07345E7
:1018500006D1D1E90576374325F4405646EA071507
:101860004FF68C775D60CFF6FE7707EA0C0747EA04
:101870000807DF614F680969DF631C62DF6947F0B1
:101880000807DF61DF6927F00407DF61ADE000BF13
:101890000027C4F20107BB4205D040F20047C4F262
:1018A0000107BB4204D14F6924F4804444EA871401
:1018B00048F6FF475C60CFF6FF673E402CF40057C8
:1018C00046EA0524DC614E6809691E6447EA0E3762
:1018D0001F62DF6947F40067DF61DF6927F4806713
:1018E000DF6156E00027C4F20107BB4205D040F299
:1018F0000047C4F20107BB4204D14F6924F480348D
:1019000044EA07244FF68C775C60CFF6FE77033706
:101910003E402CF4003746EA05045C654E680969D0
:101920009E6547EA0E471F625F6D47F008075F65D7
:101930005F6D27F004075F6557E000BF0027C4F222
:101940000107BB4205D040F20047C4F20107BB4289
:1019500004D14F6924F4802444EA872448F6FF47E1
:101960005C60CFF6FF6707F540773E402CF4001728
:1019700046EA05245C654E680969DE6547EA0E574C
:101980001F625F6D47F400675F655F6D27F48067D6
:101990005F65090229E000BF0026C4F20106B342D8
:1019A00005D040F20046C4F20106B34206D12CF441
:1019B0004077D1E90565374347EA050C4FF68C754A
:1019C000C3F804C0CFF6FE750EEA050747EA08071C
:1019D0009F614F6809695F631C629F6947F0080750
:1019E0009F619F6927F004079F6113681943116085
:1019F0000021BDE8F041002280F83C2008467047F5
:101A000060B310B5044690F83D0028B9002084F872
:101A10003C00204600F024F8022084F83D002068B5
:101A2000211D00F0A5FA012084F8480084F83E004A
:101A300084F83F0084F8400084F8410084F84200B4
:101A400084F8430084F8440084F8450084F8460094
:101A500084F8470084F83D00002010BD0120704745
:101A6000704700000000000081B10A1F8B0743EAA5
:101A70009202032A12D8DFE802F003171F2500BFE5
:101A800000F13F031B78012B13D120E090F83E209A
:101A9000012A0ED1022280F83E2032E000F14303F9
:101AA0001B78012B05D112E000F140031B78012BBC
:101AB0000DD00120704700BF00F141031B78012BBE
:101AC00005D0F6E700F142031B78012BF1D1032A80
:101AD00008D8DFE802F0030B0F1300BF022280F8E2
:101AE0003F200EE0022280F843200AE0022280F824
:101AF000402006E0022280F8412002E0022280F825
:101B00004220026801F01F00012101FA00F0116A71
:101B1000814311624EF2FF31C4F200018A42116A20
:101B200040EA0100106215DC40F6FF30C4F200000C
:101B3000824227DCB2F1804F4ED040F20040C4F226
:101B40000000824248D040F60000C4F20000824209
:101B500042D053E043F6FF700021C4F20100C4F20A
:101B60000101824244F20000C4F201001EDC4EF288
:101B70000043C4F200039A422ED08A4224D040F29D
:101B800000431DE040F60040C4F20000824223D032
:101B900041F60000C4F2000082421DD04EF2000067
:101BA000C4F20000824217D028E000BF82420BD06E
:101BB00044F60003C4F201039A4205D044F2004304
:101BC000C4F201039A4219D1536C8A4243F4004192
:101BD000516418BF82420BD107219068C0F2010105
:101BE00001400020062918BFB1F5803F06D170479B
:101BF00040F20040C4F201008242EDD0106840F093
:101C00000100106000207047FEE7000000000000A7
:101C100082B044F2E040C5F60200016841F0800164
:101C20000160016801F0800101910199016841F0B2
:101C300001010160006800F001000090009802B00E
:101C4000704700000000000010B594B040F278002A
:101C50000021C2F200400E91CDE90C11CDE909112D
:101C6000CDE90711CDE90511CDE90311CDE9011148
:101C70004FF080420260EF22C0E9012144F61F626A
:101C8000C0E9032180218161FFF716FB08B1FEF74F
:101C9000EFFB4FF480500B9040F278000BA9C2F29A
:101CA0000040FFF751FB08B1FEF7E2FB40F278007D
:101CB000C2F20040FFF7A4FE08B1FEF7D9FB40F2E4
:101CC000780008A9C2F20040002408940A94FFF7A3
:101CD00083FA08B1FEF7CCFB60200394CDE9010440
:101CE000059440F27804C2F2004401A90022204683
:101CF000FFF72AFC08B1FEF7BBFB2068B0F1804F6C
:101D000002D014B010BD00BF44F2E040C5F602009E
:101D1000016841F0010101600068022100F001004A
:101D20000F900F9801200F90139000201091002128
:101D3000CDE91111C5F602000FA9FEF7CDFB14B0D5
:101D400010BD000000000000FEE7000000000000E1
:101D5000FEE70000000000007047000000000000E7
:101D6000704700000000000040F6C411884238BFF0
:101D7000014640F27800C2F20040B1F5FA7F0068F7
:101D800098BF4FF4FA71416340F21000C2F2004074
:101D9000018070470000000010B540F27804002177
:101DA000C2F200442046FFF75FFE206840F2D651A1
:101DB000416340F21000C2F20040018010BD0000FB
:101DC000FEF766BC00000000B0B59CB044F61804F5
:101DD000022000251195CDE90F55CDE90D55CDE92E
:101DE0000B550895C5F60204CDE90655CDE9045515
:101DF000CDE902550195FEF757FD0095206820F4C6
:101E000040402060206800F4404000900098206826
:101E1000800409D4206880045CBF20685FEA8040A9
:101E200002D420688004F2D50120099028224FF4C2
:101E30008031CDE915200C20199009A80A910221C2
:101E40001491CDE91211CDE917110024CDE91A44FE
:101E5000FEF712FF20B1EFF3108072B6FEE700BF6D
:101E60003F20019003204FF48061CDE90204082057
:101E700004904020CDE90500CDE9071001A8032119
:101E8000FEF73AFD20B1EFF3108072B6FEE700BF17
:101E90001CB0B0BD000000004EF6885042F2000CAD
:101EA000CEF20000C5F2002C026842F4700202601B
:101EB000DCF8000000F00F00062806D8DCF800006F
:101EC000072262F30300CCF8000044F200404EF613
:101ED0007F51C5F60200CEF6F621026842F00102FB
:101EE000026000220261036819400160DCF8001002
:101EF000090706D5DCF80010072363F30301CCF8CB
:101F0000001040F200218261C261C0F2022102622F
:101F100081620021C0F2FF11C16240F28021C0F253
:101F20000111016342638163C26301644264016819
:101F300021F4802101600266D0F8D410C90448BFA2
:101F40007047D0F8D41043F2D20241F48051C0F867
:101F5000D41044F20001C5F200210A60D0F8D41078
:101F600021F48051C0F8D410704700000000000038
:101F700010B540F6FF32D0F800E0C4F20002904203
:101F800010DCB0F1804F1ED040F20043C4F20003D9
:101F9000984218D040F60003C4F20003984212D0D1
:101FA00016E000BF40F60043C4F2000398420AD096
:101FB00040F20043C4F20103984204D00023C4F26B
:101FC0000103984204D12EF070024B6843EA020EDE
:101FD0004EF2FF3343F6FF7CC4F20003C4F2010C5F
:101FE000984213DD60452BDC4EF20043C4F200033F
:101FF000984242D00023C4F2010398423DD040F2FF
:102000000043C4F20103984237D03BE040F2FF7333
:10201000C4F20003984227DD40F60003C4F2000337
:1020200098422AD040F60043C4F20003984224D0DC
:102030004EF20003C4F2000398421ED022E000BF1B
:1020400044F20003C4F20103984216D044F60003A0
:10205000C4F20103984210D044F20043C4F20103D9
:1020600098420AD00EE000BFB0F1804F05D040F298
:102070000043C4F20003984204D12EF44072CB68AE
:1020800043EA020E4B6960450A688C68C46282624A
:1020900012DD44F20002C4F20102904217D044F66D
:1020A0000002C4F20102904211D044F20042C4F294
:1020B000010290420BD00CE00022C4F201029042D7
:1020C00005D040F20042C4F20102904201D10969F8
:1020D0000163016841F004010160012141612EF0BA
:1020E00080011943016010BDFEE700000000000000
:1020F00084B001200090FEF767FB0020019048F2B9
:102100001F70029040F2011003906846FEF72CFB0E
:102110000420FEF769FBFEF7CBFAFFF755FEFFF749
:1021200077FDFFF791FDFFF737FE4FF47A70FEF76A
:10213000BFF940F2DC50FFF717FE40F2DC50FEF72B
:10214000B7F900BF40F2DC50FFF70EFE40F2DC5062
:10215000FEF7AEF9F6E7F1EE100A4FF6FF71C0F2A6
:10216000C03120EA010040F04070E1EE100A7047F3
:10217000000000000102030401020304060708092D
:10218000B0210008000000241800000030030008FF
:10219000B0210008000000200004000050030008E7
:1021A000C821000818000024B002000050030008F5
:1021B00001000000100000000090D0030090D00348
:0821C000DC0500000000000036
:04000005080002CD20
:00000001FF
