:020000040800F2
:10000000C878002499030008B969000881660008CF
:10001000B1690008490F000869B600080000000037
:1000200000000000000000000000000091710008C6
:100030008914000800000000A16B00086973000823
:10004000B7030008B7030008B7030008B7030008A8
:10005000B7030008B7030008B7030008B703000898
:10006000B7030008B7030008B7030008B703000888
:10007000B7030008B7030008B7030008B703000878
:10008000B7030008B7030008B7030008B703000868
:1000900041150008B703000851150008B703000810
:1000A000B7030008B7030008B7030008B703000848
:1000B00041750008B7030008B7030008B70300083C
:1000C000B7030008B7030008B7030008B703000828
:1000D000B7030008B7030008B7030008B703000818
:1000E000B7030008B703000800000000B7030008CA
:1000F000B7030008B7030008B7030008B7030008F8
:10010000B7030008B7030008B7030008B7030008E7
:10011000B7030008B7030008B7030008B7030008D7
:10012000B7030008B7030008B7030008B7030008C7
:10013000B7030008B7030008B7030008B7030008B7
:1001400000000000000000000000000000000000AF
:10015000B7030008B7030008B7030008B703000897
:10016000B7030008B7030008B7030008B703000887
:10017000B7030008C1690008B703000800000000C9
:10018000B7030008B7030008B7030008B703000867
:10019000B7030008B7030008B7030008B703000857
:1001A000B7030008B7030008B70300080000000009
:1001B000B7030008B7030008B7030008B703000837
:1001C000B7030008B70300080000000000000000AB
:1001D0000000000000000000B7030008000000005D
:1001E000000000000000000000000000000000000F
:1001F0000000000000000000B7030008B70300087B
:10020000B7030008B703000800000000B7030008A8
:10021000B7030008B7030008B7030008B7030008D6
:10022000B703000800000000B7030008000000004A
:10023000B7030008B703000800000000B703000878
:10024000B7030008B7030008B7030008B7030008A6
:10025000B7030008B7030008B7030008B703000896
:10026000B7030008B7030008B7030008B703000886
:10027000B7030008B7030008B70300080000000038
:10028000B7030008B7030008B7030008B703000866
:1002900000000000B7030008B703000800000000DA
:1002A00000000000B7030008B7030008B703000808
:1002B000398E0008B7030008B7030008B915000815
:1002C000C9150008B7030008B703000800F002F8DA
:1002D00000F052F814A696E8000CB244B344DA4594
:1002E00001D100F049F8BAE80F000FA696E83000F7
:1002F000A5EB040504EB0607AAEB0704A7F1010729
:100300004FEA15154FEA3414A4F10104AC4201D3AD
:1003100000F032F813F0010F18BFFB1A43F001038D
:1003200000F001F8DBE71847D8CA000018CB00003E
:10033000103A24BF78C878C1FAD8520724BF30C811
:1003400030C144BF04680C60704700007047000073
:100350000023002400250026103A28BF78C1FBD8CE
:10036000520728BF30C148BF0B6070471FB50CF063
:10037000C9FC1FBD10B510BD00F05EF91146FFF7B6
:10038000F5FF0BF0A9F900F07CF903B4FFF7F2FFD9
:1003900003BC00F07FF900000A4880470A48804704
:1003A0000A480047FEE7FEE7FEE7FEE7FEE7FEE756
:1003B000FEE7FEE7FEE7FEE705480649064A074B6B
:1003C00070470000B914000869740008CD020008E5
:1003D000C8720024C8780024C8740024C87400249B
:1003E00053EA020C00F069802DE9F04B4FF0000653
:1003F000002B1FBFB3FA83F503FA05F424FA05F6C0
:100400005E4012BF1643B2FA82F502FA05F4C5F156
:1004100020051EBF22FA05FC44EA0C04203556EAEA
:10042000044C4FEA144418BF641C4FF000084FF00E
:100430000009904271EB030C39D3002919BFB1FABE
:1004400081F701FA07F6B0FA80F700FA07F6C7F16C
:1004500020071EBF20FA07FC46EA0C062037B6FB31
:10046000F4FCA7EB0507103F07F01F0BCBF12006AC
:100470002CFA06F60CFA0BFB44BFB3460026202FDD
:10048000A4BF5E464FF0000B5BEA060C08BF4FF0BE
:10049000010B19EB0B0948EB0608ABFB027C06FBD2
:1004A00002CC0BFB03CCC01B71EB0C01C1E70B466C
:1004B000024641464846BDE8F08B13B5084318BFD5
:1004C0004FF0FF300146AFF30080BDE81C4070479D
:1004D000032A40F2308010F0030C00F0158011F870
:1004E000013BBCF1020F624498BF11F801CB00F848
:1004F000013B38BF11F8013BA2F1040298BF00F89C
:1005000001CB38BF00F8013B11F0030300F05A8023
:10051000083AC0F0088051F8043B083A51F804CB7F
:10052000A0E80810F5E7121D5CBF51F8043B40F845
:10053000043BAFF30080D20724BF11F8013B11F850
:1005400001CB48BF11F8012B24BF00F8013B00F894
:1005500001CB48BF00F8012B70474FF0000200B5F7
:10056000134694469646203922BFA0E80C50A0E8D6
:100570000C50B1F12001BFF4F7AF090728BFA0E884
:100580000C5048BF0CC05DF804EB890028BF40F850
:10059000042B08BF704748BF20F8022B11F0804F92
:1005A00018BF00F8012B704770477047704710B5AF
:1005B00000F03AF8006810BD10B5044600F034F8B9
:1005C000046010BD10B5203AC0F00B80B1E818509F
:1005D000A0E81850B1E81850A0E81850203ABFF42D
:1005E000F5AF5FEA027C24BFB1E81850A0E81850CC
:1005F00044BF18C918C0BDE810405FEA827C24BF20
:1006000051F8043B40F8043B08BF7047D20728BFAD
:1006100031F8023B48BF11F8012B28BF20F8023BFC
:1006200048BF00F8012B704700487047C400002005
:1006300000487047C40000207546FFF7F9FFAE463A
:1006400005006946534620F00700854618B020B5DE
:10065000FFF7B2FEBDE820404FF000064FF0000764
:100660004FF000084FF0000BAC46ACE8C009ACE816
:10067000C009ACE8C009ACE8C00921F007018D460B
:10068000704710B50446AFF300802046BDE8104027
:10069000FFF77BBE01491820ABBEFEE72600020033
:1006A00070470000000000009FED041A20EE010AD0
:1006B0009FED031A80EE010A704700BFDB0F49402F
:1006C000000034430000000018B1002918BF002AC0
:1006D00000D1704791F9103090ED001A90ED013A79
:1006E00000EE103A91F9183091F92010B8EEC00AD6
:1006F00002EE101A21EE000A01EE103AB8EEC22AFC
:1007000082ED000A90ED020A007BB8EEC11A107368
:1007100020EE020A82ED020A23EE011A82ED011A8E
:100720007047000000000000002818BF2430704708
:1007300028B3B0B50D4601B35C210446FFF70DFFA9
:10074000D5E900CED5E90223D5E90401C4E90223A5
:1007500005F1180204F11803C4E90401C4E900CE4C
:1007600007CA07C304F124003421FFF7F6FEFE2078
:1007700084F82400012084F85800BDE8B040704798
:10078000002845D070B52DED108B00F124050446EE
:1007900090F8586034212846B0EE618AB0EE419A54
:1007A000B0EE60BAB0EE40AAFFF7D7FE002E3FD001
:1007B00094ED011A9FED190AB4EE401A84ED0BAACC
:1007C000F1EE10FA84ED0CBA84ED0D9A24DD94ED6F
:1007D000021AB4EE401AF1EE10FA1DDDB0EECA1A9C
:1007E000B4EE401AF1EE10FA2ADAB0EECB1AB4EEFB
:1007F000401AF1EE10FA23DA012084F828009FED68
:1008000008EAB4EE4E8AF1EE10FA28DA46E000BFAC
:10081000FF2148B2704700BFFE210AE0BD37863590
:10082000DB0F4940DB0FC9C0DB0F49C0DB0FC940FC
:10083000FB212970BDEC108BBDE8704048B27047B9
:10084000B0EE4B0AF0EE4A0A0BF0D6FEB0EE408A4C
:100850001FED0DEAB4EE4E8AF1EE10FA1EDB1FED2D
:100860000F0A00BF38EE008AB4EE4E8AF1EE10FA9D
:10087000A1BF38EE008AB4EE4E8AF1EE10FA38EEDF
:10088000008AA4BFB4EE4E8AF1EE10FA06DB38EE11
:10089000008AB4EE4E8AF1EE10FAE3DA1FED1EFA8A
:1008A000B4EE4F8AF1EE10FA1DDA1FED200A38EE91
:1008B000008AB4EE4F8AF1EE10FA14DA38EE008AAC
:1008C000B4EE4F8AF1EE10FABEBF38EE008AB4EEF5
:1008D0004F8AF1EE10FA06DA38EE008AB4EE4F8A4B
:1008E000F1EE10FAE3DBB0EE480A0BF0DBFFB0EEFE
:1008F00040CAB0EE480A0CF07DF820EE0B0A94EDE9
:10090000001A39EE41BA94ED012A94ED023AACEEA8
:100910000A0A2BEE0B1AA0EE001AA2EE421A32EED1
:10092000022AA3EE431A22EE032A81EE021A9FED59
:10093000E62AB4EE421AF1EE10FAC0F299819FED68
:10094000E32AB4EE421AF1EE10FA00F39181B7EE09
:10095000002AB1EE40AA81FE421ABFEE002AC1FE73
:10096000020A9FEDEC1A90EEE02A82FE011AB1EE27
:10097000C11AB1EE410A0BF03FFEB0EE409A94ED81
:1009800001CA94ED02DA0BF08DFFADEE00CAB0EEB5
:10099000490A94ED02DA0CF02DF82DEE00DAB0EEF3
:1009A0004A0AF0EE4B0A0BF027FEB0EE40AAB0EE7A
:1009B0004D0AF0EE4C0A0BF01FFEB4EE4E8AF1EE3B
:1009C00010FA80F261813AEE400AB4EE4F8AF1EEFD
:1009D00010FA1DDA1FED6B1A38EE018AB4EE4F8A59
:1009E000F1EE10FA14DA38EE018AB4EE4F8AF1EE25
:1009F00010FABEBF38EE018AB4EE4F8AF1EE10FA5B
:100A000006DA38EE018AB4EE4F8AF1EE10FAE3DB33
:100A1000B4EE4E0AF1EE10FA80F25A81B4EE4F0AAB
:100A2000F1EE10FA1DDA1FED7F1A30EE010AB4EE76
:100A30004F0AF1EE10FA14DA30EE010AB4EE4F0A62
:100A4000F1EE10FABEBF30EE010AB4EE4F0AF1EE3D
:100A500010FA06DA30EE010AB4EE4F0AF1EE10FA9F
:100A6000E3DBB4EE4E9AF1EE10FA80F25581B4EE6B
:100A70004F9AF1EE10FA1DDA1FED941A39EE019A31
:100A8000B4EE4F9AF1EE10FA14DA39EE019AB4EEA0
:100A90004F9AF1EE10FABEBF39EE019AB4EE4F9ABA
:100AA000F1EE10FA06DA39EE019AB4EE4F9AF1EE51
:100AB00010FAE3DB94ED031A012038EE411A84F8B2
:100AC000260084ED0E8A84ED0F0AB4EE4E1A84EDF2
:100AD000109AF1EE10FA84F8440080F23D81B4EEF1
:100AE0004F1AF1EE10FA1DDA9FEDD52A31EE021AF7
:100AF000B4EE4F1AF1EE10FA14DA31EE021AB4EE37
:100B00004F1AF1EE10FABEBF31EE021AB4EE4F1AD0
:100B1000F1EE10FA06DA31EE021AB4EE4F1AF1EEE7
:100B200010FAE3DB94ED053A84ED121A30EE432A15
:100B3000B4EE4E2AF1EE10FA80F23081B4EE4F2A74
:100B4000F1EE10FA1DDA9FEDBE1A32EE012AB4EE74
:100B50004F2AF1EE10FA14DA32EE012AB4EE4F2ADF
:100B6000F1EE10FABEBF32EE012AB4EE4F2AF1EEDA
:100B700010FA06DA32EE012AB4EE4F2AF1EE10FA3C
:100B8000E3DB94ED074A30EE091A33EE043A84EDC4
:100B9000132A31EE431AB4EE4E1AF1EE10FA80F237
:100BA0001D81B4EE4F1AF1EE10FA1DDA9FEDA42A62
:100BB00031EE021AB4EE4F1AF1EE10FA14DA31EEF9
:100BC000021AB4EE4F1AF1EE10FABEBF31EE021A5D
:100BD000B4EE4F1AF1EE10FA06DA31EE021AB4EE64
:100BE0004F1AF1EE10FAE3DB9FED962A012120EE79
:100BF000020A9FED952A002084ED141A84F85410FF
:100C000080EE0E0A84F82500B4EE420AF1EE10FAE6
:100C1000C0F207819FED8D2AB4EE420AF1EE10FA80
:100C200000F3FF808AA1B5EE400AF1EE10FAC8BFCA
:100C3000043191ED002AB4EE412AF1EE10FA00F3EE
:100C4000EF8085A1B5EE400AF1EE10FAB8BF04318D
:100C50009FED832A91ED000A32FE000AB4EE410AAC
:100C6000F1EE10FAC0F2DC8000210120DCE000BFD0
:100C7000FD2184F82410002084F82600BDEC108BA0
:100C8000BDE8704048B270479FED6C1A38EE018A9B
:100C9000B4EE4E8AF1EE10FAA1BF38EE018AB4EE3E
:100CA0004E8AF1EE10FA38EE018AA4BFB4EE4E8AF5
:100CB000F1EE10FAFFF687AE38EE018AB4EE4E8AF6
:100CC000F1EE10FAE2DA7EE6540080BF5400803F75
:100CD0009FED5A1A30EE010AB4EE4E0AF1EE10FA08
:100CE000FFF69CAE30EE010AB4EE4E0AF1EE10FAB9
:100CF000A2BF30EE010AB4EE4E0AF1EE10FAFFF692
:100D00008DAE30EE010AB4EE4E0AF1EE10FAE1DAE1
:100D100084E600BF000000009FED481A39EE019AFA
:100D2000B4EE4E9AF1EE10FAA1BF39EE019AB4EE8C
:100D30004E9AF1EE10FA39EE019AA4BFB4EE4E9A33
:100D4000F1EE10FAFFF693AE39EE019AB4EE4E9A38
:100D5000F1EE10FAE2DA8AE69FED382A31EE021A55
:100D6000B4EE4E1AF1EE10FAFFF6B9AE31EE021AF9
:100D7000B4EE4E1AF1EE10FAA2BF31EE021AB4EE42
:100D80004E1AF1EE10FAFFF6AAAE31EE021AB4EEE8
:100D90004E1AF1EE10FAE1DAA1E600BF9FED271A34
:100DA00032EE012AB4EE4E2AF1EE10FAA1BF32EE75
:100DB000012AB4EE4E2AF1EE10FA32EE012AA4BF57
:100DC000B4EE4E2AF1EE10FAFFF6B8AE32EE012A7A
:100DD000B4EE4E2AF1EE10FAE2DAAFE69FED172AF2
:100DE00031EE021AB4EE4E1AF1EE10FAFFF6D9AE59
:100DF00031EE021AB4EE4E1AF1EE10FAA2BF31EE45
:100E0000021AB4EE4E1AF1EE10FAFFF6CAAE31EE47
:100E1000021AB4EE4E1AF1EE10FAE1DAC1E600BFA2
:100E2000022184F82510FC2184F8241084F827007E
:100E3000BDEC108BBDE8704048B27047DB0FC9C0F5
:100E4000DB0FC94000003443000078C200008C4230
:100E5000AE98A3BFBD3786B5170C383FBD37863572
:100E6000170C383F0000000080B58AB000200190C8
:100E700000209FED130AC4F2A030CDE90200FFF775
:100E800013FC8DED040A9FED0F0AFFF70DFC8DEDAD
:100E9000060A9FED0D0AFFF707FC01208DF81400EC
:100EA0008DF8240042F63C10FF218DF81C10C2F290
:100EB000004001A98DED080AFFF73AFC0AB080BD99
:100EC0000000000000008C42000011C30000000080
:100ED000B0B586B042F63C15DFED1A1AC2F20045F5
:100EE0002846FFF74DFC04462846FFF71DFCE11C91
:100EF00012D0E1B2FC2911D0C1B942F63C11243024
:100F0000C2F2004101AAFFF7DFFB0020ADF8160096
:100F10000DF1160110E000BF01200AE040B1407859
:100F200002218DF804108DF8050004E0032000E094
:100F30000220ADF8040001A99020022206F03CF93D
:100F400006B0B0BD00000000FEE700000000000099
:100F500041F2883000F09CFA0A200AF0E5FB0120FB
:100F60000AF0E2FB01200AF0DFFBF5E700000000D9
:100F7000B0B5864600284FF0000018BF002901D107
:100F8000B0BD00BF40F2680343F2901CC2F20043C0
:100F9000C2F2004CDA689C68A242F1D0DA68451CC3
:100FA000A9421CF80220DC6804F101046FF31F342D
:100FB000DC600EF800202846ECD10846B0BD0000E9
:100FC00040F26800C2F2004001684068081A40F62A
:100FD000FF7138BF00F58050081A7047000000000C
:100FE00042F64460C2F20000D0F8BC02002808BFFC
:100FF000704770B540F26806C2F20046716919B1D7
:10100000BDE87040704700BFD0F814020028F7D147
:1010100030687168441A38BF04F58054002CEFD052
:1010200030687168884201D9306801E04FF480501F
:10103000716842F64465401A44F29011A042C2F22F
:10104000004138BF04467068C2F20005B4F5007F65
:10105000014428BF4FF400742846224608F0C4F823
:10106000284608F049F9002808BF7461BDE87040BF
:1010700070470000000000000122002818BF00296E
:1010800002D11046704700BFF0B581B040F268064B
:10109000C2F2004632687368D21A40F6FF7338BF56
:1010A00002F580529A1A8A4206D2002201B0BDE8A7
:1010B000F0401046704700BF4A1E01F0030C032A9F
:1010C00054D20021BCF1000F33D0435C32680132AE
:1010D00077686FF31F32BA4206D0376844F2901532
:1010E000C2F20045EB553260BCF1010F21D008443B
:1010F00041783268013273686FF31F329A4206D02A
:10110000336844F29017C2F20047F9543260BCF1E0
:10111000020F0ED080783168013172686FF31F3191
:10112000914206D0326844F29013C2F200439854C0
:10113000316042F64460C2F20000D0F8BC020028E0
:101140006ED0716900296BD1D0F81402002867D1E4
:1011500030687168441A38BF04F58054002C5FD0A1
:101160003068716888423BD930683BE044F29015A2
:1011700021F0030E0021C2F2004502E004318E4549
:10118000A0D0445C3268013273686FF31F329A4218
:1011900002D03368EC54326044186278336801330B
:1011A00077686FF31F33BB4202D03768EA5533606C
:1011B000A2783368013377686FF31F33BB4202D0E4
:1011C0003768EA553360E2783368013374686FF347
:1011D0001F33A342D2D034682A553360CEE700BF14
:1011E0004FF48050716842F64465401A44F2901101
:1011F000A042C2F2004138BF04467068C2F2000546
:10120000B4F5007F014428BF4FF4007428462246FD
:1012100007F0EAFF284608F06FF8002808BF74615D
:10122000012201B0BDE8F040104670470000000008
:10123000212806D14FF4E130086000208880082082
:1012400088710020704700000020704700000000F7
:10125000B0B542F6446442F23C11C2F20004C2F25C
:10126000004100222046002507F0BEFF42F2406107
:101270002046C2F2000107F0A7FF40F26800C2F268
:1012800000408560C5600560456045610561204698
:1012900007F076FF0020B0BD70B50B68864603B33B
:1012A00040F2680443F2901C0020C2F20044C2F2F3
:1012B000004C05E02269013222610130984210D2CF
:1012C0001EF80020A5680135E6686FF31F35B542AA
:1012D000F0D0A3680CF80320A5600B680130984299
:1012E000EED342F644647146C2F20004204607F091
:1012F0006BFF204607F044FF002070BD0000000097
:1013000070B540F26806C2F20046706938B1706884
:10131000716908446FF31F3070600020706142F6FD
:101320004460C2F20000D0F8BC0208B1716909B192
:10133000002070BDD0F814020028F9D1306871681F
:10134000441A38BF04F58054002CF1D0306871681D
:10135000884201D9306801E04FF48050716842F64C
:101360004465401A44F29011A042C2F2004138BFD5
:1013700004467068C2F20005B4F5007F014428BF3E
:101380004FF400742846224607F02EFF284607F047
:10139000B3FF002808BF7461002070BD000000008A
:1013A0004FF47A700AF0C0F905F0CAFA40F600006E
:1013B0004FF46041C5F60200012201F059FC00F033
:1013C00093F800F0CDF805F003FBFFF74DFD45F273
:1013D000941842F63C16C2F2004840F2A417C2F23A
:1013E00000469FED278A9FED279AC2F20007A8F1D9
:1013F000010934E0FFF7F4FD96ED0E0A96ED0F1AA1
:1014000020EE080A96ED102A22EE082A96ED123AEE
:1014100021EE081A96ED144A80EE090A012087EDA4
:10142000000A82EE090A23EE082A96ED133A81EEAD
:10143000091A87ED020A23EE083A87ED011A24EE15
:10144000081A82EE090A87ED030A83EE090A87ED7E
:10145000040A81EE090A87ED050A0AF065F94FF4DE
:1014600096714046FFF784FD0028C3D005464C46E0
:1014700014F8010F05F0F0FC013DF9D1BAE700BF07
:1014800000003443DA0F49407047000000000000BC
:10149000B0B5044601F0F4FB054600BF01F0F0FBD7
:1014A000401BA042FAD3B0BDEFF3108072B600BF6C
:1014B000FEE700000000000044F60400C5F602004C
:1014C000816841F0020181600168890409D40168E2
:1014D00089045CBF01685FEA814102D40168890424
:1014E000F2D570470000000080B588B00020009061
:1014F00002210590CDE9031042F69810CDE90111C3
:10150000C2F20040694600F0BBFC08B1FFF7CCFF17
:1015100042F69810C2F2004001F092FA08B1FFF7CB
:10152000C3FF42F698101021C2F20040002200F0E2
:101530005BFC08B1FFF7B8FF08B080BD00000000F9
:1015400042F69810C2F2004000F0E2BD0000000038
:1015500042F69810C2F2004000F0DABD0000000030
:1015600080B588B000200090CDE9040042F6382014
:10157000032101910221CDE90211C2F20040694626
:1015800000F07EFC08B1FFF78FFF42F63820C2F270
:10159000004001F055FA08B1FFF786FF42F6382007
:1015A0001021C2F20040002200F01EFC08B1FFF73B
:1015B0007BFF08B080BD000042F63820C2F2004038
:1015C00000F0A6BD0000000042F63820C2F2004044
:1015D00000F09EBD000000002DE9F041044601F03E
:1015E0004FFB1CB3054694F83500022822D140F287
:1015F0000F462768C4F2020640F26F48B7426FF008
:101600000E00C4F202081DDC6F21C4F202018F42F9
:101610002ADC3F21C4F202018F4241DC1021C4F2D6
:1016200002018F4263D028215CE000BF0120BDE8A9
:10163000F08100BF802060650120002184F8341013
:10164000BDE8F08147451BDC40F23F41C4F2020196
:101650008F422DDC40F21041C4F202018F4246D08D
:1016600040F228413EE000BF9F21C4F202018F42B8
:1016700028DC7021C4F202018F4238D0882131E089
:1016800040F29F41C4F202018F4223DC40F27041DC
:10169000C4F202018F422AD040F2884122E000BF0A
:1016A0004021C4F202018F4221D058211AE000BF2C
:1016B00040F24041C4F202018F4218D040F258413A
:1016C00010E000BFA021C4F202018F420FD0B82168
:1016D00008E000BF40F2B841C4F202018F4206D0D8
:1016E00040F2A041C4F202018F42394607D1394687
:1016F000386820F01E0041F8140B6FF080000A6873
:10170000474500EA020008601ADC9F20C4F202008C
:10171000874233DC5720C4F2020087425ADC102093
:10172000C4F20200874200F097802820C4F2020031
:10173000874200F091804020C4F202008AE000BF9E
:1017400045F22F40C5F6020087422DDC40F2B7403B
:10175000C4F2020087424BDC40F27040C4F2020047
:10176000874279D040F28840C4F20200874273D0A9
:1017700040F2A040C4F202006CE000BF40F22740FB
:10178000C4F20200874243DCA020C4F20200874278
:1017900062D0B820C4F2020087425DD040F210400F
:1017A000C4F2020056E000BF45F26B40C5F60200ED
:1017B00087423FDC45F23040C5F6020087424BD0FD
:1017C00045F24440C5F60200874245D045F25840F4
:1017D0003EE000BF5820C4F2020087423CD0702097
:1017E000C4F20200874237D08820C4F2020031E000
:1017F00040F2B840C4F2020087422DD045F20840C2
:10180000C5F60200874227D045F21C4020E000BF09
:1018100040F22840C4F2020087421DD040F240400E
:10182000C4F20200874217D040F25840C4F20200CE
:1018300010E000BF45F26C40C5F6020087420BD0B5
:1018400045F29440C5F60200874205D045F280403B
:10185000C5F60200874204D1206E016821F4807130
:101860000160386820F00100386000BF3868C007A8
:1018700010D001F005FA401B0628F7D32020606540
:10188000032084F835000120002184F83410BDE8DD
:10189000F08100BF2068B04210DC6F21C4F2020169
:1018A00088421DDC3F21C4F20201884234DC102151
:1018B000C4F20201884255D028214FE040451BDC8C
:1018C00040F23F41C4F2020188422DDC40F2104157
:1018D000C4F20201884245D040F228413EE000BFF8
:1018E0009F21C4F20201884228DC7021C4F2020167
:1018F000884237D0882131E040F29F41C4F2020192
:10190000884223DC40F27041C4F20201884229D0AF
:1019100040F2884122E000BF4021C4F20201884227
:1019200020D058211AE000BF40F24041C4F2020129
:10193000884217D040F2584110E000BFA021C4F205
:10194000020188420ED0B82108E000BF40F2B84141
:10195000C4F20201884205D040F2A041C4F2020163
:1019600088425BD1D4E9161202F01F023F2303FA2A
:1019700002F28A6040455BDC9F21C4F2020188428A
:1019800014DC5721C4F20201884227DC1021C4F282
:101990000201884200F0A2802821C4F2020188429C
:1019A00000F09C804021C4F2020195E040F2274102
:1019B000C4F2020188421FDCA021C4F20201884265
:1019C00000F08C80B821C4F20201884200F08680C9
:1019D00040F21041C4F202017EE000BF5821C4F27F
:1019E000020188427AD07021C4F20201884275D087
:1019F0008821C4F202016FE040F22841C4F20201E2
:101A000088426BD040F24041C4F20201884265D066
:101A100040F25841C4F202015EE000BFD4E9161260
:101A200002F01F02012303FA02F24A604045A3DDDF
:101A300045F22F41C5F60201884217DC40F2B7415A
:101A4000C4F20201884227DC40F27041C4F2020174
:101A5000884243D040F28841C4F2020188423DD01E
:101A600040F2A041C4F2020136E000BF45F26B41F2
:101A7000C5F6020188421FDC45F23041C5F602017D
:101A800088422BD045F24441C5F60201884225D058
:101A900045F258411EE000BF40F2B841C4F20201D5
:101AA00088421BD045F20841C5F60201884215D094
:101AB00045F21C410EE000BF45F26C41C5F6020143
:101AC00088420BD045F29441C5F60201884205D008
:101AD00045F28041C5F6020188420BD1616EA26ECB
:101AE000E06E4A6030B1016821F480710160D4E990
:101AF0001C014160012084F835000020002184F899
:101B00003410BDE8F0810000F0B190F835100229E2
:101B100018D180B540F20F420168C4F2020291422E
:101B200014DC6F23C4F20203994225DC3F23C4F284
:101B3000020399423CDC1023C4F2020399425DD0B7
:101B4000282357E0802141650120704740F26F4310
:101B5000C4F2020399421BDC40F23F43C4F2020389
:101B600099422DDC40F21043C4F20203994245D061
:101B700040F228433EE000BF9F23C4F20203994293
:101B800028DC7023C4F20203994237D0882331E065
:101B900040F29F43C4F20203994223DC40F27043B7
:101BA000C4F20203994229D040F2884322E000BFE8
:101BB0004023C4F20203994220D058231AE000BF08
:101BC00040F24043C4F20203994217D040F2584316
:101BD00010E000BFA023C4F2020399420ED0B82344
:101BE00008E000BF40F2B843C4F20203994205D0B6
:101BF00040F2A043C4F20203994277D191424FF0E0
:101C0000040280F8352011DC6F20C4F2020081420A
:101C100022DC3F20C4F20200814239DC1020C4F2F1
:101C20000200814259D0282054E000BF40F26F40AA
:101C3000C4F2020081421BDC40F23F40C4F20200C9
:101C400081422DDC40F21040C4F20200814244D0B7
:101C500040F228403EE000BF9F20C4F202008142D3
:101C600028DC7020C4F20200814236D0882031E0A6
:101C700040F29F40C4F20200814223DC40F27040F7
:101C8000C4F20200814228D040F2884022E000BF26
:101C90004020C4F2020081421FD058201AE000BF49
:101CA00040F24040C4F20200814216D040F2584057
:101CB00010E000BFA020C4F2020081420DD0B82085
:101CC00008E000BF40F2B840C4F20200814204D0F4
:101CD00040F2A040C4F202008142086820F00100F6
:101CE00008600021BDE88040084670470A6822F07D
:101CF0000E020A6045F25742C5F6020291420A6896
:101D000022F001020A600FDC45F22F42C5F6020202
:101D1000914219DC45F20842C5F60202914229D0EF
:101D200045F21C4222E000BF45F27F42C5F60202A6
:101D3000914213DC45F25842C5F60202914219D095
:101D400045F26C4212E000BF45F23042C5F6020295
:101D500091420FD045F2444208E000BF45F2944260
:101D6000C5F60202914205D045F28042C5F6020254
:101D700091421AD1D0E9181CD0E916E30A6822F47E
:101D800080720A6003F01F01012202FA01F1CEF80D
:101D90000410816ECCF80410C16E31B10A6822F4CF
:101DA00080720A60D0E91C124A60012180F8351067
:101DB000026D0021002A80F8341093D0904790E7FC
:101DC000B0B5044600F05CFF40F200010546C2F2E7
:101DD0000001621C097818BF0C4400BF00F050FFDE
:101DE000401BA042FAD3B0BD90F89830013B012BC4
:101DF0000ED80068836D0B4212D0836D0B408B426E
:101E000016D1C36D43F00203C3658B0514D418E0EB
:101E100000F19C01012002220B681A430A607047FE
:101E2000C36D43F00103C3658B0505D409E000BF12
:101E30000323C3658B0504D5D0F8E0301343C0F805
:101E4000E0304B0504D5D0F8E4301A43C0F8E42064
:101E50004FF6FF72436DC3F6CF720A401A434265D4
:101E60008A0F4AF614010020C4F200010B681A43DD
:101E70000A6070470000000070470000000000008A
:101E800090F89820013A012A0CD880B50A68002AF7
:101E9000CA680FD00B69072A43EA427E18D18B69C2
:101EA0001BE000BFD0F89C1041F00201C0F89C106C
:101EB00001207047072A19D10A69D1E906C3120423
:101EC00042EA032242EA0C0242F0605218E000BFEC
:101ED000D1F808C04B6943EA8C73006F496800EB86
:101EE000C10240F831E05360002080BD8B68D1E929
:101EF00004CE9B0743EAC26242EA0C4242EA0E0267
:101F00004968C06E40F82120002080BD000000001C
:101F10007047000000000000704700000000000053
:101F20002DE9F04390F89870022F11D1402919D172
:101F30000668D6F8A07017F4FE0F2FD0D6F8A4705C
:101F40007F0635D0D6F8A470FF013BD400273CE0D3
:101F5000D0F89C1041F00801C0F89C100120BDE8A9
:101F6000F08300BF41290FD10668D6F8B07017F48E
:101F7000FE0F13D0D6F8B4707F0619D0D6F8B4701F
:101F8000FF012BD400272CE0076D8F4206D900F10A
:101F90007C04456D4FF0000C0E462BE0D0F89C10F1
:101FA00041F02001C0F89C100120BDE8F08300BF83
:101FB000D0F89C1041F48071C0F89C100120BDE85D
:101FC000F08300BFD6F8A070FF0FD6F8A46000F130
:101FD0007404C6F30526F519466C0AE0D6F8B0700D
:101FE000FF0FD6F8B46000F17804C6F30526F519A2
:101FF000C66CAC467543246804EB850E54F8257016
:1020000017F08047576054F8257027F0604608BFE6
:10201000C7F38A46166054F8257007F0005797609A
:1020200054F8254004F000441461BEF80440D46123
:10203000BEF8064014F00F04D460DEF8044004F447
:1020400080145461DEF8044004F4001494619EF896
:10205000074004F07F041462DEF804404FEAD474B1
:10206000546228D04CF6C0580024C0F600080EEB8D
:102070000406651C377A1F55D76818F80770BD42EB
:1020800019D21F19757A7D70D56818F80590A51CAE
:102090004D453FBFB57ABD70D56818F805903CBF77
:1020A000E51C4D4507D2F57A0434FD70D56818F863
:1020B0000550AC42DBD3402906D10068C0F8A8C067
:1020C0000020BDE8F08300BF412905D10068C0F8B9
:1020D000B8C00020BDE8F0831F2909D8006801229C
:1020E00002FA01F1C0F898100020BDE8F08300BFAB
:1020F000006801F01F01012202FA01F1C0F89C10F2
:102100000020BDE8F08300007047000000000000E0
:102110002DE9F04F89B004464AF61000C4F20000E1
:1021200001684AF61400C4F200000268206802EA5E
:102130000108056DD0F85490036D0893436D079323
:10214000036D0293436D0193076D436D0593036D1A
:102150000493436D0393D0F854A0D0F850B05FEAD5
:10216000CA5306970FD51BF480710CD04FF48071C1
:1021700001654AF610010020C4F200010860204603
:10218000FFF7C2FF20685FEA4A5105EA09064FEAF5
:10219000887717D54AF610091BF48061C4F200094C
:1021A00014D0D0F8DC10D0F8E42011404FF4806255
:1021B00002650020C9F80000204600F075FC206888
:1021C00004E000BF4AF61009C4F20009DDE9072166
:1021D00001EA020506F4704657B10021016508F0D6
:1021E0000300C9F8000020463946FFF745FE206885
:1021F000DDE90121DDF80C8001EA020705F00F0599
:1022000046B106650020C9F800002046314600F0BE
:1022100053FC206807F0F00645B105650020C9F8B9
:1022200000002046294600F0B3FB2068DDE9045792
:1022300046B106650020C9F800002046314600F08E
:10224000ABFB2068069E5FEA0A510CD51BF40061C7
:1022500009D04FF4006101650020C9F80000204654
:1022600000F02EFC20685FEA8A5111D51BF4007142
:102270000ED0D0F8D810D0F8E02011404FF4007202
:1022800002650020C9F80000204600F011FC20681B
:102290005FEA0A310CD51BF4002109D04FF400216C
:1022A00001650020C9F80000204600F06DFB2068A1
:1022B0005FEACA310CD51BF4803109D04FF480316C
:1022C00001650020C9F80000204600F0E9FB206805
:1022D0005FEA4A3105EA08050CD51BF4802109D0D4
:1022E0004FF4802101650020C9F80000204600F06D
:1022F000D3FB20685FEA8A3106EA070205F06071C5
:102300000ED51BF400330BD04FF4003303650023CC
:10231000C9F80030D4F89C3043F08003C4F89C30F6
:1023200002F0715539B101650020C9F8000020465E
:10233000FFF7F2FD206845B105650021C9F80010DE
:10234000D4F89C102943C4F89C10A9F50161884277
:102350000AD0D4F89C00002868D0204609B0BDE817
:10236000F04FFFF7D5BD00BF606881688907F0D0E6
:10237000016A426A036A476A114003EA070202F0EF
:102380003005D0F82080D0F82490D0F820B0D0F8D4
:1023900024A0026A089211F00F01426A0792466A6D
:1023A000026A069203D00162204600F069FB08EA47
:1023B00009072DB1606829460562204600F068FBD8
:1023C00070060BEA0A0607F4C0750ED5069810F0E1
:1023D00040000AD060684023C16BC26B090C02F058
:1023E0003F020362204600F04FFBDDE9071000EAE0
:1023F000010706F4FC462DB16068294605622046B7
:1024000000F03AFB07F4F02036B161680E62D4F8B0
:102410009C103143C4F89C1000289AD0616808626F
:10242000D4F89C100843C4F89C0092E709B0BDE8BA
:10243000F08F000000000000F0B12DE9F04F83B0F4
:102440004AF200080446C4F200080068404533D050
:1024500094F89810B9B3816921F01001816100F0FE
:102460000FFC054620688169090707D500F008FCC4
:10247000401B0B28F6D312E001207047816941F020
:102480000101816100F0FCFB054600BF2068816905
:10249000C90721D100F0F4FB401B0B28F6D3012023
:1024A000D4F89C100843C4F89C00032084F89800DA
:1024B000012003B0BDE8F08F08F58071616094F8E9
:1024C00098100029C7D1002084F89900204600F018
:1024D000B3F92068BFE700BF816941F00201816163
:1024E000217C826922F04002012918BF40328261BA
:1024F000617C826922F48042012908BF02F5804292
:102500008261A17C826922F48052012918BF02F500
:1025100080528261816921F44073D4E902120B4335
:102520008361836923F0A4038361036923F01003AB
:1025300003619AB1012A0DD0022A09D08369032AC6
:1025400043F080038361036943F01002026105D107
:10255000202200E0042283691A438261D4E90572D3
:10256000E369561E6FF0FF02256A02EB0323B1F503
:10257000407F43EA4663A5F1010646EA030640F2BE
:102580000003CFF6FF7303EB074746EA0701C1617B
:1025900010D1D4E90B65D4E90917013F02EB0622FB
:1025A0006FF00F063A4306EB05173A4303EB014180
:1025B0001143C160236E2BB1616ED0F8C02011436E
:1025C000C0F8C010E16DCDE90113D9424CF640517D
:1025D000C0F6000109D0D0F8C820A36E22F007028F
:1025E00051F823301A43C0F8C820D4F840A0BAF1FB
:1025F000000F09D0D0F8BC20636C22F0070251F81C
:1026000023301A43C0F8BC20D4F848C0BCF1000FF6
:102610000AD0D0F8BC20E36C22F0700251F82330CD
:1026200042EA0312C0F8BC20D4F850B0BBF1000F4E
:102630000AD0D0F8BC20636D22F4E06251F8231078
:1026400042EA0121C0F8BC10404504D161688A68A3
:1026500022F003028A600021C4F89410C4F89C1090
:10266000012184F8981004F13409D0F884104FF651
:10267000FC729143656C99E80C02009541EA820175
:10268000C0F88410D0F8841021F47F0141EA03419E
:10269000C0F884109918D0F888306FF38F0343EA9C
:1026A0008103C0F88830D0F8883023F4FE0343EA71
:1026B0000943C0F8883001EB4903D0F8A0606FF3FC
:1026C0008F0646EA8306C0F8A060D0F8A06026F422
:1026D000FE0646EA0A46C0F8A06005FB0A36D0F8B6
:1026E000B0306FF38F0343EA8603C0F8B030D0F800
:1026F000B03023F4FE0343EA0C43C0F8B030E36C7F
:10270000D0F8AC506FF38F0503FB0C6645EA8605E5
:10271000C0F8AC50D4F8548008FB0B65D0F8F060DA
:102720006FF38F0646EA8506C0F8F060D0F8F0E057
:10273000A66D2EF47C1747EA0647C0F8F070F70044
:1027400007EB8507D0F8C0506FF38F052F43C0F813
:10275000C070D0F8C070009D27F47C1705FB0AF507
:10276000DDF804A003FB0C5347EA0A47C0F8C07029
:102770004AF20007D0F8C0E0C4F20007DDF808C054
:1027800007F5406707EB820207EB81012EF07C57CB
:1027900047EA0C67C0F8C07001EBC90008FB0B37B3
:1027A0002167A16E00EB8505606700EB8303E2669D
:1027B000C4E91E530AFB01F300EB87000CFB01F197
:1027C000C4F8800000EBC600C4F8840000EB83006E
:1027D000C4F8880000EB81004DF2FC31C4F2000126
:1027E000C4F89000884201D9202059E682421FD2C5
:1027F0001146002041F8040BD4F890309942BFF400
:1028000058AE506002F10801D4F8903099423FBFB1
:10281000906002F10C01D4F890309942BFF449AEB7
:10282000D0601032D4F890108A42E1D341E600BF64
:10283000002003B0BDE8F08FB0B5B6B0044602A8E2
:10284000B8210025CDE93455CDE932553195FDF754
:1028500084FE4DF200412068C4F2000188423DD060
:102860004AF20041C4F20001884240F08980002011
:1028700003904FF4004002904FF080501D9002A84A
:1028800001F08AFD08B1FEF70FFE40F2E40144F2C8
:10289000E040C2F20041C5F602000A68002A02F1D7
:1028A00001020A6008D1C16841F48071C160C16849
:1028B00001F48071019101990168162441F002012F
:1028C00001600068142500F002000190019840F2B8
:1028D000004009216022C5F6020037E04FF40040B5
:1028E00002904FF080501D9002A8039501F054FD16
:1028F00008B1FEF7D9FD40F2E40144F2E040C2F233
:102900000041C5F602000A68002A02F101020A60CD
:1029100008D1C16841F48071C160C16801F480715F
:10292000019101990168A02441F00801016000684B
:102930009F2500F00800019040F200400199C5F683
:102940000200052100F500604FF44052359131A995
:102950003192022232920022CDE9332200F0B4F803
:1029600005210022284600F0A7FA284600F090FA38
:1029700005210022204600F09FFA204600F088FA48
:1029800036B0B0BD0000000070470000000000003D
:10299000704700000000000080B58CB042F698122D
:1029A00001F01001C2F20042904217D1B1B142F6DB
:1029B000981002AAC2F200406B464121FFF7B0FA1C
:1029C000B0BB0298A0F20121062931D8013842F6A5
:1029D0002431C0B2C2F200411CE000BF42F63822EE
:1029E000C2F20042904223D111B342F6382002AA2B
:1029F000C2F200406B464121FFF792FAC0B902983B
:102A0000A0F20121062913D8013843F29861C0B21F
:102A1000C2F20001C0EBC00001EB8000816901310E
:102A200081613229694605D808F04EFE0CB080BDA0
:102A30000CB080BD08F01CFE0CB080BD0000000092
:102A400090F8981001290DD1022180F898100168A2
:102A50008A6922F001028A610021C0F89C100846B0
:102A6000704700BFD0F89C1041F00401C0F89C10E2
:102A700001207047000000007047000000000000C7
:102A800070470000000000007047000000000000D8
:102A900070470000000000007047000000000000C8
:102AA00070470000000000007047000000000000B8
:102AB00070470000000000007047000000000000A8
:102AC00070470000000000002DE9F04F82B00D6853
:102AD000002D00F0C78000F1264242F2004402F1CE
:102AE000FF728305C5F602040A27A04243EA922238
:102AF00008BF0927082A40F2040C38BF1746C5F65C
:102B0000000C4FF0000E0097002700260AE000BFDF
:102B100001360D6835FA06F207F102070EF1040ED0
:102B200000F0A080012202FA06FB15EA0B08EFD0A4
:102B3000D1F804A003220AF0030502FA07F36C1E81
:102B40006FEA0309012C0FD88368CC6803EA0903F4
:102B5000BC4023438360CAF30014436823EA0B0399
:102B6000B4402343436003E0032D01D1032520E05B
:102B7000C3688C6803EA0903BC40022D43EA0403DE
:102B8000C36016D16FF003020EF01C0502EA560373
:102B90000F22034402FA05FBD3F820A00C692AEAAD
:102BA0000B0AAC4044EA0A041C62D1F804A00AF003
:102BB0000305036805FA07F403EA09031AF4403F22
:102BC00043EA04030360A3D044F2F44240F2084A0B
:102BD000C5F60202C5F6000A136843F0020313604B
:102BE00013680F2203F00203019326F00303019CF4
:102BF0000EF00C0453F80A9002FA04F5009A29EA40
:102C0000050502FA04F44FF0B0492C4343F80A409A
:102C1000D9F800304C6843EA0805E20258BF23EABD
:102C20000805C9F80050A502DCF8002042EA0803B4
:102C300058BF22EA0803A503CCF80030DCF8802056
:102C400042EA080358BF22EA0803E403CCF88030C4
:102C5000DCF87C2042EA080358BF22EA0803CCF8DB
:102C60007C3055E702B0BDE8F08F000000000000A6
:102C7000002A08BF090481617047000000000000BD
:102C800045F2C020C2F2004000687047000000001A
:102C900040F2000045F2C021C2F20000C2F2004141
:102CA00000780A68104408607047000000000000C7
:102CB00080B5032000F030F902F0AAFA44F218417E
:102CC0004CF69853C5F60201C0F600030A68C2F339
:102CD00003229A5C096801F00F0102F01F02595C9F
:102CE000D04040F20402C2F2004201F01F0120FA7B
:102CF00001F1116040F20001C2F2004108600F20B2
:102D000000F00AF800281CBF012080BD00F0A8F8E0
:102D1000002080BD000000000F2845D8B0B58AB063
:102D200004461C2000222146002500F0C5F81C2086
:102D300000F0AEF840F20400C2F20000046044F279
:102D4000E840C5F60200016841F001010160006839
:102D500001A900F001000290029802A802F0A4F973
:102D6000079C002C18BF012402F0F2F94DF6836194
:102D7000A040C4F21B314FF0FF32A0FB010142F62C
:102D8000D820C2F200404FF08043036002EB914133
:102D9000C0E9011540F2E731C0E9031502F068FD12
:102DA00020B101200AB0B0BD0120704742F6D82002
:102DB000C2F2004002F090FD0AB0B0BD0000000079
:102DC00010B54EF6A05E4178CEF2000E90F800C02D
:102DD0004EF8081CDEF8001021F00101CEF80010BA
:102DE00041684EF8041C017BC37A827A447B1B063F
:102DF00043EA0171837B41EAC241C27B41EA8441DB
:102E0000447A41EA4341007A41EA024141EA04211D
:102E100041EA400040EA0C00CEF8000010BD00007E
:102E20004EF62450CEF20000BFF35F8F016821F40C
:102E30008031016000210167704700000000000040
:102E40004EF6245140F00100CEF2000108670868F8
:102E500040F480300860BFF34F8FBFF36F8F70472F
:102E600081B044F2F4400022C5F60200016841F04E
:102E70000201016000680F2100F0020000906FF075
:102E80000100009B01B000F017B800000000000036
:102E9000002848BF704700F01F01012202FA01F12B
:102EA0004EF20012C0F34A10CEF2000242F8201097
:102EB000704700000000000070B54EF60C5C4FF04B
:102EC000FF36CEF2000C00F1604505F56445DCF8F4
:102ED0000030C3F3022E8EF00703042B28BF042317
:102EE000BEF1030406FA03F321EA030100F00F0325
:102EF00038BF0024043B0028634406FA04F048BFAE
:102F000003F10C05A14022EA0000084300012870EB
:102F100070BD0000000000004EF60C514FF6FF039C
:102F2000CEF200010A681A4060F30A2242F0806083
:102F300040F0FD700860704701680122C0F8D82495
:102F4000002280F8CC24886940F000608861486DD8
:102F500040F08052002042F003024A6570470000B2
:102F600070470000000000000268002051627047B6
:102F70002DE9F043D0F80080D8F8243081B1D8F89A
:102F80002870B1F1010E03EB174355D05FFA8EF1B3
:102F90000EF0030C04290BD2002700212DE000BF06
:102FA000002043EA0241C8F82810BDE8F08300BFC2
:102FB0000EF0FC0908F1F405002108F5827600BF47
:102FC00055F8107F41F00100C0B241F00304E4B2B3
:102FD00003EB174341F0020756F82000FFB204311B
:102FE00003EB104056F8273056F82440CFB200EBE0
:102FF00013404F4500EB1443E2D1BCF1000F1BD04E
:1030000008EB8700BCF1010FD0F8040103EB10437B
:1030100012D0481CBCF1020FC0B208EB8000D0F8FF
:10302000040103EB104307D0881CC0B208EB8000FA
:10303000D0F8040103EB104308EB8E0043EA024191
:10304000C0F804110020BDE8F0830000000000007B
:10305000D0F8E00406F098BC01EBC10200EB82025C
:10306000D0F8E004126A06F0F3BB00000000000094
:1030700001EBC10200EB8202D0F8E004D2F860223A
:1030800006F046BC00000000D0F8E00406F080BC6A
:1030900010B54AB2044601F00F00B2F1FF3F00EB59
:1030A000C00104EB81020BDD02F51571002382F8EB
:1030B000553294F894240870012A0AD1022010BDD8
:1030C00002F114010123537594F894240870012A25
:1030D000F4D0012084F89404206807F059FA002005
:1030E00084F8940410BD0000B0B50279044601F0E4
:1030F0000F00904202D90120B0BD00BF49B2B1F12A
:10310000FF3F09DD00EBC001002304EB810202F563
:10311000157182F8553207E000EBC001012304EB82
:10312000810202F11401537594F8942400258D70E6
:10313000012A087002D10220B0BD00BF012084F82E
:103140009404206807F010FD284684F89454B0BD1C
:1031500001F00F0101EBC10100EB8100D0F8680222
:10316000704700000000000070B54CB2064601F048
:103170000F00B4F1FF3F00EBC00107DD06EB810457
:10318000002504F5157184F8555206E006EB810C14
:1031900001240CF114018CF815404D7808706FF380
:1031A000DF228A60002D0B7118BF4883022B01D1EA
:1031B0000020487196F89404012801D1022070BDC6
:1031C000012086F89404306807F072F8002086F831
:1031D000940470BD0000000080B501F00F0E0EEBEE
:1031E000CE0100EB810C0021CCE998238379CCF847
:1031F00068128CF855120CF51571012B8CF854E2FD
:1032000008BFCCF8702200681A4607F0F9FC0020CD
:1032100080BD000000000000B0B50446007901F058
:103220000F05854202D90120B0BD00BF48B2B0F100
:10323000FF3F09DD01EBC100002204EB800000F537
:10324000157180F8552207E005EBC500012204EB5B
:10325000800000F11401427594F8942401208870D4
:10326000012A0D7002D10220B0BD00BF84F8940481
:10327000206807F0A5FC1DB1002084F89404B0BDBF
:10328000A179206804F29C4207F03EFC002084F8FB
:103290009404B0BD0000000010B501F00F0C012433
:1032A0000CEBCC0100EB810E714601F814CF4FF00E
:1032B000000CC1F814C090F806C04C70CA60BCF194
:1032C000010F0B6108BFCEF830200068624607F09E
:1032D00097FC002010BD00002DE9F04F89B0056873
:1032E0008246284607F0A4FE10B109B0BDE8F08F71
:1032F000DAF8000007F0CCFE0028F6D0D5F8080870
:10330000C0F30D20CAF8D404DAF8000007F0C0FEBC
:103310008007DAF8000003D5416901F0020141613C
:1033200005F50061049107F0B3FEC006DAF800006D
:1033300007953BD5816921F0100181612C6A04F069
:103340000F05C4F34340062818D0022827D147F6BA
:10335000F07014EA000622D005EBC50034090AEB30
:10336000800707982246D7F8601207F095FED7F835
:10337000600200EB1610C7F8600207E00AF29C41F9
:103380000822079807F088FEC4F30A1405EBC5006D
:103390000AEB8000D0F868122144C0F86812DAF80D
:1033A0000000816941F010018161079D07F070FE06
:1033B000000340F10181DAF8000007F045FE002823
:1033C00000F0FA8006460AF51D784FF430644FF09D
:1033D000000B0AF29C40089009E000BF0BF1010BC2
:1033E000760804F1200408F1240800F0E580F007D5
:1033F000F4D05FFA8BF9DAF80000494607F040FE96
:103400000746C00771D0281901218160DAF8000051
:1034100004EB000C036CDCF808209AF80650012D30
:1034200028D115073AD4950658D412F0280F079DD5
:103430005BD143F20B01C4F654718B4202D312F4F8
:10344000004235D1D8F80020DCF810106FF3DF41CE
:10345000BBF1000FA2EB010148F80C1C19D1DAF8FE
:103460006422002A00F0A280DAF860020844CAF858
:1034700060020EE043F20B05C4F65475FF35AB4213
:103480001CD110042CD49006079D02D52020CCF826
:10349000080050464946FFF7EBFD26E043F20B00DB
:1034A000079DC4F6547083421FD312F400401CD011
:1034B0004FF40040CCF8080017E000BFBBF1000F4C
:1034C00006D1DAF8641219B90021089A07F01CFB3A
:1034D00050464946FFF7CCFD06E000BF202001E042
:1034E0004FF40040CCF80800079D38072CD5281968
:1034F0000821816043F20B01DAF80000C4F6547130
:10350000056C20448D4281680AD311F4004107D034
:103510004FF400418160504600F082FD079D09E0B4
:10352000504600F07DFD43F20B00C4F65470854216
:10353000079D09D39AF80600012805D1DAF80000A2
:103540000121089A07F0E0FAF80607D4B8070AD470
:10355000B80620D4B8047FF541AF22E02819102125
:103560008160B807F4D56869000604D504994868F5
:1035700040F48060486018F81D0C012806D1002036
:1035800008F81D0C5046494600F086FB2819022118
:103590008160B806DED5281920218160B8047FF546
:1035A0001DAF28194FF40051816017E70121089AD7
:1035B00007F0AAFA6DE700BFDAF8000007F068FD2F
:1035C0004003DDF810B040F1E180DAF8000007F0C8
:1035D00033FD002800F0DA800646079800F51067F2
:1035E00000250AF29C400290CDF814A0039704E055
:1035F000760805F1010500F0C980F007F8D0E9B2BE
:10360000DAF80000089107F027FD0446C0070BD147
:10361000200733D4E00637D460063BD4A0073FD45C
:103620002006E5D555E000BF05F00F00012307EBAC
:103630004512DBF8341003FA00F021EA0000CBF861
:10364000340093609AF80600012811D105EBC500FB
:103650000AEB8000D0E907121144016245B9DAF89B
:10366000240028B9DAF800000121029A07F04CFA88
:1036700050460899FFF7F0FC2007CBD507EB451023
:1036800008218160E006C7D507EB45101021816055
:103690006006C3D507EB451040218160A007BFD568
:1036A0000798294607F054FC05EBC5000AEB80009B
:1036B00010F8171F012905D1002101705046089903
:1036C00000F0E6FA07EB45100221816020067FF545
:1036D0008FAF05EBC5000AEB8002914659F8241F15
:1036E000C84658F8040F8142FFF482AF9346DAF8D7
:1036F00000400B1A5BF81C7FBB4238BF1F4604EB2F
:103700004513069407F1030CD3F81879BFB2B7EB51
:103710009C0F29D303F5106A02F12007D9F8001095
:1037200081421FD9081A0599DBF80040A0428A7926
:1037300038BF044639680092A3B20698089A07F089
:1037400057FF3868E11C20443860D8F80000204456
:10375000C8F80000DAF8182092B2B2EB910FDDD26F
:10376000D9F80010DDF814A0DDE9037B81423FF6B3
:103770003FAF069A05F00F00012101FA00F0D2F8E0
:10378000341821EA0000C2F8340831E7DAF8000002
:1037900007F07EFC00281BD4DAF8000007F078FC64
:1037A000000534D4DAF8000007F072FC00013FD4C1
:1037B000DAF8000007F06CFCC0044BD4DAF8000023
:1037C00007F066FC8004DAF8000000F15C8175E126
:1037D000DBF8040020F00100CBF804009AF8CC04D8
:1037E000012807D100208AF8CC0400215046FFF7B9
:1037F000B7FB02E0504600F0F7FBDAF80000416941
:1038000001F00041416107F043FC0005CAD5DBF837
:103810000800C00702D0504600F02AFCDAF8000089
:10382000416901F40061416107F032FC0001BFD53C
:10383000DAF80000416901F0006141619AF8CC14A6
:1038400001B3504600F014FCDAF8000007F020FC49
:10385000C004B3D5DBF80400102120F00100CBF840
:103860000400DAF8000007F073FB9AF80400010680
:1038700000F0CF80C1B200F00300042916D200216D
:103880007CE000BF01218AF8CC14406DC0F38300B6
:10389000CAF8D0045046FFF763FBDAF8000007F0DF
:1038A000F7FBC0047FF58AAFD4E700BF6FF060027A
:1038B000002302EA41124FF67F370021079C00BF28
:1038C000E61880339A4201F10401C6F80879D6F867
:1038D000005925F40015C6F80059C6F8087BD6F83B
:1038E000005B25F40015C6F8005BD6F8005B45F0D8
:1038F0000065C6F8005BC6F82879D6F8205925F48B
:103900000015C6F82059C6F8287BD6F8205B25F4A8
:103910000015C6F8205BD6F8205B45F00065C6F8B8
:10392000205BC6F84879D6F8405925F40015C6F84A
:103930004059C6F8487BD6F8405B25F40015C6F818
:10394000405BD6F8405B45F00065C6F8405BC6F8C2
:103950006879D6F8605925F40015C6F86059C6F89C
:10396000687BD6F8605B25F40015C6F8605BD6F876
:10397000605B45F00065C6F8605BA1D1002848D0C7
:10398000079A4D0102F5106302F5306203EB411610
:103990004FF67F3702EB41140128B7605E5926F4D9
:1039A00000165E51A760565926F400165651565916
:1039B00046F0006656512CD04E1C02284FEA4614A1
:1039C00003EB461502EB4616AF601D5925F40015B2
:1039D0001D51B760175927F400171751175947F0B1
:1039E0000060105115D0881C4FF67F36470103EB5D
:1039F000401102EB40108E60D95921F40011D951C9
:103A00008660D05920F40010D051D05940F00060A9
:103A1000D051DBF81C0040F00110CBF81C009AF8E4
:103A20000F0048B1DBF8840040F00B00CBF88400B5
:103A30000BF1440009E000BFDBF8140042F22B0157
:103A40000843CBF814000BF1100001680AF29C4205
:103A500041F00B010160DBF8000020F4FE60CBF8C0
:103A600000009AF80610DAF8000007F04DF8DAF8CE
:103A70000000416901F48051416107F009FB8004B5
:103A8000DAF800001AD506F05BFCDAF8000007F05F
:103A9000BFFA8AF80700DAF8004001F031FB9AF823
:103AA00007200146204607F017FD504600F084FA33
:103AB000DAF80000416901F40051416107F0E8FAC9
:103AC000000707D4DAF8000007F0E2FA00060ED487
:103AD00036E000BF504600F08BFADAF8000041698A
:103AE00001F00801416107F0D3FA000628D50799D3
:103AF000886920F0800088619AF8040002281FD3AA
:103B0000012440F27B2503E001342435844217D29E
:103B10001AF805100129F7D104F00F00220600EB76
:103B2000C0000AEB800000F1140158BF00F51571C8
:103B3000DAF8000007F07CF99AF80400E4E700BF27
:103B4000DAF8000007F0A4FAC0024FD4DAF8000057
:103B500007F09EFA800240F17E809AF80410022954
:103B60002BD30798013900F532600AF51F72012343
:103B700004E000BF013900F120001ED0174606689E
:103B800012F8245B012DF5D1B6F1FF3FF2DCDAF833
:103B9000D45485EA1646F607ECD1079E07F8013C97
:103BA000B76947F08007B76177693F06E2D4DBF871
:103BB000040040F40070CBF80400DAF8000041691A
:103BC00001F40011416107F063FA400049D5504605
:103BD000FFF73EFADAF80000416901F080414161E7
:103BE00007F056FA400743D4FFF77FBB9AF804006A
:103BF000022825D307990AF13C0501F51264012634
:103C0000012703E001372034874219D22946226870
:103C100015F8243B012BF5D1B2F1FF3FF2DC07F0A0
:103C20000F0001F8016C00EBC0000AEB800000F10E
:103C30001401DAF8000007F0FBF89AF80400E1E755
:103C4000DAF80000416901F48011416107F020FABF
:103C500080023FF582AFDAF8000007F019FA400061
:103C6000B5D4DAF8000007F013FA40077FF53DAB52
:103C7000DAF800004468610704D55046FFF704FAFB
:103C8000DAF8000041682143416009B0BDE8F08FD7
:103C9000D0F8E00405F0E0BED0F8E00405F0F4BE92
:103CA000002800F02B81F0B581B0044690F895040F
:103CB00028B9002084F89404204600F035F9032048
:103CC00084F89504206806F017FFD4E90001267CEB
:103CD000D4E90223009606F043FB002840F0088157
:103CE0002068002107F030FA002840F0018194F8A4
:103CF00004E0BEF1000F00F0F280BEF1040F0EF000
:103D0000030C4FF0000241D30EF0FC03A4F190002D
:103D100003210125CE1E80F8A460A0F8BE608E1E8F
:103D200080F8C8604F1CA0F8E2604E1E80F8EC607E
:103D30009F42A0F8066101F1040680F8A55080F8C2
:103D4000A820C0E92B22C0F8B42080F8C95080F820
:103D5000CC20C0E93422C0F8D82080F8ED5080F89B
:103D6000F020C0E93D22C0F8FC2080F8115180F815
:103D70001011A0F82A11314680F81421C0E946221A
:103D8000C0F8202100F19000C4D1F21EBCF1000F58
:103D90002DD002EBC2000121BCF1010F04EB800326
:103DA0004FF0000059751A75DA851876C3E90700D7
:103DB00058621CD0531CBCF1020F03EBC30504EB8B
:103DC000850569752B75EB852876C5E9070068625E
:103DD0000DD0901C012200EBC00104EB81014A755B
:103DE0000875C88500200876C1E907004862BEF161
:103DF000000F74D0BEF1040F4FF0000237D30EF065
:103E0000FC000321234600BFCF1E83F854728F1E8F
:103E100083F878724F1E83F89C724F1C0D1D83F837
:103E20005522874283F85822C3E99722C3F86422B7
:103E300083F8792283F87C22C3E9A022C3F8882280
:103E400083F89D2283F8A022C3E9A922C3F8AC22FB
:103E500083F8C12283F8C012294683F8C422C3E93B
:103E6000B222C3F8D02203F19003CDD1EA1EBCF1F7
:103E7000000F34D002EBC200BCF1010F04EB800153
:103E80004FF0000081F8550281F8542281F8580261
:103E9000C1E99700C1F8640221D0511CBCF1020FA6
:103EA00001EBC10304EB830383F8550283F854123A
:103EB00083F85802C3E99700C3F864020FD0901C3E
:103EC000002200EBC00104EB810181F8552281F84A
:103ED000540281F85822C1E99722C1F86422D4E93A
:103EE0000001277CD4E90223009706F0B5FB38B126
:103EF000022084F89504012001B0F0BD0120704734
:103F000000206074012084F89504207B012802D1F0
:103F10002046FFF711F8206806F08EFB002001B064
:103F2000F0BD00000000000010B5B0B002A90446CA
:103F300001F10800B021FCF710FB00212068C4F259
:103F40000401884202D030B010BD00BF00200390B1
:103F50004FF48020029010200C904FF480700D9050
:103F600002200E900821CDE90F104FF4007012903E
:103F70004FF40010239002A800F00EFA08B1FDF7EC
:103F800093FA00F0B9F844F2D8400022C5F60200D6
:103F9000016841F0007101600068052100F00070C7
:103FA000019001984D20FEF787FF4D20FEF770FF2E
:103FB00030B010BD0000000010B50446C07928B133
:103FC000022801D0FDF770FA012100E00021D4F8A9
:103FD000E00405F0E5FDD4F8E004BDE8104005F08C
:103FE00093BD000000000000D0F8E00405F0BCBD67
:103FF000D0F8E00405F0C4BD10B5044690F8940470
:10400000012801D1022010BD012084F894046174BC
:10401000206807F04DFA002084F8940410BD0000D9
:10402000D0F8E02400F29C41104605F0D1BD00001C
:1040300010B5044690F89404012801D1022010BD67
:104040002068012184F89414C168490606D5617B73
:10405000012903D1816B41F48031816306F070FF47
:10406000206806F0D9FA002084F8940410BD0000FE
:1040700010B50446D0F8E00405F006FE2068D0F83C
:10408000001E41F00101C0F8001EE07A002808BFC0
:1040900010BD4EF61050CEF20000016841F006014E
:1040A000016010BD00000000B0B544F60C05C5F677
:1040B000020529684907296806D401F00701081A92
:1040C00018BF0120B0BD00BF21F0070108432860E0
:1040D000FEF7D6FD044600BF55F8080C800407D44F
:1040E000FEF7CEFD001BB0F57A7FF5D90120B0BDFB
:1040F0000020B0BD0000000044F60C00C5F6020030
:10410000016841F08071016070470000000000000C
:1041100080B500F0F5FF44F220414CF69852C5F608
:104120000201C0F600020968C1F30211515C01F0FE
:104130001F01C84080BD000080B544F2384EC5F66E
:10414000020E5EF8103C5EF8101C5EF80C2CC1F3F9
:10415000053CDEF80410BCF1000F15D0C908D206EA
:1041600001EAE2716FF35F3100EE101A03F0030110
:104170000229B8EE400A0DD081B95EF8381C8906D4
:1041800010D49FED361A1BE000218160C0E90011B8
:1041900080BD00BF9FED301A12E000BF9FED2D1AC9
:1041A0000EE000BF5EF8381C49F20002C0F2D032C7
:1041B000C1F3C10122FA01F101EE101AB8EE411A61
:1041C000DEF800109FED263A6FF35F2102EE101A21
:1041D000DEF80010C1F34621B8EE422A00EE032AB1
:1041E00000EE10CAB7EE003AB8EE400A81EE000ABF
:1041F00032EE031A02EE101AB8EE422A20EE010A3D
:1042000032EE031A80EE011ABCEEC11A80ED001ADC
:10421000DEF80010C1F3064101EE101AB8EE411AA3
:1042200031EE031A80EE011ABCEEC11A80ED011ABC
:10423000DEF80010C1F3066101EE101AB8EE411A63
:1042400031EE031A80EE010ABCEEC00A10EE101A1D
:10425000816080BD0024744A001BB74B0024744C5D
:10426000000000390000000080B544F2404EC5F661
:10427000020E5EF8183C5EF8181C5EF8142CC1F3B0
:10428000055CDEF80410BCF1000F15D0C908D2059A
:1042900001EAE2716FF35F3100EE101A03F00301DF
:1042A0000229B8EE400A0DD081B95EF8401C89069B
:1042B00010D49FED361A1BE000218160C0E9001187
:1042C00080BD00BF9FED301A12E000BF9FED2D1A98
:1042D0000EE000BF5EF8401C49F20002C0F2D0328E
:1042E000C1F3C10122FA01F101EE101AB8EE411A30
:1042F000DEF800109FED263A6FF35F2102EE101AF0
:10430000DEF80010C1F34621B8EE422A00EE032A7F
:1043100000EE10CAB7EE003AB8EE400A81EE000A8D
:1043200032EE031A02EE101AB8EE422A20EE010A0B
:1043300032EE031A80EE011ABCEEC11A80ED001AAB
:10434000DEF80010C1F3064101EE101AB8EE411A72
:1043500031EE031A80EE011ABCEEC11A80ED011A8B
:10436000DEF80010C1F3066101EE101AB8EE411A32
:1043700031EE031A80EE010ABCEEC00A10EE101AEC
:10438000816080BD0024744A001BB74B0024744C2C
:1043900000000039000000002DE9F0470446C07815
:1043A00044F22C480007C5F6020833D5606E4FEA88
:1043B000305103290CD8DFE801F003111D2600BF9E
:1043C000D8F8001041F40031C8F800101BE000BF1D
:1043D00001266078C0070BD020E000BF04F1080080
:1043E000022102F011FC064660B16078C00715D1C9
:1043F000354646E004F12800022102F099FC064609
:104400000028F2D1606ED8F8241021F4401108433E
:10441000C8F8240000266078C007E9D0A06D042801
:104420000ED83546DFE800F00412181E1E0000BF4B
:10443000D8F80000354640F40030C8F8000011E01C
:1044400001250127607840071FD453E004F10800DC
:10445000002102F0D9FB04E004F12800002102F061
:1044600067FC05462F461DB1607840070DD441E03A
:10447000D8F82400A16D20F0070000250843C8F8F3
:10448000240037466078400734D5D4F8A4004FEABA
:10449000705005280CD8DFE800F00311171D1D1D12
:1044A000D8F8000040F40030C8F8000012E000BF67
:1044B000012501266078000720D455E004F10800AA
:1044C000002102F0A1FB04E004F12800002102F029
:1044D0002FFC05462E461DB1607800070ED443E040
:1044E000D8F82C00D4F8A41020F46000002508436C
:1044F000C8F82C003E466078000735D5D4F8A800EF
:104500004FEA306005280DD8DFE800F00412181ECD
:104510001E1E00BFD8F8000040F40030C8F80000AC
:1045200012E000BF01250127E078800720D44EE08B
:1045300004F10800002102F067FB04E004F1280008
:10454000002102F0F5FB05462F461DB1E0788007FB
:104550000ED43CE0D8F82C00D4F8A81020F0E0608D
:1045600000250843C8F82C003746E07880072ED590
:10457000E06C4FEA301003280ED8DFE800F00903A2
:10458000130900BFD8F8000040F40030C8F800005C
:104590002E467DB912E000BF012501266078C006D5
:1045A00019D44CE004F10800022102F02DFB05466D
:1045B0002E461DB16078C0060DD440E0D8F820002A
:1045C000E16C20F0300000250843C8F820003E468A
:1045D0006078C00633D5E06D4FEA303004280DD83E
:1045E000DFE800F00412181E1E0000BFD8F800001B
:1045F00040F40030C8F8000012E000BF0125012798
:10460000607880061FD44EE004F10800002102F01B
:10461000FBFA04E004F12800002102F089FB0546C2
:104620002F461DB1607880060DD43CE0D8F82400F8
:10463000E16D20F4E04000250843C8F82400374627
:10464000607880062FD5206E4FEA3040052809D8C3
:10465000DFE800F0040E1404040400BF2E46ADB9D8
:1046600018E000BF01250126607840061FD44FE006
:1046700004F10800012102F0C7FA04E004F1280067
:10468000012102F055FB05462E461DB1607840061B
:104690000DD43DE0D8F82400216E20F4E020002560
:1046A0000843C8F824003E466078400630D5D4F868
:1046B000AC004FEA3070052808D8DFE800F0030DA1
:1046C000130303032F46ADB918E000BF01250127EE
:1046D0006078000620D442E004F10800012102F0D5
:1046E00093FA04E004F12800012102F021FB0546C1
:1046F0002F461DB1607800060ED430E0D8F82C00AB
:10470000D4F8AC1020F0E04000250843C8F82C0095
:1047100037466078000622D5E06E58B1B0F1005FF0
:104720000CD0B0F1805F2FD1D8F8000040F40030F9
:10473000C8F800002E469DB908E000BF04F108004B
:10474000012102F061FA05462E464DB9D8F8240041
:10475000E16E20F0405000250843C8F824003E4692
:10476000E078C00733D0A06C032813D8DFE800F04E
:1047700008021A08D8F8000040F40030C8F8000019
:10478000A946BDB91AE000BF01250126E078C0079F
:10479000E9D11CE001254FF00109A07840061AD5A7
:1047A0001CE000BF04F10800022102F02DFA0546CA
:1047B000A9461DB1A07840060DD50FE0D8F820001D
:1047C000A16C20F0030000250843C8F82000B14682
:1047D000A078400602D44F4618E000BFD8F8D403B2
:1047E00040F48070C8F8D403FEF74AFA064600BFCA
:1047F000D8F8D403C00507D4FEF742FA801B64281A
:10480000F6D90325032701E02F468DB12078C00794
:1048100061D0A06F4FEAF00005283BD8DFE800F038
:1048200004404604040400BF002D2E4646D149E052
:10483000D8F84410D4F8B000414011F4407F11D0B2
:10484000D8F84410D8F8442042F48032C8F8442004
:10485000D8F8442021F4407122F48032C8F8442072
:10486000C8F84410B0F5807F40F0CE82FEF708FA19
:10487000064641F2883A0325032700BFD8F84400D2
:10488000800700F1BF82FEF7FBF9801B5045F5D988
:10489000BCE700BF01250126207880071FD44CE02B
:1048A00004F10800012102F0AFF904E004F128004E
:1048B000012102F03DFA05462E461DB12078800701
:1048C0000DD43AE0D8F82800A16F20F03800002578
:1048D0000843C8F828003E46207880072DD5606F31
:1048E000052809D8DFE800F0040E1404040400BF12
:1048F0002F46ADB918E000BF0125012720784007F9
:104900001FD44DE004F10800012102F07DF904E01C
:1049100004F12800012102F00BFA05462F461DB1D3
:10492000207840070DD43BE0D8F82800616F20F0D4
:10493000070000250843C8F82800374620784007BC
:104940002ED5D4F89000052808D8DFE800F0030D34
:10495000130303032E46ADB918E000BF012501265D
:104960002078800620D451E004F10800012102F0F3
:104970004BF904E004F12800012102F0D9F90546C1
:104980002E461DB1207880060ED43FE0D8F82C00CA
:10499000D4F8901020F0070000250843C8F82C0038
:1049A0003E462078800631D5D4F88C004FEA30702E
:1049B000052809D8DFE800F0040E1404040400BF41
:1049C0002F46ADB918E000BF012501272078400629
:1049D00020D451E004F10800002102F015F904E0B0
:1049E00004F12800022102F0A3F905462F461DB16B
:1049F000207840060ED43FE0D8F82800D4F88C1078
:104A000020F0E04000250843C8F828003746207809
:104A1000400631D5D4F898004FEAB020052809D8CF
:104A2000DFE800F0040E1404040400BF2E46ADB904
:104A300018E000BF012501262078000620D454E0AC
:104A400004F10800002102F0DFF804E004F128007E
:104A5000022102F06DF905462E461DB120780006B0
:104A60000ED442E0D8F82C00D4F8981020F4E0508E
:104A700000250843C8F82C003E462078000634D5AF
:104A8000D4F89C004FEA703005280FD8DFE800F01A
:104A900004141A04040400BF2F46E5B1206801077E
:104AA00027D4C1063ED4000355D475E00125012763
:104AB00020680107F5D51CE004F10800002102F090
:104AC000A3F804E004F12800022102F031F90546C0
:104AD000002D2F46E2D1D8F82C00D4F89C1020F4F9
:104AE000604000250843C8F82C00374620680107BD
:104AF000D7D5D4F88000B0F5805F09D104F1280043
:104B0000022102F015F9002818BF0127D4F880000F
:104B1000D8F8281021F440510843C8F8280020682C
:104B2000C106C0D5D4F89400B0F5807F09D104F156
:104B30002800022102F0FCF8002818BF0127D4F851
:104B40009400D8F82C1021F440710843C8F82C00C8
:104B50002068000320D5D4F8A000B0F5003F0FD0A6
:104B6000B0F5803F06D078BB04F10800002102F0C8
:104B70004BF804E004F12800022102F0D9F80546C0
:104B80002E4655B9D8F82C00D4F8A01020F44030A7
:104B900000250843C8F82C003E46A07840072BD5D6
:104BA000D4F88400B0F5401F0BD0B0F5001F11D031
:104BB000B0F5801F2AD1D8F8000040F40030C8F8C2
:104BC00000002F46CDB90DE001250126A078400751
:104BD000E6D411E004F12800012102F0A9F805460D
:104BE0002F4655B9D8F82800D4F8841020F4401086
:104BF00000250843C8F828003746A078C0070AD126
:104C00003E462168880016D533E000BF0125012704
:104C1000A078C007F4D0206DB0F5803F10D018BB4D
:104C2000D8F8000040F40030C8F800002E4685B1E6
:104C3000216888001DD460688A0326D465E000BF1F
:104C400004F10800022101F0DFFF0546002D2E4689
:104C5000EED1D8F82000216D20F4803000250843E3
:104C6000C8F82000CCE700BF012501262168880094
:104C7000E1D504F12800022102F05AF8002818BFFB
:104C80000126D4E900108A033FD5E26F6FF00103DB
:104C900003EB3223022B0BD34FEA322343B1012B18
:104CA00040F0AA80D8F8003043F40033C8F8003050
:104CB00025B3CA022CD48A0234D44A003CD4CA0F89
:104CC00049D1090251D4C1075AD1810763D44107A0
:104CD0006CD4010776D4C10600F18080800607D528
:104CE00004F12800022102F023F8002818BF012552
:104CF000002D18BF01252846BDE8F087D8F82830D8
:104D000023F440731A43C8F828203546CA02D2D586
:104D1000D8F82420236F22F000421A43C8F8242038
:104D20008A02CAD5D8F82420A36E22F080721A43D2
:104D3000C8F824204A00C2D558F81C2C22F400429E
:104D400048F81C2CD4F8B42058F81C3C1A4348F8F6
:104D50001C2CCA0FB5D0D8F82020636D22F0405229
:104D60001A43C8F820200902ADD5D8F82810D4F885
:104D7000882021F440011143C8F82810C107A4D0AD
:104D800004F10800002101F03FFF002818BF05468C
:104D9000606881079BD504F10800012101F034FF10
:104DA000002818BF05466068410792D504F1080045
:104DB000022101F029FF002818BF0546606801079D
:104DC0007FF589AF04F12800002101F0B1FF002830
:104DD00018BF05466068C1067FF580AF04F1280062
:104DE000012101F0A5FF002818BF05466068800674
:104DF0003FF576AF7CE700BF0125CA027FF55BAFC8
:104E000086E700BFD4F8B0004FF6CF7358F81C2CDB
:104E1000C0F2FF0300F4407122F47C5203EA101345
:104E20006FF31F30B1F5407F08BF1A43002548F8E3
:104E30001C2CD8F844100843C8F84400FFF7CBBC3A
:104E40002DE9F04381B0002800F02A8142F20008E9
:104E50000446C5F200288946D8F8000000F00F008B
:104E600088420ED2D8F8000020F00F0040EA090076
:104E7000C8F80000D8F8000000F00F00484540F0E6
:104E80000F81206844F218474107C5F602070AD58A
:104E900021693A6802F07002914204D93A6822F01E
:104EA00070021143396001070AD561697A6802F01E
:104EB0007002914204D97A6822F07002114379603D
:104EC000C1060AD5A1697A6802F4E062914204D968
:104ED0007A6822F4E0621143796081060AD5E169BB
:104EE000BA6802F07002914204D9BA6822F07002E6
:104EF0001143B96010F002010AD0E2683B6803F088
:104F00000F039A4204D93B6823F00F031A433A6017
:104F1000C20746D03968D4E9010221F47061012842
:104F200041EA0201396009D003280DD0022811D1CD
:104F300057F8181C890312D4B2E000BF57F8181CA8
:104F4000C9050CD4ACE000BF57F8181C890106D481
:104F5000A6E000BF57F8181C490740F1A18057F898
:104F6000081C21F00701084347F8080CFDF788FEEC
:104F7000064641F2883500BF57F8080C616800F01A
:104F80003800B0EBC10F09D0FDF77AFE801BA842B4
:104F9000F2D9032001B0BDE8F08300BF206800F023
:104FA000020151B1E1683A6802F00F02914204D265
:104FB0003A6822F00F0211433960D8F8001001F06E
:104FC0000F0149450DD9D8F8001021F00F0141EA31
:104FD0000901C8F80010D8F8001001F00F01494588
:104FE0005ED141070AD521693A6802F07002914208
:104FF00004D23A6822F070021143396001070AD5E1
:1050000061697A6802F07002914204D27A6822F0F3
:10501000700211437960C1060AD5A1697A6802F469
:10502000E062914204D27A6822F4E062114379602E
:1050300080060AD5E069B96801F07001884204D29F
:10504000B96821F070010843B86000F0E1F83968F0
:105050004CF69852C0F60002C1F30321515C3B6844
:1050600003F00F0301F01F01D25C20FA01F102F0FE
:105070001F0040F20402C2F2004221FA00F0106068
:1050800040F2040040F20002C2F20000C2F200420C
:105090000068116001B0BDE8F043FDF73DBE00BF00
:1050A000012001B0BDE8F0833F22026044F21842C3
:1050B000C5F6020252F8083C03F007034360136888
:1050C00003F470638360136803F00F03C360136815
:1050D00003F070030361536803F070034361536886
:1050E00003F4E0638361926802F07002C26142F2ED
:1050F0000000C5F20020006800F00F000860704753
:1051000080B500F085F844F218414CF69853C5F686
:105110000201C0F600030A68C2F303229A5C096820
:1051200001F00F0102F01F02595C20FA02F201F0B7
:105130001F0040F20401C2F2004122FA00F00860B0
:1051400040F20001C2F200410A6080BD0000000090
:1051500080B500F05DF844F2184C4CF69853C5F653
:10516000020CC0F60003DCF80020C2F303229A5CB4
:10517000DCF8001001F00F0102F01F02595CD04072
:1051800040F20402C2F2004201F01F0120FA01F1D4
:10519000116040F20002C2F200421060DCF804002C
:1051A000C0F30210185C00F01F0021FA00F080BD6F
:1051B00080B500F02DF844F2184C4CF69853C5F623
:1051C000020CC0F60003DCF80020C2F303229A5C54
:1051D000DCF8001001F00F0102F01F02595CD04012
:1051E00040F20402C2F2004201F01F0120FA01F174
:1051F000116040F20002C2F200421060DCF80400CC
:10520000C0F30220185C00F01F0021FA00F080BDFE
:1052100044F20041C5F602010869C0F3C200032848
:1052200010D002282ED098BB0868800649F20000F2
:10523000C0F2D03058BF70470968C1F3C101C840FF
:10524000704700BF8A6A886AC0F3051CC86ABCF14F
:10525000000F4B6B22D000F0010002F0030240422D
:10526000022A00EAD3006FF35F3000EE100AB8EEB6
:10527000400A15D0C2B90868800619D49FED281AD3
:1052800023E000BF43F20060C0F26E10704700BF21
:1052900040F60010C0F23D00704700BF002070478C
:1052A0009FED1E1A11E000BF9FED1B1A0DE000BF1D
:1052B000086849F20002C0F2D032C0F3C10022FAFD
:1052C00000F001EE100AB8EE411A086B9FED153A96
:1052D0006FF35F2002EE100A086BC0F34620B8EEB1
:1052E000422A013000EE032A00EE10CAB7EE003A5F
:1052F000B8EE400A81EE000A32EE031A20EE010AEF
:1053000001EE100AB8EE411A80EE010ABCEEC00AA6
:1053100010EE100A704700BF0024744A001BB74B00
:105320000024744C0000003970B3F0B581B004461D
:10533000007844F20046C007C5F6020626D1207860
:1053400080076ED5306910F03801B06A46D0182950
:1053500008BF5FEA807041D0E0683168002800F043
:10536000318121F0190108433060FDF789FC0546C1
:10537000306840074ED4FDF783FC401B0228F7D964
:10538000032001B0F0BD00BF01207047306900F07C
:105390003801B06A102905D018290BD100F003009C
:1053A000022807D130688003C9D560680028C6D1BB
:1053B000AEE000BF6068002800F03A81B0F5A02F91
:1053C00000F04E81B0F5803F00F04E81306820F44F
:1053D00080303060306820F4802048E13068400739
:1053E000E06802D5002800F09380316821F01901AF
:1053F00008433060FDF744FC054600BF30684007B5
:1054000008D4FDF73DFC401B02284FF00300F5D9FE
:1054100001B0F0BD7068216920F0FE4040EA0160F3
:1054200070602078C0061AD5306900F03801B06A83
:10543000082907D0182940F0858000F003000128D2
:1054400040F080803068C00502D5E06980285FD1D7
:10545000F068216A20F07C5040EA0160F06020781A
:1054600000073FD42078800656D42078400700F10A
:105470008180656A9DB3306900F03800182840F0DB
:105480001981012DB16A306B42D001F00302A36A89
:105490009A423DD1C1F30511E26A914238D10146E9
:1054A000226B6FF35F21013A914231D1C0F3462262
:1054B000616B01398A422BD1C0F30642A16B0139DD
:1054C0008A4225D1C0F30660E16B013988421FD1C1
:1054D000706BA16CC0F3CC00814240F0A181002030
:1054E00001B0F0BD60690028706F59D040F0010034
:1054F0007067FDF7C5FB0546706F8007B2D4FDF7F6
:10550000BFFB401B0228F7D9032001B0F0BD00BF4C
:10551000012001B0F0BD00BFA0690028306875D03F
:1055200040F480503060FDF7ABFB054630688004E6
:105530009BD4FDF7A5FB401B0228F7D9032001B03F
:10554000F0BD00BFE0690028306800F0A18040F0A5
:1055500080003060FDF794FB054600BF3068C00551
:105560003FF576AFFDF78CFB401B02284FF00300A0
:10557000F4D94DE7D6F8000440F48070C6F8000472
:10558000FDF77EFB054600BFD6F80004C0052BD40E
:10559000FDF776FB401B6428F6D9032001B0F0BD6F
:1055A00020F001007067FDF76BFB0546706F800708
:1055B0007FF558AFFDF764FB401B02284FF0030056
:1055C000F4D925E721F001003060FDF759FB0546CD
:1055D000306840077FF525AFFDF752FB401B0228DE
:1055E0004FF00300F4D913E7A068002800F084808E
:1055F000052800F09B80012800F09C80306F20F08F
:1056000001003067306F20F0040096E020F48050F5
:105610003060FDF735FB0546306880047FF525AF27
:10562000FDF72EFB401B02284FF00300F4D9EFE6F4
:10563000306820F480303060306820F480203060A2
:10564000FDF71EFB054600BF306880037FF577AE8F
:10565000FDF716FB401B64284FF00300F4D9D7E692
:10566000306840F480203060306840F48030306032
:10567000FDF706FB054600BF306880033FF55FAECF
:10568000FDF7FEFA401B6428F6D9032001B0F0BDF7
:1056900020F080003060FDF7F3FA05463068C00561
:1056A0007FF5DDAEFDF7ECFA401B02284FF003005A
:1056B000F4D9ADE6306820F080703060FDF7E0FA94
:1056C000022D05460CD100BF3068800148D5FDF79A
:1056D000D7FA401B02284FF00300F5D998E600BF27
:1056E000306880017FF5FBAEFDF7CAFA401B022847
:1056F0004FF00300F4D98BE6306F20F001003067E3
:10570000306F20F004003067FDF7BAFA054641F229
:105710008837306F80077FF5ACAEFDF7B1FA401BDC
:10572000B8424FF00300F4D972E600BF306F40F08A
:1057300004003067306F40F001003067FDF7A0FAD9
:10574000054641F2883700BF306F80073FF591AEC4
:10575000FDF796FA401BB8424FF00300F4D957E624
:1057600004F12807B06A40F2F33188438ECF084332
:10577000591E40EA02104FF47E426FF35F21B0627F
:1057800002EB47204FF4FE0280B2E36B0844A16BAA
:1057900002EB01414FF0FE4201F4FE0102EB036215
:1057A000084402F0FE4108443063F06A4FF6F87195
:1057B00020F00100F062706BA26C884340EAC200E6
:1057C0007063F06A216C20F00C000843F062F06A0C
:1057D000616C20F002000843F062F06A40F480300F
:1057E000F062F06A40F40030F062F06A40F4802029
:1057F000F062F06A40F00100F062306840F08070C2
:105800003060FDF73DFA0446306880013FF567AE31
:10581000FDF736FA001B02284FF00300F4D9F7E534
:10582000F06A20F00100F062FDF72AFA0546FDF764
:1058300027FAA842FBD0706B4FF6F871A26C884330
:1058400040EAC2007063F06A40F00100F06200209C
:1058500001B0F0BD00000000704700000000000033
:1058600070470000000000007047000000000000CA
:1058700060B310B5044690F83D0028B9002084F8C4
:105880003C00204600F024F8022084F83D00206807
:10589000211D01F05DFE012084F8480084F83E00DF
:1058A00084F83F0084F8400084F8410084F8420006
:1058B00084F8430084F8440084F8450084F84600E6
:1058C00084F8470084F83D00002010BD0120704797
:1058D000704700000000000090F83D10012927D11A
:1058E000022180F83D1001684DF6FF70C4F20000FF
:1058F0008142C86840F00100C8601BDC40F2FF70C4
:10590000C4F2000081422DDD40F60000C4F2000028
:1059100081423DD040F60040C4F20000814237D0C1
:1059200041F60000C4F20000814231D03CE000BFEB
:10593000012070474FF6FF70C4F2000081421BDD6A
:105940000020C4F20100814222D044F20000C4F2DF
:10595000010081421CD040F20040C4F201008142AB
:1059600016D021E0B1F1804F12D040F20040C4F2D5
:10597000000081420CD017E04EF20000C4F200009B
:10598000814205D04EF20040C4F2000081420BD1AA
:1059900007228868C0F2010202400020062A18BFD0
:1059A000B2F5803F00D17047086840F00100086000
:1059B0000020704700000000704700000000000059
:1059C000F0B581B004460068C5680669B10717D50F
:1059D00015F0020114D06FF002010161012121775D
:1059E0008069800704D02046FFF7E6FF06E000BF8D
:1059F000204600F09DF8204600F09EF80020207719
:105A0000700719D515F0040016D020686FF0040156
:105A1000016102212177806910F4407F04D0204683
:105A2000FFF7CAFF06E000BF204600F081F82046DD
:105A300000F082F800202077300717D515F0080015
:105A400014D020686FF00801016104212177C0693A
:105A5000800703D02046FFF7AFFF05E0204600F0A7
:105A600067F8204600F068F800202077F00619D586
:105A700015F0100016D020686FF0100101610821A8
:105A80002177C06910F4407F04D02046FFF794FFCF
:105A900006E000BF204600F04BF8204600F04CF82E
:105AA00000202077F00718BF15F0010006D020680D
:105AB0006FF001010161204600F042F805F0800717
:105AC00016F4025F18BF002F02D1F00509D410E0D0
:105AD00020686FF4025101612046FFF7C1FEF00516
