:020000040800F2
:10000000388D0024D5030008D9AC000869A0000889
:10001000D1AC000879080008091D010800000000A3
:1000200000000000000000000000000011BD0008FA
:10003000F115000800000000F1B4000871BD0008CF
:10004000F3030008F3030008F3030008F3030008B8
:10005000F3030008F3030008F3030008F3030008A8
:10006000F3030008F3030008F3030008F303000898
:10007000F3030008F3030008F3030008F303000888
:10008000F3030008F3030008F303000859160008FF
:10009000F91600086916000809170008F30300089C
:1000A000F3030008F3030008F3030008F303000858
:1000B000E9BF0008F9BF000809C00008F303000801
:1000C000F3030008F3030008F3030008F303000838
:1000D000F3030008F3030008F3030008F303000828
:1000E000F3030008F303000800000000F303000816
:1000F000F3030008F3030008F3030008F303000808
:10010000F3030008F3030008F3030008F3030008F7
:10011000F3030008F3030008F3030008F3030008E7
:10012000F3030008F3030008F3030008F3030008D7
:10013000F3030008F3030008F3030008F3030008C7
:1001400000000000000000000000000000000000AF
:10015000F3030008F3030008F3030008F3030008A7
:10016000F3030008F3030008F3030008F303000897
:10017000F303000851AD0008F3030008000000007D
:10018000F3030008F303000841C40008F303000868
:10019000F3030008F3030008F3030008F303000867
:1001A000F3030008F3030008F30300080000000055
:1001B000F3030008F3030008F3030008F303000847
:1001C000F3030008F3030008000000000000000033
:1001D0000000000000000000F30300080000000021
:1001E000000000000000000000000000000000000F
:1001F0000000000000000000F3030008F303000803
:10020000F3030008F303000800000000F3030008F4
:10021000F3030008F3030008F3030008F3030008E6
:10022000F303000800000000F303000800000000D2
:10023000F3030008F303000800000000F3030008C4
:10024000F3030008F3030008F3030008F3030008B6
:10025000F3030008F3030008F3030008F3030008A6
:10026000F3030008F3030008F3030008F303000896
:10027000F3030008F3030008F30300080000000084
:10028000F3030008F3030008F3030008F303000876
:1002900000000000F3030008F30300080000000062
:1002A00000000000F3030008F3030008F303000854
:1002B000D1E10008F3030008F3030008F30300088A
:1002C000F3030008F3030008F303000800F002F84A
:1002D00000F070F814A696E8000CB244B344DA4576
:1002E00001D100F067F8BAE80F000FA696E83000D9
:1002F000A5EB040504EB0607AAEB0704A7F1010729
:100300004FEA15154FEA3414A4F10104AC4201D3AD
:1003100000F050F813F0010F18BFFB1A43F001036F
:1003200000F001F8DBE71847B4530100F453010073
:100330000A4410F8014B14F00F0508BF10F8015BD8
:10034000240908BF10F8014B6D1E05D010F8013BC1
:100350006D1E01F8013BF9D1641E03D0641E01F843
:10036000015BFBD19142E4D370470000103A24BFF7
:1003700078C878C1FAD8520724BF30C830C144BF0A
:1003800004680C60704700007047000000230024E0
:1003900000250026103A28BF78C1FBD8520728BF95
:1003A00030C148BF0B6070471FB514F0D6FF1FBDAA
:1003B00010B510BD00F05EF91146FFF7F5FF12F021
:1003C00043FE00F07CF903B4FFF7F2FF03BC00F03A
:1003D0007FF900000A4880470A4880470A480047DA
:1003E000FEE7FEE7FEE7FEE7FEE7FEE7FEE7FEE7E5
:1003F000FEE7FEE705480649064A074B704700003E
:100400003116000881BE0008CD020008208B0020B4
:10041000388D0024208D00203889002453EA020CF6
:1004200000F069802DE9F04B4FF00006002B1FBF54
:10043000B3FA83F503FA05F424FA05F65E4012BF19
:100440001643B2FA82F502FA05F4C5F120051EBF83
:1004500022FA05FC44EA0C04203556EA044C4FEA23
:10046000144418BF641C4FF000084FF0000990427C
:1004700071EB030C39D3002919BFB1FA81F701FAE6
:1004800007F6B0FA80F700FA07F6C7F120071EBF9B
:1004900020FA07FC46EA0C062037B6FBF4FCA7EB73
:1004A0000507103F07F01F0BCBF120062CFA06F6CC
:1004B0000CFA0BFB44BFB3460026202FA4BF5E46B8
:1004C0004FF0000B5BEA060C08BF4FF0010B19EB75
:1004D0000B0948EB0608ABFB027C06FB02CC0BFBCE
:1004E00003CCC01B71EB0C01C1E70B460246414631
:1004F0004846BDE8F08B13B5084318BF4FF0FF30F6
:100500000146AFF30080BDE81C407047032A40F26B
:10051000308010F0030C00F0158011F8013BBCF1A5
:10052000020F624498BF11F801CB00F8013B38BFBD
:1005300011F8013BA2F1040298BF00F801CB38BFCB
:1005400000F8013B11F0030300F02580083AC0F0E9
:10055000088051F8043B083A51F804CBA0E8081091
:10056000F5E7121D5CBF51F8043B40F8043BAFF3C4
:100570000080D20724BF11F8013B11F801CB48BF1E
:1005800011F8012B24BF00F8013B00F801CB48BF54
:1005900000F8012B704710B5203AC0F00B80B1E88D
:1005A0001850A0E81850B1E81850A0E81850203AA8
:1005B000BFF4F5AF5FEA027C24BFB1E81850A0E8B1
:1005C000185044BF18C918C0BDE810405FEA827CCB
:1005D00024BF51F8043B40F8043B08BF7047D207E2
:1005E00028BF31F8023B48BF11F8012B28BF20F883
:1005F000023B48BF00F8012B70474FF0000200B5E6
:10060000134694469646203922BFA0E80C50A0E835
:100610000C50B1F12001BFF4F7AF090728BFA0E8E3
:100620000C5048BF0CC05DF804EB890028BF40F8AF
:10063000042B08BF704748BF20F8022B11F0804FF1
:1006400018BF00F8012B704770477047704710B50E
:1006500000F008F8006810BD10B5044600F002F87C
:10066000046010BD004870477800002000487047C3
:10067000780000207546FFF7F9FFAE460500694691
:10068000534620F00700854618B020B5FFF7B2FEAC
:10069000BDE820404FF000064FF000074FF0000883
:1006A0004FF0000BAC46ACE8C009ACE8C009ACE8C0
:1006B000C009ACE8C00921F007018D46704710B5AC
:1006C0000446AFF300802046BDE81040FFF77BBE34
:1006D00001491820ABBEFEE726000200704700006B
:1006E00085B0DDF814C0039002910192009344F6A6
:1006F000C750C2F200400078002800F0B280FFE747
:10070000EFF3108072B6049044F6C751C2F2004174
:100710000020087062B6059890F9000000EE100AFB
:10072000B8EEC00A9FED501A80EE010A9FED4F2AE5
:1007300020EE020A039880ED000A059890F9010066
:1007400000EE100AB8EEC00A80EE010A20EE020A9E
:10075000029880ED000A059890F9020000EE100A58
:10076000B8EEC00A80EE010A20EE020A019880ED80
:10077000000A059890F9030000EE100AB8EEC00ACE
:1007800042F60C60C2F2000080ED000A059991F972
:10079000041000EE101AB8EEC00A45F23C41C2F255
:1007A000004181ED000A059991F9051000EE101A3B
:1007B000B8EEC00A80EE010A9FED2D2A20EE020A53
:1007C00042F60861C2F2000181ED000A90ED000AD4
:1007D000B0EEC00AB4EE410AF1EE10FA08DBFFE712
:1007E00042F60C61C2F200014FF086400860FFE75C
:1007F00045F23C40C2F2004090ED000AB0EEC00A63
:100800009FED191AB4EE410AF1EE10FA08DBFFE78A
:1008100045F23C41C2F200414FF086400860FFE7DC
:1008200042F60860C2F2000090ED000AB0EEC00A85
:100830009FED0F1AB4EE410AF1EE10FA09DBFFE763
:1008400042F60861C2F200010020C4F25C20086098
:10085000FFE70598807945F24441C2F200410870F3
:10086000FFE705B0704700BF000000430000804371
:1008700000005C4200000000FFE7FEE7000000000F
:1008800080B58CB00B90FFE744F66C50C2F20000CC
:10089000009090ED000AB1EE400A01200A900AF0A3
:1008A000F7FD0098BDEEC00A10EE101A019190ED10
:1008B000010A02200AF0ECFD0098BDEEC00A10EE1D
:1008C000101A029190ED020A03200AF0E1FD00984F
:1008D000BDEEC00A10EE101A039190ED030AB1EEBE
:1008E000400A04200AF0D4FD01980299039ABDEE53
:1008F000C00A10EE103A00F0BFFE42F61C60C2F2D1
:1009000000000790018842F61460C2F200000490D3
:1009100090ED000A44F6C850C2F200400890F6EE8E
:10092000000ACDED060A12F0E7FC049ADDED060A96
:1009300007990898B1F8101192ED010A12F0DCFC49
:10094000DDED060A07990898B1F8201245F2787291
:10095000C2F20042059292ED000A12F0CDFC059A17
:10096000DDED060A07990898B1F8301392ED010AF7
:1009700012F0C2FC07990898B1F8401442F60462DC
:10098000C2F2000292ED000AF0EE000ACDED090A73
:1009900012F0B2FC07990898DDED090AB1F850157C
:1009A00045F27072C2F2004292ED000A12F0A4FC0D
:1009B0000A2012F02DFC0A9812F02AFC64E70000CD
:1009C00080B586B00490039100200290049818B17D
:1009D000FFE7039818B9FFE70020059027E0FFE73D
:1009E0000298039988421FD2FFE769460DF107007C
:1009F000086043F65C50C2F2000045F28071C2F21A
:100A0000004145F28472C2F200424FF480530AF072
:100A1000B3FD08B9FFE707E09DF807000499029AC3
:100A2000531C02938854DBE702980590FFE7059872
:100A300006B080BD0000000080B584B042F64010D2
:100A4000C2F20000D0F8BC0208B9FFE78AE042F623
:100A50004010C2F20000D0F8BC02039046F284704D
:100A6000C2F200400068B8B1FFE70398D0F8140262
:100A700008B1FFE776E046F28872C2F200421068E1
:100A800046F28471C2F200410B6818446FF31F30C4
:100A900010600020086006E00398D0F8140208B146
:100AA000FFE75FE0FFE744F66050C2F20000006835
:100AB00046F28871C2F2004109684FF480520AF090
:100AC000D7FD0290029808B9FFE74BE044F660506A
:100AD000C2F20000006846F28871C2F20041096863
:100AE00088420DD9FFE744F66050C2F2000000686A
:100AF00046F28871C2F200410968401A019008E08C
:100B000046F28870C2F200400068C0F58050019043
:100B1000FFE70198B0F5007F04D9FFE74FF40070BC
:100B20000190FFE746F28870C2F20040016843F688
:100B30006050C2F200000144BDF8042042F64010AB
:100B4000C2F2000000900DF0F3FE00980DF0FCFFE3
:100B500038B9FFE7019846F28471C2F2004108609B
:100B600000E0FFE704B080BD80B586B0049003913B
:100B7000049818B1FFE7039820B9FFE701208DF82A
:100B800017003FE044F66050C2F20000006846F2F1
:100B90008871C2F2004109684FF480520AF0DCFC0F
:100BA000019003980199884204D9FFE700208DF84D
:100BB000170027E000200290FFE70298039988427F
:100BC0001AD2FFE704980299405C6946086044F62F
:100BD0006050C2F2000046F28871C2F2004143F652
:100BE0006052C2F200024FF480530AF011FDFFE799
:100BF000029801300290E0E7FFF71EFF01208DF818
:100C00001700FFE79DF8170006B080BD0000000048
:100C100084B08DF80F000291ADF80620FFE70120A7
:100C200008B9FFE7FBE79DF80F0001460091232874
:100C30002FD80099DFE801F012131415162D2D2D71
:100C40002D2D2D2D2D2D2D2D2D2D2D2D2D2D2D2DD4
:100C50002D2D2D2D2D2D2D2D17182B2C1AE019E0B3
:100C600018E017E016E015E0029900200870029ADB
:100C7000C2215170029A012191700299C8700299A3
:100C800008710299487102990820887102E001E018
:100C900000E0FFE7002004B0704700000000000003
:100CA000002070470000000080B582B042F640107E
:100CB000C2F20000009042F23C11C2F20001002298
:100CC00001920DF035FE009844F2C051C2F200418D
:100CD0000DF00EFE0199009843F65C52C2F200023C
:100CE000116045F28072C2F20042116044F6605217
:100CF000C2F20002116046F28872C2F20042116034
:100D000046F28472C2F20042116043F65852C2F2B7
:100D1000000211600DF090FD019802B080BD00004E
:100D200080B586B00590049100200390FFE70398FA
:100D300004990968884224D2FFE705980399405C2A
:100D40006946086043F65C50C2F2000045F28071CB
:100D5000C2F2004145F28472C2F200424FF4805365
:100D60000AF056FC40B9FFE743F65851C2F20001C1
:100D7000086801300860FFE7FFE70398013003903F
:100D8000D5E7059942F64010C2F2000002900DF03E
:100D9000AFFD02980DF050FD002006B080BD0000B0
:100DA00083B0029001918DF8032000208DF802009D
:100DB0009DF9020003B0704783B002908DF80710D0
:100DC0004FF6FF70ADF8040000208DF80200FFE739
:100DD0009DF802009DF80710884237DAFFE7029875
:100DE0009DF80210415CBDF804004840ADF80400D5
:100DF00000208DF80100FFE79DF8010007281EDCA8
:100E0000FFE7BDF8040000F001008DF80300BDF815
:100E100004004008ADF804009DF8030040B1FFE76E
:100E2000BDF804004AF201014840ADF80400FFE7B4
:100E3000FFE79DF8010001308DF80100DCE7FFE7D6
:100E40009DF8020001308DF80200C1E7BDF80400F2
:100E500003B070470000000082B0ADF80400ADF8A8
:100E60000210ADF80020BDF90400BDF9021088425F
:100E70000BDBFFE7BDF90400BDF90010884204DC7C
:100E8000FFE701208DF8070003E000208DF8070040
:100E9000FFE79DF8070002B0704700000000000067
:100EA00010B58EB00D904FF47A7012F0B1F909F0D0
:100EB00027FB09F0D5FD42F6B440C2F2000042F62D
:100EC0003C11C2F20001012208F09EFFFFE748F644
:100ED0008910C2F200004FF49671FFF771FD0C907B
:100EE00000200B90FFE70B980C9988420DD2FFE78A
:100EF0000B9948F68910C2F20000405C0AF0A0FD90
:100F0000FFE70B9801300B90EDE70C98C8B1FFE7B5
:100F100045F25F60C0F601000721FFF725FE78B1BA
:100F2000FFE70C9948F68910C2F20000FFF71CFE9B
:100F300045F25C60C0F601000221FFF715FEFFE7F5
:100F4000FFE744F6C050C2F200406946086044F62C
:100F50007C50C2F200000A90011D00F1080240F22C
:100F6000D803C2F20003FFF7BBFB0A9840F2BC01B2
:100F7000C2F2004144F66C52C2F2000209F0B0FD28
:100F800045F24440C2F2004090F9000068BBFFE720
:100F900042F61461C2F20001002009900860486026
:100FA00045F27871C2F200410860486042F6106173
:100FB000C2F20001086045F24041C2F200410860FF
:100FC00043F63441C2F20001086045F27471C2F286
:100FD0000041086042F60461C2F20001086045F277
:100FE0007071C2F2004108608AE042F60C60C2F201
:100FF0000000019090ED000A45F23C40C2F2004032
:101000000290D0ED000A42F61060C2F20000079094
:1010100090ED001A45F24040C2F200400390D0ED3E
:10102000001A42F61460C2F200000490011D09F09B
:1010300077F90199029891ED000AD0ED000A43F684
:101040003440C2F20000059090ED001A45F2747031
:10105000C2F200400690D0ED001A45F27870C2F25C
:1010600000400890011D09F05BF9039BDDF810C0FA
:10107000059A0699DDF81CE00898DCF80040CEF8E7
:101080000040DCF804401C600468146044680C6094
:101090009EED000AB1EE400A8CED000A1B68CCF808
:1010A00004301268026091ED000AB1EE400A80ED52
:1010B000010A42F60860C2F2000090ED000AB1EEAB
:1010C000003A20EE430A9FED102A20EE020A9FED1F
:1010D0000F1A80EE010A42F60461C2F2000181EDAE
:1010E000000A90ED000A20EE030A20EE020A80EECC
:1010F000010A45F27070C2F2004080ED000AFFE77D
:10110000012012F085F8E2E6D00F49400000344398
:1011100080B58AB08DF827000891079200200690CC
:10112000059004900390089802900898063001906A
:10113000042004909DF827005038014600910F28A4
:1011400042D80099DFE801F01A081D1122272A2D44
:10115000303336404040403934200690032004901C
:1011600040200590012003902FE03D2006900320B1
:1011700004902E2005900120039026E03020069058
:1011800023E037200690032007901EE03A200690C7
:101190000320079019E04120069016E045200690B4
:1011A00013E04920069010E04D2006900DE05120FC
:1011B00006900AE05520069007E044F66450C2F21B
:1011C00000000068069000E038E00798032805D189
:1011D000FFE70320049000200390FFE70498A8B1E4
:1011E000FFE7069943F63840C2F2000000EB4100E9
:1011F0000299049A5200FFF789F945F25040C2F271
:1012000000400268069804999047FFE70398A8B148
:10121000FFE7059943F63840C2F2000000EB4100B9
:101220000199039A5200FFF771F945F25040C2F25A
:1012300000400268059803999047FFE70AB080BD17
:1012400080B500F039FA44F66860C2F2004002F05E
:1012500097FF80BD0000000080B588B00790079818
:1012600042F61C61C2F20001069181F83C00642044
:10127000049000F0C1F9069800889DF81C2069468A
:1012800000234B600B600A21039113F0D9FA0498F4
:1012900000F0B2F906980088232112F069FD069942
:1012A00044F6C850C2F20040059011F041FB04988A
:1012B00000F0A2F903990698008812F099FF0498AB
:1012C00000F09AF90598069911F06AFB08B080BD04
:1012D00080B588B00790079942F61C60C2F2000002
:1012E000029080F84C1100F58870069064200490FC
:1012F00000F082F90298B0F810019DF81C206946B0
:1013000000234B600B600A21039113F099FA0498B3
:1013100000F072F90298B0F81001232112F028FDB4
:10132000069944F6C850C2F20040059011F000FB47
:10133000049800F061F902980399B0F8100112F0D6
:1013400057FF049800F058F90598069911F028FB0A
:1013500008B080BD0000000080B588B007900799F4
:1013600042F61C60C2F20000029080F85C1200F5A8
:10137000087006906420049000F03EF90298B0F8DE
:1013800020029DF81C20694600234B600B600A2157
:10139000039113F055FA049800F02EF90298B0F872
:1013A0002002232112F0E4FC069944F6C850C2F250
:1013B0000040059011F0BCFA049800F01DF9029865
:1013C0000399B0F8200212F013FF049800F014F90A
:1013D0000598069911F0E4FA08B080BD00000000FD
:1013E00080B588B00790079942F61C60C2F20000F1
:1013F000029080F86C1300F54C7006906420049005
:1014000000F0FAF80298B0F830039DF81C20694605
:1014100000234B600B600A21039113F011FA04982A
:1014200000F0EAF80298B0F83003232112F0A0FC93
:10143000069944F6C850C2F20040059011F078FABF
:10144000049800F0D9F802980399B0F8300312F02C
:10145000CFFE049800F0D0F80598069911F0A0FA94
:1014600008B080BD0000000080B588B007900799E3
:1014700042F61C60C2F20000029080F87C1400F575
:10148000886006906420049000F0B6F80298B0F8E6
:1014900040049DF81C20694600234B600B600A2124
:1014A000039113F0CDF9049800F0A6F80298B0F873
:1014B0004004232112F05CFC069944F6C850C2F2A5
:1014C0000040059011F034FA049800F095F8029865
:1014D0000399B0F8400412F08BFE049800F08CF8E9
:1014E0000598069911F05CFA08B080BD0000000074
:1014F00080B588B00790079942F61C60C2F20000E0
:10150000029080F88C1500F5AA6006906420049083
:1015100000F072F80298B0F850059DF81C2069465A
:1015200000234B600B600A21039113F089F90498A2
:1015300000F062F80298B0F85005232112F018FC70
:10154000069944F6C850C2F20040059011F0F0F937
:10155000049800F051F802980399B0F8500512F081
:1015600047FE049800F048F80598069911F018FA1B
:1015700008B080BD0000000080B582B044F6C850BD
:10158000C2F200400021042211F06EF811F054F86C
:1015900011F09AFA02200190FFF75EFE0198FFF722
:1015A00097FE0198FFF7D8FE0198FFF719FF019801
:1015B000FFF75AFF0198FFF79BFF02B080BD0000C4
:1015C00084B08DF80F0002918DF807209DF80F0070
:1015D0000146009120B1FFE70098012801D001E009
:1015E00001E000E0FFE704B07047000000000000E9
:1015F000704700000000000080B582B0019003F049
:10160000A7F90090FFE703F0A3F90099401A0199A8
:10161000884201D2FFE7F6E702B080BD000000007B
:1016200081B0EFF3108072B60090FFE7FEE7000094
:1016300044F60C01C5F60201086840F0020008609B
:10164000FFE744F60400C5F60200006880040028A5
:1016500001D4FFE7F5E7704780B544F6C850C2F201
:10166000004001F0B5FE80BD80B544F6C850C2F21E
:10167000004001F0ADFE80BD80B584B0ADF80E0035
:10168000ADF80C10ADF80A20ADF80830BDF90E2009
:10169000BDF90C30BDF90A00BDF908C06946C1F8B2
:1016A00004C0086044F66860C2F200404FF4007164
:1016B00000F0F2F904B080BD80B588B00020009041
:1016C0000E2101910221029103910490059044F6AC
:1016D0006860C2F20040694601F0FAFB18B1FFE70A
:1016E000FFF79EFFFFE744F66860C2F2004000F09B
:1016F0001FFA08B080BD000080B544F66860C2F2F1
:10170000004001F065FE80BD80B544F66860C2F21D
:10171000004001F05DFE80BD84B002900298406BF5
:10172000009002980068D0F884004FF6FC7188435E
:10173000009940EA810002990968C1F88400029882
:101740000068D0F8840020F47F00029A1168926B40
:1017500040EA0240C1F884000298816B0098084476
:10176000009002980068D0F888006FF38F0000990D
:1017700040EA810002990968C1F88800029800686F
:10178000D0F8880020F4FE00029A1168D26B40EA7B
:101790000240C1F888000298C16B009800EB41003C
:1017A000009002980068D0F8A0006FF38F000099B5
:1017B00040EA810002990968C1F8A0000298006817
:1017C000D0F8A00020F4FE00029A1168126C40EAE2
:1017D0000240C1F8A0000299086C496C009A00FB15
:1017E0000120009002980068D0F8B0006FF38F00DD
:1017F000009940EA810002990968C1F8B000029896
:101800000068D0F8B00020F4FE00029A1168926CD3
:1018100040EA0240C1F8B0000299886CC96C009A95
:1018200000FB0120009002980068D0F8AC006FF334
:101830008F00009940EA810002990968C1F8AC0064
:101840000299086D496D009A00FB012000900298F2
:101850000068D0F8F0006FF38F00009940EA810033
:1018600002990968C1F8F00002980068D0F8F00009
:1018700020F47C10029A1168926D40EA0240C1F88F
:10188000F0000298816D009800EB410000900298F2
:101890000068D0F8C0006FF38F00009940EA810023
:1018A00002990968C1F8C00002980068D0F8C00029
:1018B00020F47C10029A1168D26D40EA0240C1F80F
:1018C000C00002980068D0F8C00020F07C50029A56
:1018D0001168126E40EA0260C1F8C00002994A6BBA
:1018E0004AF60040C4F2000000EB8200C86602998C
:1018F0008A6BC86E00EB820008670299CA6B086F9A
:1019000000EBC200486702990A6C4B6C486F5A435F
:1019100000EB8200886702998A6CCB6C886F5A430F
:1019200000EB8200C86702990A6D4B6DC86F5A437D
:1019300000EB8200C1F8800002998A6DD1F8800026
:1019400000EBC200C1F884000299CA6D8B6ED1F819
:1019500084005A4300EB8200C1F8880002990A6EA5
:101960008B6ED1F888005A4300EB8200C1F89000DA
:101970000298D0F890004DF2FD31C4F20001884287
:101980000FD3FFE70299D1F89C0040F02000C1F886
:101990009C000299032081F8980001208DF80F0027
:1019A00017E00298C06E0190FFE701980299D1F804
:1019B0009010884208D2FFE7019900200860FFE7F5
:1019C000019804300190F0E7FFE700208DF80F0048
:1019D000FFE79DF80F0004B0704700000000000012
:1019E00088B007900691059204930698406848B91C
:1019F000FFE70698016882680069104340EA814069
:101A0000039009E006980168826800691043084362
:101A100040F080400390FFE70698D0F820C0C168EE
:101A200042698369C06940EA0C601843104340EA88
:101A3000014002900798826ED0F8840004995143C7
:101A400000EB81000190039801990860019804302F
:101A500001900298019908600198043001900020DB
:101A60000090FFE700980699CA6845F22441C0F645
:101A70000101895C88420DD2FFE705980099405822
:101A800001990860019804300190FFE70098043044
:101A90000090E7E708B0704710B590B08C468646D6
:101AA00013981299CDF83CE0ADF83AC0ADF8382063
:101AB000ADF83630ADF83410ADF83200BDF83A006C
:101AC000039000200490059008210691079008904B
:101AD00009900A900B909DF839008DF80400BDF82C
:101AE00038008DF805009DF837008DF80600BDF828
:101AF00036008DF807009DF835008DF80800BDF818
:101B000034008DF809009DF833008DF80A00BDF807
:101B100032008DF80B000F9803A901AA01F014F907
:101B200008B1FFE7FFE710B010BD000000000000A3
:101B300080B582B00190019802F022FB18B1FFE756
:101B4000FFF76EFDFFE701980121002201F07CF80C
:101B500018B1FFE7FFF764FDFFE702B080BD0000AA
:101B600080B584B04EF60000C1F6F17000680390B5
:101B70004EF60400C1F6F170006802904EF60800BF
:101B8000C1F6F17000680190019903980844039030
:101B9000039888B1FFE7039840F29401C2F2004134
:101BA00000910231082208F07BFB00990298123163
:101BB000042208F075FBFFE704B080BD00000000C0
:101BC00080B540F60000C5F602004FF460410122E6
:101BD00002F0A6FE80BD000080B58AB0089002F039
:101BE000B7FE0490089828B9FFE701208DF8270078
:101BF00000F0AABC089890F8350002280ED0FFE744
:101C0000089980204865FFE70899002081F8340092
:101C1000FFE701208DF8270000F096BC08980168C6
:101C200001201022C4F202029142039000F0A3802E
:101C3000FFE70898016801202822C4F202029142BD
:101C4000039000F09880FFE7089801680120402287
:101C5000C4F202029142039000F08D80FFE70898E1
:101C6000016801205822C4F202029142039000F060
:101C70008280FFE70898016801207022C4F2020206
:101C80009142039077D0FFE70898016801208822ED
:101C9000C4F20202914203906DD0FFE708980168F8
:101CA0000120A022C4F202029142039063D0FFE718
:101CB000089801680120B822C4F202029142039000
:101CC00059D0FFE708980168012040F21042C4F2A1
:101CD0000202914203904ED0FFE70898016801206C
:101CE00040F22842C4F202029142039043D0FFE73F
:101CF00008980168012040F24042C4F20202914279
:101D0000039038D0FFE708980168012040F258425C
:101D1000C4F20202914203902DD0FFE708980168B7
:101D2000012040F27042C4F202029142039022D09C
:101D3000FFE708980168012040F28842C4F20202DD
:101D40009142039017D0FFE708980168012040F204
:101D5000A042C4F20202914203900CD0FFE708981F
:101D600000684FF64831CBF6FD710844B0FA80F0B8
:101D700040090390FFE70398C00780B1FFE7089888
:101D80000168086820F01E0008600898016848692A
:101D900020F08000486108980068059009E00898E4
:101DA0000168086820F00E00086008980068059037
:101DB000FFE70898016801201022C4F20202914254
:101DC000029000F00381FFE70898016801202822B3
:101DD000C4F202029142029000F0F880FFE70898F6
:101DE000016801204022C4F202029142029000F0F8
:101DF000ED80FFE70898016801205822C4F2020232
:101E00009142029000F0E280FFE70898016801200B
:101E10007022C4F202029142029000F0D780FFE7E4
:101E20000898016801208822C4F2020291420290BF
:101E300000F0CC80FFE7089801680120A022C4F2DE
:101E400002029142029000F0C180FFE70898016809
:101E50000120B822C4F202029142029000F0B68042
:101E6000FFE708980168012040F21042C4F2020224
:101E70009142029000F0AA80FFE7089801680120D3
:101E800040F22842C4F202029142029000F09E8089
:101E9000FFE708980168012040F24042C4F20202C4
:101EA0009142029000F09280FFE7089801680120BB
:101EB00040F25842C4F202029142029000F0868041
:101EC000FFE708980168012040F27042C4F2020264
:101ED000914202907AD0FFE708980168012040F211
:101EE0008842C4F20202914202906FD0FFE7089844
:101EF0000168012040F2A042C4F202029142029025
:101F000064D0FFE708980168012040F2B842C4F2AB
:101F100002029142029059D0FFE70898016801201F
:101F200045F20842C5F60202914202904ED0FFE708
:101F300008980168012045F21C42C5F60202914250
:101F4000029043D0FFE708980168012045F2304233
:101F5000C5F602029142029038D0FFE70898016866
:101F6000012045F24442C5F60202914202902DD072
:101F7000FFE708980168012045F25842C5F60202C1
:101F80009142029022D0FFE708980168012045F2B3
:101F90006C42C5F602029142029017D0FFE7089802
:101FA0000168012045F28042C5F60202914202908A
:101FB0000CD0FFE7089800684AF66C31CAF2FD7150
:101FC0000844B0FA80F040090290FFE70298C00789
:101FD00038B1FFE70898016E086820F48070086047
:101FE000FFE7089800681021C4F20201884200F05F
:101FF0008180FFE7089800682821C4F20201884226
:1020000078D0FFE7089800684021C4F202018842B6
:1020100070D0FFE7089800685821C4F20201884296
:1020200068D0FFE7089800687021C4F20201884276
:1020300060D0FFE7089800688821C4F20201884256
:1020400058D0FFE708980068A021C4F20201884236
:1020500050D0FFE708980068B821C4F20201884216
:1020600048D0FFE70898006840F21041C4F202012E
:1020700088423FD0FFE70898006840F22841C4F248
:102080000201884236D0FFE70898006840F24041DC
:10209000C4F2020188422DD0FFE70898006840F2A0
:1020A0005841C4F20201884224D0FFE70898006832
:1020B00040F27041C4F2020188421BD0FFE7089849
:1020C000006840F28841C4F20201884212D0FFE762
:1020D0000898006840F2A041C4F20201884209D089
:1020E000FFE70898006840F2B841C4F20201884254
:1020F00007D1FFE708980168086820F00100086030
:1021000006E008980168086820F001000860FFE711
:10211000FFE705980068C007C8B1FFE702F018FCA8
:102120000499401A062811D3FFE708992020486532
:102130000899032081F83500FFE70899002081F80D
:102140003400FFE701208DF82700FDE1E1E7089862
:10215000016801201022C4F202029142019000F0B5
:10216000A380FFE70898016801202822C4F2020238
:102170009142019000F09880FFE7089801680120E3
:102180004022C4F202029142019000F08D80FFE7EC
:102190000898016801205822C4F20202914201907D
:1021A00000F08280FFE70898016801207022C4F2E5
:1021B00002029142019077D0FFE708980168012060
:1021C0008822C4F20202914201906DD0FFE7089884
:1021D00001680120A022C4F202029142019063D062
:1021E000FFE7089801680120B822C4F20202914278
:1021F000019059D0FFE708980168012040F2104291
:10220000C4F20202914201904ED0FFE708980168A3
:10221000012040F22842C4F202029142019043D0D0
:10222000FFE708980168012040F24042C4F2020230
:102230009142019038D0FFE708980168012040F2F0
:102240005842C4F20202914201902DD0FFE7089853
:102250000168012040F27042C4F2020291420190F2
:1022600022D0FFE708980168012040F28842C4F2BA
:1022700002029142019017D0FFE7089801680120FF
:1022800040F2A042C4F20202914201900CD0FFE75A
:10229000089800684FF64831CBF6FD710844B0FA53
:1022A00080F040090190FFE70198C00760B1FFE7A7
:1022B0000898806D07900898C06D00F01F013F20BE
:1022C0008840079988600BE00898806D0690089810
:1022D000C06D00F01F010120884006994860FFE7AB
:1022E0000898016801201022C4F202029142009075
:1022F00000F00381FFE70898016801202822C4F25A
:1023000002029142009000F0F880FFE7089801680F
:1023100001204022C4F202029142009000F0ED80C0
:10232000FFE70898016801205822C4F20202914296
:10233000009000F0E280FFE7089801680120702219
:10234000C4F202029142009000F0D780FFE70898A3
:10235000016801208822C4F202029142009000F03C
:10236000CC80FFE7089801680120A022C4F2020295
:102370009142009000F0C180FFE7089801680120B9
:10238000B822C4F202029142009000F0B680FFE74A
:1023900008980168012040F21042C4F20202914202
:1023A000009000F0AA80FFE708980168012040F241
:1023B0002842C4F202029142009000F09E80FFE7A2
:1023C00008980168012040F24042C4F202029142A2
:1023D000009000F09280FFE708980168012040F229
:1023E0005842C4F202029142009000F08680FFE75A
:1023F00008980168012040F27042C4F20202914242
:1024000000907AD0FFE708980168012040F28842E6
:10241000C4F20202914200906FD0FFE70898016871
:10242000012040F2A042C4F202029142009064D026
:10243000FFE708980168012040F2B842C4F20202A6
:102440009142009059D0FFE708980168012045F2B9
:102450000842C5F60202914200904ED0FFE708986C
:102460000168012045F21C42C5F60202914200902B
:1024700043D0FFE708980168012045F23042C5F6D5
:1024800002029142009038D0FFE7089801680120CD
:1024900045F24442C5F60202914200902DD0FFE77A
:1024A00008980168012045F25842C5F6020291429F
:1024B000009022D0FFE708980168012045F26C42A5
:1024C000C5F602029142009017D0FFE70898016814
:1024D000012045F28042C5F60202914200900CD0E4
:1024E000FFE7089800684AF66C31CAF2FD710844AB
:1024F000B0FA80F040090090FFE70098C007A0B153
:10250000FFE70898416E806E48600898C06E58B129
:10251000FFE70898C16E086820F48070086008988A
:10252000016F406F4860FFE7FFE70899012081F8DD
:102530003500FFE70899002081F83400FFE7FFE746
:1025400000208DF82700FFE79DF827000AB080BD26
:1025500080B586B00490049820B9FFE701208DF87B
:10256000170046E3049890F83500022807D0FFE7EB
:1025700004998020486501208DF8170039E30498FC
:10258000016801201022C4F202029142029000F080
:10259000A380FFE70498016801202822C4F2020208
:1025A0009142029000F09880FFE7049801680120B2
:1025B0004022C4F202029142029000F08D80FFE7B7
:1025C0000498016801205822C4F20202914202904C
:1025D00000F08280FFE70498016801207022C4F2B5
:1025E00002029142029077D0FFE70498016801202F
:1025F0008822C4F20202914202906DD0FFE7049853
:1026000001680120A022C4F202029142029063D02C
:10261000FFE7049801680120B822C4F20202914247
:10262000029059D0FFE704980168012040F210425F
:10263000C4F20202914202904ED0FFE70498016872
:10264000012040F22842C4F202029142029043D09B
:10265000FFE704980168012040F24042C4F2020200
:102660009142029038D0FFE704980168012040F2BF
:102670005842C4F20202914202902DD0FFE7049822
:102680000168012040F27042C4F2020291420290BD
:1026900022D0FFE704980168012040F28842C4F28A
:1026A00002029142029017D0FFE7049801680120CE
:1026B00040F2A042C4F20202914202900CD0FFE725
:1026C000049800684FF64831CBF6FD710844B0FA23
:1026D00080F040090290FFE70298C007002800F050
:1026E0009D80FFE70499042081F835000498006874
:1026F0001021C4F20201884200F08180FFE70498B3
:1027000000682821C4F20201884278D0FFE70498CB
:1027100000684021C4F20201884270D0FFE70498AB
:1027200000685821C4F20201884268D0FFE704988B
:1027300000687021C4F20201884260D0FFE704986B
:1027400000688821C4F20201884258D0FFE704984B
:102750000068A021C4F20201884250D0FFE704982B
:102760000068B821C4F20201884248D0FFE704980B
:10277000006840F21041C4F2020188423FD0FFE7F6
:102780000498006840F22841C4F20201884236D021
:10279000FFE70498006840F24041C4F20201884219
:1027A0002DD0FFE70498006840F25841C4F20201BE
:1027B000884224D0FFE70498006840F27041C4F2D8
:1027C000020188421BD0FFE70498006840F288416C
:1027D000C4F20201884212D0FFE70498006840F278
:1027E000A041C4F20201884209D0FFE704980068C2
:1027F00040F2B841C4F20201884207D1FFE70498D1
:102800000168086820F00100086006E0049801688B
:10281000086820F001000860FFE7E5E1049801681E
:10282000086820F00E000860049800681021C4F2C7
:102830000201884200F08180FFE7049800682821A7
:10284000C4F20201884278D0FFE704980068402172
:10285000C4F20201884270D0FFE704980068582152
:10286000C4F20201884268D0FFE704980068702132
:10287000C4F20201884260D0FFE704980068882112
:10288000C4F20201884258D0FFE704980068A021F2
:10289000C4F20201884250D0FFE704980068B821D2
:1028A000C4F20201884248D0FFE70498006840F271
:1028B0001041C4F2020188423FD0FFE7049800684B
:1028C00040F22841C4F20201884236D0FFE7049862
:1028D000006840F24041C4F2020188422DD0FFE777
:1028E0000498006840F25841C4F20201884224D0A2
:1028F000FFE70498006840F27041C4F20201884288
:102900001BD0FFE70498006840F28841C4F202013E
:10291000884212D0FFE70498006840F2A041C4F258
:102920000201884209D0FFE70498006840F2B841EC
:10293000C4F20201884207D1FFE7049801680868E1
:1029400020F00100086006E004980168086820F0A3
:1029500001000860FFE70498016801201022C4F21A
:1029600002029142019000F00381FFE704980168A0
:1029700001202822C4F202029142019000F0F88066
:10298000FFE70498016801204022C4F2020291424C
:10299000019000F0ED80FFE70498016801205822C3
:1029A000C4F202029142019000F0E280FFE7049835
:1029B000016801207022C4F202029142019000F0ED
:1029C000D780FFE70498016801208822C4F2020240
:1029D0009142019000F0CC80FFE70498016801204B
:1029E000A022C4F202029142019000F0C180FFE7F0
:1029F000049801680120B822C4F2020291420190B9
:102A000000F0B680FFE704980168012040F2104210
:102A1000C4F202029142019000F0AA80FFE70498FC
:102A20000168012040F22842C4F202029142019062
:102A300000F09E80FFE704980168012040F24042C8
:102A4000C4F202029142019000F09280FFE70498E4
:102A50000168012040F25842C4F202029142019002
:102A600000F08680FFE704980168012040F2704280
:102A7000C4F20202914201907AD0FFE70498016803
:102A8000012040F28842C4F20202914201906FD0CC
:102A9000FFE704980168012040F2A042C4F202025C
:102AA0009142019064D0FFE704980168012040F250
:102AB000B842C4F202029142019059D0FFE7049853
:102AC0000168012045F20842C5F6020291420190D8
:102AD0004ED0FFE704980168012045F21C42C5F67C
:102AE00002029142019043D0FFE70498016801205F
:102AF00045F23042C5F602029142019038D0FFE71C
:102B000004980168012045F24442C5F60202914250
:102B100001902DD0FFE704980168012045F258424A
:102B2000C5F602029142019022D0FFE704980168A5
:102B3000012045F26C42C5F602029142019017D085
:102B4000FFE704980168012045F28042C5F60202C1
:102B5000914201900CD0FFE7049800684AF66C316E
:102B6000CAF2FD710844B0FA80F040090190FFE715
:102B70000198C00728B3FFE70498016E086820F4A5
:102B8000807008600498806D03900498C06D00F018
:102B90001F0101208840039948600498416E806EAF
:102BA00048600498C06E58B1FFE70498C16E086889
:102BB00020F4807008600498016F406F4860FFE760
:102BC000FFE70499012081F83500FFE70499002010
:102BD00081F83400FFE70498006D20B1FFE7049806
:102BE000016D8847FFE7FFE7FFE700208DF817003A
:102BF000FFE79DF8170006B080BD00000000000050
:102C000080B584B0039001F0A3FE02900398019078
:102C10000198013048B1FFE740F2D900C2F200400C
:102C20000178019808440190FFE7FFE701F090FE6A
:102C30000299401A0199884201D2FFE7F6E704B0F1
:102C400080BD00000000000085B003900291019259
:102C5000039890F898008DF803009DF80300012870
:102C600005D0FFE79DF8030002285DD1FFE7029839
:102C700003990968896D084207D1FFE70398016845
:102C8000C86D40F00100C86515E002980399096815
:102C9000896D08400299884207D1FFE703980168CF
:102CA000C86D40F00200C86504E003980168032085
:102CB000C865FFE7FFE79DF809008007002809D5F0
:102CC000FFE7019A03980168D1F8E0001043C1F8CA
:102CD000E000FFE79DF809004007002809D5FFE75D
:102CE000019A03980168D1F8E4001043C1F8E400A8
:102CF000FFE7FFE702984FF6FF71C3F6CF7100EAD6
:102D0000010203980168486D10434865029A4AF62B
:102D10001401C4F20001086840EA92700860FFE7FD
:102D200000208DF813000AE00399D1F89C0040F0D0
:102D30000200C1F89C0001208DF81300FFE79DF808
:102D4000130005B07047000080B586B00490039171
:102D500002920398406808B9FFE700E0FFE7049893
:102D600090F89800022845D1FFE704980068D0F851
:102D7000C00010F07C5F0BD1FFE70499D1F89C00F4
:102D800040F02000C1F89C0001208DF817003CE0C5
:102D900004980068D0F8C400800200280BD5FFE733
:102DA0000499D1F89C0040F40070C1F89C00012007
:102DB0008DF8170029E004980068D0F8C400C0F32B
:102DC0000440019004980399029A019BFEF708FEC3
:102DD0000199012000FA01F1049A1268C2F8D0109A
:102DE000019988400499C1F89400FFE700208DF80C
:102DF00017000AE00499D1F89C0040F00800C1F8DF
:102E00009C0001208DF81700FFE79DF8170006B021
:102E100080BD00000000000082B00190009102B06F
:102E2000704700000000000084B002900191009201
:102E3000019808B9FFE700E0FFE7029890F89800D2
:102E4000012836D1FFE7019870B9FFE702980068C2
:102E5000D0F8F00020F07C50009940EA016002991F
:102E60000968C1F8F00020E0019801280ED1FFE7C1
:102E700002980068D0F8A00020F0FE40009940EAD7
:102E8000016002990968C1F8A0000DE0029800688D
:102E9000D0F8B00020F0FE40009940EA01600299AD
:102EA0000968C1F8B000FFE7FFE700208DF80F00C8
:102EB0000AE00299D1F89C0040F00400C1F89C009F
:102EC00001208DF80F00FFE79DF80F0004B0704758
:102ED00087B005900491059890F898008DF803004C
:102EE0009DF80300012805D0FFE79DF803000228A4
:102EF0006AD1FFE70498C068072801D1FFE7FFE720
:102F00000498006878BBFFE70498C068072801D0E0
:102F1000FFE7FFE70498C06807280CD1FFE7049A91
:102F200010699169D269000440EA0220084340F028
:102F3000605003900CE004998868CB680A6949697D
:102F4000800740EAC36040EA024008430390FFE77D
:102F50000598C06E0499496800EB810001900398C0
:102F6000019908602CE00498C068072801D0FFE7A9
:102F7000FFE70498C168006940EA41700390049833
:102F8000C068072804D1FFE704988069029006E032
:102F900004988168406940EA81700290FFE70598D3
:102FA000006F0499496800EBC100019003980199F2
:102FB0000860019804300190029801990860FFE7C9
:102FC00000208DF81B000AE00599D1F89C0040F024
:102FD0000200C1F89C0001208DF81B00FFE79DF85E
:102FE0001B0007B07047000085B0DDF814C00390E7
:102FF000029101920093039890F89800012812D151
:10300000FFE702980001019940EA8100009940EA37
:1030100041000599084303990968C1F88000002020
:103020008DF813000AE00399D1F89C0040F00400E9
:10303000C1F89C0001208DF81300FFE79DF81300F4
:1030400005B070470000000080B582B00090009885
:1030500020B9FFE701208DF8070015E0009801F086
:10306000B7F800980168C86D20F00300C8650098A3
:1030700000F092FE00990020C1F89C00009981F8B0
:1030800098008DF80700FFE79DF8070002B080BDAB
:1030900081B0009001B0704782B0019000919DF81E
:1030A00003008007002807D5FFE7019801688869B9
:1030B00020F001008861FFE79DF80200000600286B
:1030C00001D5FFE7FFE702B07047000000000000F5
:1030D0008AB0089007910692059300200190089805
:1030E00090F898008DF803009DF80300022840F046
:1030F0005C81FFE70798402851D1FFE708980068F6
:10310000D0F8A00010F4FE0F0BD1FFE70899D1F81A
:103110009C0040F02000C1F89C0001208DF82700A1
:103120004EE108980068D0F8A400400658B9FFE7BF
:103130000899D1F89C0040F48070C1F89C000120EF
:103140008DF827003CE108980068D0F8A40000F052
:1031500080710120B0EB116F0DD1FFE70898006876
:10316000D0F8A0100120B0EBD17F03D1FFE7012000
:103170000190FFE7FFE708980068D0F8A40000F48A
:103180007C51019800EB112001900898426C406F2F
:103190000199514300EB81000490FFE770E007982C
:1031A000412851D1FFE708980068D0F8B00010F42A
:1031B000FE0F0BD1FFE70899D1F89C0040F02000EA
:1031C000C1F89C0001208DF82700F9E008980068FC
:1031D000D0F8B400400658B9FFE70899D1F89C0030
:1031E00040F48070C1F89C0001208DF82700E7E0D2
:1031F00008980068D0F8B40000F080710120B0EBAE
:10320000116F0DD1FFE708980068D0F8B0100120C9
:10321000B0EBD17F03D1FFE701200190FFE7FFE78B
:1032200008980068D0F8B40000F47C51019800EBD5
:10323000112001900898C26C806F0199514300EBF6
:1032400081000490FFE71AE007980899096D884209
:103250000BD3FFE70899D1F89C0040F02000C1F89B
:103260009C0001208DF82700AAE00898426DC06FED
:103270000799514300EB81000490FFE7FFE7FFE768
:103280000498006800F080400699486006984068FD
:1032900038B9FFE704980068C0F38A4006990860CF
:1032A00006E00498006820F0604006990860FFE797
:1032B0000498006800F0005006998860049800683F
:1032C00000F00040069908610498043004900498C6
:1032D00000880699C86104980068C0F30340069905
:1032E000C8600498006800F480100699486104984A
:1032F000006800F400100699886104980068C0F323
:1033000006600699086204980068C00F0699486232
:103310000498043004900498039000200290FFE782
:1033200002980699CA6845F22441C0F60101895CF9
:1033300088420AD2FFE70398029A805C0599885474
:10334000FFE7029801300290EAE70798402806D18B
:10335000FFE7019808990968C1F8A80021E00798DB
:10336000412806D1FFE7019808990968C1F8B8001B
:1033700016E007981F2808D8FFE707990120884022
:1033800008990968C1F8980009E0079800F01F0142
:103390000120884008990968C1F89C00FFE7FFE711
:1033A000FFE700208DF827000AE00899D1F89C007B
:1033B00040F00800C1F89C0001208DF82700FFE7CD
:1033C0009DF827000AB0704781B0009001B07047A7
:1033D00080B594B013904AF61000C4F20000006863
:1033E000800712904AF61400C4F200000168129897
:1033F00000EA8170129013980068006D00F470402C
:10340000119013980068416D11980840119013981D
:103410000068006D00F00F00109013980068416D77
:1034200010980840109013980068006D00F0F000AC
:103430000F9013980068416D0F9808400F901398F3
:103440000068006D00F071500E9013980068416D97
:103450000E9808400E9013980068006D00F06070A0
:103460000D9013980068416D0D9808400D901398C9
:103470000068406D039013980068006D01909DF8FE
:103480000D00C007B8B1FFE79DF80500C00788B17F
:10349000FFE7FFE7139801684FF4807008654AF66C
:1034A0001001C4F2000100200860FFE71398FFF745
:1034B0008BFFFFE7FFE79DF80D0000F004010020FF
:1034C000B0EB910F28D0FFE79DF8050000F0040154
:1034D0000020B0EB910F1ED0FFE713980068D0F8E2
:1034E000DC000B9013980068D0F8E4100B980840AB
:1034F0000B90FFE7139801684FF4806008654AF667
:103500001001C4F2000100200860FFE713980B9936
:1035100000F0FEFEFFE7FFE71298B8B1FFE7FFE714
:1035200012984FF6FF71C3F6CF71084013990968DE
:1035300008651298800F4AF61001C4F20001086075
:10354000FFE713981299FFF767FCFFE71198B8B1EE
:10355000FFE7FFE711984FF6FF71C3F6CF71084000
:103560001399096808651198800F4AF61001C4F292
:1035700000010860FFE71398119900F0D9FEFFE7FA
:103580001098B8B1FFE7FFE710984FF6FF71C3F648
:10359000CF7108401399096808651098800F4AF6A2
:1035A0001001C4F200010860FFE71398109900F0C1
:1035B00033FDFFE70F98B8B1FFE7FFE70F984FF62D
:1035C000FF71C3F6CF7108401399096808650F9819
:1035D000800F4AF61001C4F200010860FFE713985B
:1035E0000F9900F079FDFFE79DF80D0000F008014C
:1035F0000020B0EBD10F1BD0FFE79DF8050000F0D5
:1036000008010020B0EBD10F11D0FFE7FFE71398BE
:1036100001684FF4006008654AF61001C4F2000129
:1036200000200860FFE7139800F08AFEFFE7FFE73D
:103630009DF80D0000F002010020B0EB510F28D0E2
:10364000FFE79DF8050000F002010020B0EB510FEC
:103650001ED0FFE713980068D0F8D8000C9013989C
:103660000068D0F8E0100C9808400C90FFE7139821
:1036700001684FF4007008654AF61001C4F20001B9
:1036800000200860FFE713980C9900F049FEFFE75F
:10369000FFE79DF80E0000F008010020B0EBD10F0D
:1036A0001BD0FFE79DF8060000F008010020B0EBFA
:1036B000D10F11D0FFE7FFE7139801684FF4002006
:1036C00008654AF61001C4F2000100200860FFE717
:1036D000139800F09DFCFFE7FFE79DF80E00C00780
:1036E000B8B1FFE79DF80600C00788B1FFE7FFE724
:1036F000139801684FF4803008654AF61001C4F24F
:10370000000100200860FFE7139800F0FDFDFFE7CF
:10371000FFE79DF80E0000F004010020B0EB910FD0
:103720001BD0FFE79DF8060000F004010020B0EB7D
:10373000910F11D0FFE7FFE7139801684FF4802045
:1037400008654AF61001C4F2000100200860FFE796
:10375000139800F0D5FDFFE7FFE79DF80E0000F09D
:1037600002010020B0EB510F1FD0FFE79DF80600CB
:1037700000F002010020B0EB510F15D0FFE7FFE78A
:10378000139801684FF4003008654AF61001C4F23E
:10379000000100200860FFE71399D1F89C0040F079
:1037A0008000C1F89C00FFE7FFE70D98B8B1FFE784
:1037B000FFE70D984FF6FF71C3F6CF7108401399DC
:1037C000096808650D98800F4AF61001C4F20001DF
:1037D0000860FFE713980D99FFF75EFCFFE70E986E
:1037E000D0B1FFE7FFE70E984FF6FF71C3F6CF7138
:1037F00008401399096808650E98800F4AF6100171
:10380000C4F200010860FFE70E9A1399D1F89C00FA
:103810001043C1F89C00FFE7139800684AF20001CA
:10382000C4F20001884240F0B980FFE71398406875
:1038300080688007002800F0B080FFE71398406898
:10384000006A00F00F000A9013984068416A0A98D5
:1038500008400A9013984068006A00F03000099010
:1038600013984068416A0998084009901398406885
:10387000006A00F4C070089013984068416A089884
:103880000840089013984068006A00F4FC400790D4
:1038900013984068416A0798084007901398406859
:1038A000006A00F4F020069013984068416A069878
:1038B0000840069013984068406A02901398406848
:1038C000006A00900A9848B1FFE70A98139949687E
:1038D000086213980A9900F0FBFCFFE7099848B1C9
:1038E000FFE709981399496808621398099900F04D
:1038F000FFFCFFE79DF8080000F040010020B0EB5E
:10390000911F1FD0FFE79DF8000000F0400100204C
:10391000B0EB911F15D0FFE713984068C06B000C07
:10392000059013984068C06B00F03F000490139816
:1039300041684020086213980599049A00F0D0FC71
:10394000FFE7FFE7089848B1FFE70898139949682F
:1039500008621398089900F0B3FCFFE7079860B17C
:10396000FFE70798139949680862079A1399D1F8F5
:103970009C001043C1F89C00FFE7069860B1FFE788
:103980000698139949680862069A1399D1F89C0021
:103990001043C1F89C00FFE7FFE7FFE71398D0F85A
:1039A0009C0020B1FFE71398FFF772FBFFE714B00C
:1039B00080BD00000000000080B598B0169045F270
:1039C0007431C0F6010101A84C22FCF7E4FD169801
:1039D00020B9FFE701208DF85F00D9E11698006853
:1039E0004AF20001C4F20001884206D1FFE71699AD
:1039F000086800F580704860FFE716988068B0F5A9
:103A0000407F01D1FFE7FFE71698006C08B1FFE7A0
:103A1000FFE71698806C08B1FFE7FFE71698006D86
:103A200008B1FFE7FFE71698006E08B1FFE7FFE770
:103A30001699C86D096E084408B1FFE7FFE71698AC
:103A400090F8980040B9FFE71699002081F8990096
:103A5000169800F0FDF9FFE716980168886920F0D4
:103A60001000886100F074FF1590FFE71698006859
:103A700080690007002817D5FFE700F069FF159956
:103A8000401A0B280FD3FFE71699D1F89C0040F09D
:103A90000100C1F89C001699032081F898000120CC
:103AA0008DF85F0074E1E1E716980168886940F0DD
:103AB0000100886100F04CFF1590FFE71698006840
:103AC0008069C007B8B9FFE700F042FF1599401AB6
:103AD0000B280FD3FFE71699D1F89C0040F00100A6
:103AE000C1F89C001699032081F8980001208DF8F8
:103AF0005F004DE1E2E716980168886940F0020036
:103B000088611698007C012807D1FFE716980168A4
:103B1000886920F04000886106E01698016888698D
:103B200040F040008861FFE71698407C012807D1EB
:103B3000FFE716980168886940F48040886106E0D4
:103B400016980168886920F480408861FFE716981C
:103B5000807C012807D1FFE716980168886920F466
:103B60008050886106E016980168886940F48050AA
:103B70008861FFE716980068806920F44070169A03
:103B8000116892681043886116980168886920F06E
:103B9000A400886116980168086920F01000086187
:103BA0001698C068012807D1FFE716980168886950
:103BB00040F0040088612BE01698C06830B3FFE73E
:103BC0001698C068022819D0FFE71698016888691E
:103BD00040F08000886116980168086940F0100084
:103BE00008611698C068032807D1FFE71698016896
:103BF000886940F020008861FFE706E016980168B8
:103C0000886940F020008861FFE700E0FFE7FFE7F8
:103C1000169A116853699069D2F81CE0A0F1010C62
:103C20006FF0FF0000EB0E2040EA4C60126A013A90
:103C300010430022CFF6FF7202EB03421043C8612B
:103C400016988068B0F5407F1CD1FFE7169A11687E
:103C5000536A906AD2F82CE001386FF0FF0C0CEB3D
:103C60000E2C40EA0C00D2F830C06FF00F0202EBCD
:103C70000C1210430022CFF6FF7202EB03421043F6
:103C8000C860FFE71698006E48B1FFE71698016814
:103C9000426ED1F8C0001043C1F8C000FFE716998A
:103CA000C86D096E084480B1FFE716980068D0F827
:103CB000C80020F00700169A1168936E01AA52F806
:103CC00023201043C1F8C800FFE71698006C80B1AC
:103CD000FFE716980068D0F8BC0020F00700169A9D
:103CE0001168536C01AA52F823201043C1F8BC009C
:103CF000FFE71698806C88B1FFE716980068D0F847
:103D0000BC0020F07000169A1168D36C01AA52F81A
:103D1000232040EA0210C1F8BC00FFE71698006DAE
:103D200088B1FFE716980068D0F8BC0020F4E06086
:103D3000169A1168536D01AA52F8232040EA022016
:103D4000C1F8BC00FFE7169800684AF20001C4F20F
:103D50000001884207D1FFE716984168886820F083
:103D600003008860FFE716990020C1F894001699B7
:103D7000C1F89C001699012081F898001698FDF76B
:103D8000CBFC8DF853009DF853008DF85F00FFE7E2
:103D90009DF85F0018B080BD80B582B00190019899
:103DA00000684AF20001C4F20001884221D1FFE715
:103DB00040F2E400C2F2004001680139016000688D
:103DC00048B9FFE744F2EC41C5F60201086820F467
:103DD00080700860FFE740F60040C5F6020003214E
:103DE00000F0B2FA132000F0FFFE152000F0FCFEF8
:103DF0002AE0019800684AF20041C4F200018842BA
:103E000021D1FFE740F2E400C2F20040016801392D
:103E10000160006848B9FFE744F2EC41C5F60201D1
:103E2000086820F480700860FFE740F20040C5F6A3
:103E30000200602100F088FA142000F0D5FE162060
:103E400000F0D2FEFFE7FFE702B080BD00000000F7
:103E500080B5C0B03F9000203E903D903C903B909C
:103E60003A900CA8B821FCF7C8FB3F9800684AF2CA
:103E70000001C4F2000188425FD1FFE700200D90ED
:103E80004FF400400C904FF0805027900CA802F0A7
:103E9000CFFB18B1FFE7FDF7C3FBFFE740F2E400FB
:103EA000C2F200400168013101600068012810D1B0
:103EB000FFE7FFE744F2EC40C5F60200016841F479
:103EC00080710160006800F480700B900B98FFE730
:103ED000FFE7FFE744F2E040C5F60200016841F069
:103EE00008010160006800F008000A900A98FFE7E6
:103EF00003203A9002203B90002006903C903D9099
:103F000009203E9040F60040C5F602003AA900F0B4
:103F100033FB069A132004900521059100F07CFEE6
:103F2000049800F06DFE0599069A1520079000F0A0
:103F300073FE079800F064FE68E03F9800684AF25C
:103F40000041C4F2000188425FD1FFE700200D90DC
:103F50004FF400400C904FF0805027900CA802F0D6
:103F600067FB18B1FFE7FDF75BFBFFE740F2E400FA
:103F7000C2F200400168013101600068012810D1DF
:103F8000FFE7FFE744F2EC40C5F60200016841F4A8
:103F900080710160006800F4807009900998FFE763
:103FA000FFE7FFE744F2E040C5F60200016841F098
:103FB00002010160006800F0020008900898FFE725
:103FC00060203A9002203B90002002903C903D906F
:103FD00009203E9040F20040C5F602003AA900F0E8
:103FE000CBFA029A142000900521019100F014FEF2
:103FF000009800F005FE0199029A1620039000F047
:104000000BFE039800F0FCFDFFE7FFE740B080BD2A
:1040100081B0009001B0704780B59EB01D901C919A
:104020001D9844F6C851C2F20041884203D1FFE70F
:104030000EF022FE4DE01D9844F66861C2F2004188
:10404000884245D1FFE79DF87000C00700283ED0A8
:10405000FFE71D98402112AA02ABFFF739F808B11B
:10406000FFE736E01298B0F5007F2ED9FFE71298EF
:10407000C008402829D8FFE7129801388DF80700BA
:10408000002000909DF80700C0EBC00143F6BC0083
:10409000C2F2000000EB810000900098A0B1FFE7A1
:1040A000009988690130886100988069322805D8B4
:1040B000FFE7009802A90EF0B7FF04E0009802A9FC
:1040C0000EF06AFFFFE7FFE700E0FFE7FFE7FFE72B
:1040D000FFE71EB080BD000080B59EB01D901C9112
:1040E0001D9844F66861C2F20041884245D1FFE75D
:1040F0009DF87000C00600283ED5FFE71D984121BD
:1041000012AA02ABFEF7E4FF08B1FFE735E0129810
:10411000B0F5007F2ED9FFE71298C008402829D8B3
:10412000FFE7129801388DF80700002000909DF8F5
:104130000700C0EBC00143F6BC00C2F2000000EB78
:10414000810000900098A0B1FFE7009988690130D4
:10415000886100988069322805D8FFE7009802A995
:104160000EF062FF04E0009802A90EF015FFFFE7D1
:10417000FFE700E0FFE7FFE7FFE71EB080BD0000BC
:1041800082B00090009890F89800012811D1FFE7C4
:104190000099022081F8980000980168886920F051
:1041A0000100886100990020C1F89C008DF807008B
:1041B0000AE00099D1F89C0040F00400C1F89C008E
:1041C00001208DF80700FFE79DF8070002B0704757
:1041D00083B0019000200090019890F89800022888
:1041E0005CD1FFE701980168886940F001008861AF
:1041F000FFE7019800688069C007B8B9FFE7009839
:1042000033280FD3FFE70199D1F89C0040F001005B
:10421000C1F89C000199032081F8980001208DF8D5
:104220000B0046E0009801300090E2E7002000908B
:1042300001980168886920F010008861FFE7019803
:10424000006880690007002817D5FFE70098332829
:104250000FD3FFE70199D1F89C0040F00100C1F8AD
:104260009C000199032081F8980001208DF80B0033
:104270001FE0009801300090E1E70198016888692B
:1042800040F00200886101990020C1F89400019A71
:10429000012182F898108DF80B000AE00199D1F8FD
:1042A0009C0040F00800C1F89C0001208DF80B0034
:1042B000FFE79DF80B0003B070470000000000000E
:1042C00082B00190009102B0704700000000000031
:1042D00082B00190009102B0704700000000000021
:1042E00083B002900191009203B07047000000007B
:1042F00082B00190009102B0704700000000000001
:1043000081B0009001B0704781B0009001B070475B
:1043100082B00190009102B07047000000000000E0
:1043200082B00190009102B07047000000000000D0
:1043300082B00190009102B07047000000000000C0
:1043400081B0009001B070478FB00E900D910020A9
:104350000C908020C5F600000990FFE70D980C999D
:10436000C840002800F00381FFE70D980C9A012156
:10437000914008400B900B98002800F0F480FFE774
:104380000C9820F0030040F20841C5F600014058A7
:104390000A900C9800F0030081000F2000FA01F150
:1043A0000A9808400A900A9808900E980021C5F6CD
:1043B0000201884203D1FFE7002007906CE00E98CD
:1043C00040F20041C5F60201884203D1FFE7012017
:1043D00006905EE00E9840F60001C5F602018842A4
:1043E00003D1FFE70220059050E00E9840F600410F
:1043F000C5F60201884203D1FFE70320049042E0A2
:104400000E9841F20001C5F60201884203D1FFE790
:104410000420039034E00E9841F20041C5F60201F9
:10442000884203D1FFE70520029026E00E9841F66E
:104430000001C5F60201884203D1FFE70620019082
:1044400018E00E9841F60041C5F60201884203D1FA
:10445000FFE7072000900AE00E9942F20042C5F6FD
:1044600002020A20914208BF09200090FFE700984D
:104470000190FFE701980290FFE702980390FFE7A1
:1044800003980490FFE704980590FFE705980690CD
:10449000FFE706980790FFE7089807990C9A02F043
:1044A00003029200914088422AD1FFE70B9A0999B2
:1044B0000868904308600B9A0999486890434860DF
:1044C0000B9A0421C5F600010868904308600B9A16
:1044D0004FF0B0410868904308600C9800F003006A
:1044E00081000F2088400A900A9B0C9820F003015D
:1044F00040F20842C5F60002885898438850FFE70A
:104500000C984100032000FA01F30E9A1168194338
:104510001160DDF830C00CF007018A000F2101FAAC
:1045200002F30E996FF0030202EA5C020A44116A78
:10453000994311620C99490000FA01F30E9AD1686F
:104540009943D1600C9A012101FA02F30E9A516845
:10455000994351600C99490000FA01F20E9988685C
:1045600090438860FFE70C9801300C90F6E60FB09E
:1045700070470000000000008FB00E900D910020E9
:104580000C908020C5F600000990FFE70D980068A8
:104590000C99C840002800F0C181FFE70D98006821
:1045A0000C9A0121914008400B900B98002800F0D4
:1045B000B181FFE70D98406800F00300012807D0A3
:1045C000FFE70D98406800F0030002282FD1FFE7B5
:1045D0000E9880680A900C984100032000FA01F1BF
:1045E0000A9888430A900D98C0680C99490000FA0F
:1045F00001F10A9808430A900A980E9988600E986B
:1046000040680A900C99012000FA01F10A98884349
:104610000A900D984068C0F300100C9900FA01F15F
:104620000A9808430A900A980E994860FFE70D9887
:10463000406800F00300032818D0FFE70E98C06818
:104640000A900C984100032000FA01F10A9888436F
:104650000A900D9880680C99490000FA01F10A98B7
:1046600008430A900A980E99C860FFE70D984068C1
:1046700000F00300022826D1FFE70E980C996FF096
:10468000030202EA51010844006A0A900C9800F003
:10469000070081000F2000FA01F10A9888430A9070
:1046A0000D9800690C9901F00701890000FA01F1E9
:1046B0000A9808430A900A980E990C9B02EA530242
:1046C00011440862FFE70E9800680A900C984100B8
:1046D000032000FA01F10A9888430A900D98406877
:1046E00000F003000C99490000FA01F10A98084310
:1046F0000A900A980E9908600D9880798007002822
:1047000000F00781FFE7FFE744F2F440C5F602003E
:10471000016841F002010160006800F002000890A9
:104720000898FFE70C9820F0030040F20841C5F616
:10473000000140580A900C9800F0030081000F20FF
:1047400000FA01F10A9888430A900E980021C5F6F4
:104750000201884203D1FFE7002007906CE00E9829
:1047600040F20041C5F60201884203D1FFE7012073
:1047700006905EE00E9840F60001C5F60201884200
:1047800003D1FFE70220059050E00E9840F600416B
:10479000C5F60201884203D1FFE70320049042E0FE
:1047A0000E9841F20001C5F60201884203D1FFE7ED
:1047B0000420039034E00E9841F20041C5F6020156
:1047C000884203D1FFE70520029026E00E9841F6CB
:1047D0000001C5F60201884203D1FFE706200190DF
:1047E00018E00E9841F60041C5F60201884203D157
:1047F000FFE7072000900AE00E9942F20042C5F65A
:1048000002020A20914208BF09200090FFE70098A9
:104810000190FFE701980290FFE702980390FFE7FD
:1048200003980490FFE704980590FFE70598069029
:10483000FFE706980790FFE707980C9901F003013E
:10484000890000FA01F10A9808430A900A980C9925
:1048500021F0030140F20842C5F6000288504FF0F3
:10486000B04000680A900B990A9888430A900D9806
:104870008079C006002805D5FFE70B990A98084300
:104880000A90FFE70A984FF0B04108600420C5F68F
:10489000000000680A900B990A9888430A900D98C6
:1048A00080798006002805D5FFE70B990A98084310
:1048B0000A90FFE70A980421C5F6000108600998EC
:1048C00040680A900B990A9888430A900D9880795D
:1048D0008007002805D5FFE70B990A9808430A903E
:1048E000FFE70A9809994860099800680A900B99AF
:1048F0000A9888430A900D988079C00728B1FFE78D
:104900000B990A9808430A90FFE70A9809990860EA
:10491000FFE7FFE70C9801300C9037E60FB07047C7
:1049200082B00190ADF802108DF801209DF80100D1
:1049300028B1FFE7BDF802000199886105E0BDF8E4
:104940000200000401998861FFE702B0704700008F
:1049500046F69400C2F20040006870470000000074
:1049600040F2D900C2F20040027846F69401C2F249
:104970000041086810440860704700000000000013
:1049800080B582B0032000F05FF903F02DF944F206
:104990001842C5F602021168C1F3032345F214411F
:1049A000C0F60101CB5C03F01F03D84000900098D3
:1049B000126802F00F02895C01F01F01C84040F24A
:1049C0002801C2F200410860009840F20801C2F2DA
:1049D000000108600F2000F013F820B1FFE701206C
:1049E0008DF8070005E000F0E3F800208DF80700DF
:1049F000FFE79DF8070002B080BD00000000000046
:104A000080B590B00E900E980F2810D8FFE70E9941
:104A10001C200090002200F0FFF8009800F0F0F851
:104A20000E9840F27001C2F20001086003E001201C
:104A30008DF83F004CE0FFE744F2E840C5F6020085
:104A4000016841F001010160006800F0010001907F
:104A50000198FFE706A802A903F02EF80B9804902E
:104A6000049820B9FFE703F097F8059004E003F0FD
:104A700093F840000590FFE705984DF68361C4F276
:104A80001B31A0FB01014FF0FF3000EB9140039080
:104A900042F61C40C2F200004FF08041016040F23B
:104AA000E731C1600399416000210161816003F039
:104AB000FFFF48B9FFE742F61C40C2F2000004F0D5
:104AC00097F88DF83F0003E001208DF83F00FFE7E5
:104AD0009DF83F0010B080BD10B581B000900098E7
:104AE00040784EF69851CEF2000108604EF6A05183
:104AF000CEF20001086820F00100086000984068CC
:104B00004EF69C52CEF200021060DDF800E09EF8F6
:104B10000C0000079EF80B2040EA02609EF800207F
:104B20009EF808309EF809C09EF80A4040EAC4404A
:104B30009EF80D4040EA84409EF80E4040EA444012
:104B40009EF80FE040EA0E4040EA0C2040EA4300A5
:104B50001043086001B010BDBFF35F8F4EF62451C3
:104B6000CEF20001086820F4803008604EF69451BF
:104B7000CEF2000100200860704700000000000035
:104B800081B00090009840F001004EF69451CEF2B2
:104B9000000108604EF62451CEF20001086840F48E
:104BA00080300860BFF34F8FBFF36F8F01B0704745
:104BB00080B582B0FFE744F2F440C5F60200016818
:104BC00041F002010160006800F0020001900198CC
:104BD000FFE76FF001000F21002200F01DF802B086
:104BE00080BD00000000000080B582B0ADF8060076
:104BF000BDF906000DF084FC02B080BD000000008D
:104C000080B582B0ADF80600BDF906000DF094FC49
:104C100002B080BD0000000080B586B0ADF816007F
:104C2000049103920DF0A0FC0290BDF916000190D2
:104C300002980499039A06F053F8014601980DF082
:104C40009BFC06B080BD000080B582B00190019849
:104C50000DF0B6FC02B080BD82B0019001980068F2
:104C6000009001990120C1F8D8040199002081F831
:104C7000CC04009A916941F000619161009A516DF4
:104C80000323C1F200031943516502B070470000CD
:104C900082B001908DF8031002B070470000000050
:104CA00082B00190ADF80210BDF8020001990968C8
:104CB0004862002002B0704784B003908DF80B105A
:104CC000ADF8082003980068406A00909DF80B003A
:104CD00048B9FFE7BDF80810009840EA0140039981
:104CE0000968886233E003980068816A009800EBE5
:104CF0001140009000208DF80700FFE79DF80700A5
:104D00009DF80B100139884213D2FFE70398006821
:104D10009DF8071000EB8100D0F80411009800EB1B
:104D200011400090FFE79DF8070001308DF8070063
:104D3000E4E7BDF80810009840EA014003990968CB
:104D40009DF80B2001EB8201C1F80001FFE7002074
:104D500004B070470000000080B582B00190019857
:104D6000D0F8E0040AF0D8FD02B080BD00000000D9
:104D700080B582B001908DF80310019AD2F8E0045A
:104D80009DF8031001EBC10302EB8302126A0AF0E3
:104D90001FFC02B080BD000080B582B001908DF88C
:104DA0000310019AD2F8E0049DF8031001EBC1034F
:104DB00002EB8302D2F860220AF0D2FC02B080BD7E
:104DC00080B582B001900198D0F8E0040AF0ACFD03
:104DD00002B080BD0000000080B584B003908DF863
:104DE0000B109DF80B00000600280CD5FFE7039878
:104DF0009DF80B1001F00F0101EBC10100EB8100E8
:104E0000143001900CE003989DF80B1001F00F0195
:104E100001EBC10100EB810000F515700190FFE787
:104E20000398006801990CF033FB8DF80A009DF897
:104E30000A0004B080BD000080B584B002908DF8F7
:104E400007109DF80700000600280FD5FFE702981D
:104E50009DF8071001F00F0101EBC10100EB81008B
:104E6000143000900099012048700FE002989DF8DE
:104E7000071001F00F0101EBC10100EB810000F50B
:104E800015700090009900204870FFE79DF807001A
:104E900000F00F0000990870FFE7029890F8940462
:104EA000012804D1FFE702208DF80F0014E00299D9
:104EB000012081F89404FFE7FFE702980068009959
:104EC0000BF0D6FDFFE70299002081F89404FFE77C
:104ED00000208DF80F00FFE79DF80F0004B080BDA3
:104EE00080B584B002908DF807109DF8070000F09F
:104EF0000F0002990979884204D9FFE701208DF853
:104F00000F004DE09DF80700000600280FD5FFE7D1
:104F100002989DF8071001F00F0101EBC10100EBB1
:104F20008100143000900099012048700FE0029831
:104F30009DF8071001F00F0101EBC10100EB8100AA
:104F400000F515700090009900204870FFE7009967
:104F5000002088709DF8070000F00F00009908708D
:104F6000FFE7029890F89404012804D1FFE702209B
:104F70008DF80F0014E00299012081F89404FFE7F6
:104F8000FFE70298006800990BF0E2FFFFE7029943
:104F9000002081F89404FFE700208DF80F00FFE760
:104FA0009DF80F0004B080BD82B001908DF8031011
:104FB00001989DF8031001F00F0101EBC10100EB16
:104FC0008100D0F8680202B07047000000000000C5
:104FD00080B586B004908DF80F10ADF80C208DF8D8
:104FE0000B3000208DF80A009DF80F000006002805
:104FF0000FD5FFE704989DF80F1001F00F0101EBAA
:10500000C10100EB8100143001900199012048702A
:105010000FE004989DF80F1001F00F0101EBC101A2
:1050200000EB810000F51570019001990020487097
:10503000FFE79DF80F0000F00F0001990870BDF820
:105040000C006FF3DF20019988609DF80B00019937
:1050500008710198407820B1FFE7019908784883EA
:10506000FFE79DF80B00022804D1FFE7019900201B
:105070004871FFE7FFE7049890F89404012804D1F1
:10508000FFE702208DF8170015E00499012081F850
:105090009404FFE7FFE70498006801990BF0ACFB6C
:1050A000FFE70499002081F89404FFE79DF80A00C7
:1050B0008DF81700FFE79DF8170006B080BD0000CF
:1050C00080B586B005908DF8131003920293059871
:1050D0009DF8131001F00F0101EBC10100EB8100FD
:1050E00000F51570019003980199C8600298019924
:1050F0000861019900204861019948709DF81300EA
:1051000000F00F000199087005988079012804D1FA
:10511000FFE703980199C861FFE7059A10680199B4
:1051200092790BF0B9FF002006B080BD00000000AE
:1051300080B584B002908DF807109DF8070000F04C
:105140000F0002990979884204D9FFE701208DF800
:105150000F0058E09DF80700000600280FD5FFE774
:1051600002989DF8071001F00F0101EBC10100EB5F
:105170008100143000900099012048700DE00298E1
:105180009DF8071001EBC10100EB810000F51570DF
:105190000090009900204870FFE700990120887076
:1051A0009DF8070000F00F0000990870FFE70298D3
:1051B00090F89404012804D1FFE702208DF80F0035
:1051C00021E00299012081F89404FFE7FFE70298AB
:1051D000006800990BF00CFF9DF80700000740B92C
:1051E000FFE7029A1068917902F29C420BF060FE90
:1051F000FFE7FFE70299002081F89404FFE7002011
:105200008DF80F00FFE79DF80F0004B080BD00008F
:1052100080B586B005908DF813100392029305981F
:105220009DF8131001F00F0101EBC10100EB8100AB
:105230001430019003980199C8600298019908619F
:105240000199002048610199012048709DF81300E0
:1052500000F00F000199087005988079012804D1A9
:10526000FFE703980199C861FFE7059A1068019963
:1052700092790BF011FF002006B080BD0000000005
:1052800080B58CB00B900B9800680A900A98099032
:105290000B9800680CF03CFA002840F03484FFE7DB
:1052A0000B9800680CF0A4FA10B9FFE700F02BBCD3
:1052B0000998D0F80808C0F30D200B99C1F8D40460
:1052C0000B9800680CF094FA8007002807D5FFE7D8
:1052D0000B980168486900F002004861FFE70B98ED
:1052E00000680CF085FAC006002862D5FFE70B982D
:1052F0000168886920F0100088610A98006A0290AD
:105300000B98029901F00F0101EBC10100EB810044
:1053100000F515700890029800F4F0110220B0EB2F
:10532000514F23D1FFE7BDF8080047F6F07108425E
:105330001BD0FFE70A980899C968029AC2F30A12BB
:105340000CF066FA029847F6F07100EA0103089A39
:10535000D06800EB1310D060029800EA01020899AF
:10536000486900EB12104861FFE71BE0029800F467
:10537000F0110620B0EB514F12D1FFE70A980B99BC
:1053800001F29C4108220CF043FA029847F6F071B2
:1053900000EA01020899486900EB1210486100E038
:1053A000FFE7FFE70B980168886940F0100088610B
:1053B000FFE70B9800680CF01BFA0003002840F18F
:1053C000A680FFE7002004900B9800680CF0BCF961
:1053D0000690FFE70698002800F09880FFE79DF808
:1053E0001800C007002800F08A80FFE70B980068CB
:1053F0009DF810100CF0E4F905909DF81400C0071A
:1054000060B1FFE70998049900EB41110120C1F850
:10541000080B0B98049905F0EBFCFFE79DF81400CE
:10542000000700280CD5FFE70998049900EB41110B
:105430000820C1F8080B0B98049905F091FCFFE7D0
:105440009DF81400C006002808D5FFE709980499C4
:1054500000EB41111020C1F8080BFFE79DF8140084
:10546000800700282DD5FFE70A984069000600282C
:1054700008D5FFE70999D1F8040840F48060C1F825
:105480000408FFE70B98049901EBC10100EB8100D0
:1054900000F5157008900898C078012809D1FFE739
:1054A00008990020C8700B989DF8101000F040FB80
:1054B000FFE70998049900EB41110220C1F8080B9D
:1054C000FFE79DF814008006002808D5FFE709983B
:1054D000049900EB41112020C1F8080BFFE79DF86B
:1054E00015008006002809D5FFE70998049900EB0C
:1054F00041114FF40050C1F8080BFFE7FFE7049893
:105500000130049006984008069063E7FFE70B9887
:1055100000680CF06DF94003002840F1C680FFE7F9
:105520000B9800680CF0FCF8069000200490FFE750
:105530000698002800F0B880FFE79DF81800C00723
:10554000002800F0AA80FFE70B9800689DF8101073
:105550000CF00EF905909DF81400C00700283ED00D
:10556000FFE7049800F00F01012000FA01F1039118
:10557000039B099AD2F834189943C2F83418099950
:10558000049A01EB4211C1F808090B9880790128AF
:105590001FD1FFE70B98049901EBC10100EB8101DA
:1055A000CA69086A10440862049888B9FFE70B9832
:1055B000049901EBC10100EB8100406A40B9FFE7AB
:1055C0000B99086801F29C4201210BF071FCFFE786
:1055D000FFE70B989DF81010FFF7CAFBFFE79DF857
:1055E00014000007002808D5FFE70998049900EB8C
:1055F00041110820C1F80809FFE79DF81400C00612
:10560000002808D5FFE70998049900EB4111102004
:10561000C1F80809FFE79DF814004006002808D5E6
:10562000FFE70998049900EB41114020C1F80809EF
:10563000FFE79DF814008007002822D5FFE70A98AD
:1056400004990BF0FDFF0B98049901EBC10100EBED
:105650008100143008900898C078012809D1FFE72C
:1056600008990020C8700B989DF8101000F050FAAF
:10567000FFE70998049900EB41110220C1F80809DD
:10568000FFE79DF814000006002805D5FFE70B98FA
:10569000049905F091FCFFE7FFE7049801300490BE
:1056A00006984008069043E7FFE70B9800680CF067
:1056B0009FF8C00F00B3FFE70999D1F8040820F064
:1056C0000100C1F804080B9890F8CC04012808D117
:1056D000FFE70B98002180F8CC140B98FFF7D8FA5D
:1056E00003E00B9800F0CCFBFFE70B9801684869DA
:1056F00000F000404861FFE70B9800680CF078F874
:105700000005002811D5FFE70998D0F80808C00760
:1057100020B1FFE70B9800F047FCFFE70B9801680A
:10572000486900F400604861FFE70B9800680CF0DE
:105730005FF80001002820D5FFE70B980168486951
:1057400000F0006048610B9890F8CC0480B9FFE746
:105750000B98012180F8CC140B980068406DC0F3C1
:1057600083000B9AC2F8D0040B98FFF791FA03E07C
:105770000B9800F019FCFFE7FFE70B9800680CF0AE
:1057800037F8C004002840F18680FFE70999D1F876
:10579000040820F00100C1F804080B9800681021EB
:1057A0000BF04EFF00200790FFE707980B9909794F
:1057B000884231D2FFE70998079900EB41114FF673
:1057C0007F30C1F808090999079A01EB4212D2F813
:1057D000001921F40011C2F800190999079A01EB88
:1057E0004211C1F8080B0998079900EB4111D1F853
:1057F000000B20F40010C1F8000B0998079900EB8A
:105800004111D1F8000B40F00060C1F8000BFFE738
:10581000079801300790C8E70999D1F81C0840F0B3
:105820000110C1F81C080B98C07B78B1FFE70999FB
:10583000D1F8840840F00B00C1F884080999D1F828
:10584000440840F00B00C1F844080FE00999D1F872
:10585000140842F22B021043C1F814080999D1F838
:10586000100840F00B00C1F81008FFE70999D1F8C3
:10587000000820F4FE60C1F800080B9A10689179C6
:1058800002F29C420BF014FB0B980168486900F48B
:1058900080504861FFE70B9800680BF0A9FF800477
:1058A00000281FD5FFE70B9800680BF015F80B9840
:1058B00000680BF005FF0B99C8710B980068019008
:1058C00002F03EF9014601980B9AD2790CF09CF84F
:1058D0000B9800F0A9FA0B980168486900F4005091
:1058E0004861FFE70B9800680BF082FF0007002873
:1058F0000AD5FFE70B9800F0CFFA0B9801684869CA
:1059000000F008004861FFE70B9800680BF070FF9B
:105910000006002825D5FFE70A99886920F0800055
:10592000886101200490FFE704980B990979884267
:1059300016D2FFE70B98049901EBC10100EB81003F
:1059400090F85702012806D1FFE70B989DF8101038
:10595000FFF742FAFFE7FFE7049801300490E3E71E
:10596000FFE70B9800680BF043FFC00200283CD50E
:10597000FFE701200490FFE704980B99097988421A
:105980002CD2FFE70998049900EB4110D0F80009E8
:1059900002900B98049901EBC10100EB8100007E9D
:1059A000012816D1FFE79DF80B000006002810D54E
:1059B000FFE70B98049901EBC10100EB8101012085
:1059C000C8750B989DF8101041F08001FFF704FA9C
:1059D000FFE7FFE7049801300490CDE70B980168DA
:1059E000486900F480104861FFE70B9800680BF0ED
:1059F000FFFE8002002856D5FFE701200490FFE754
:105A000004980B990979884246D2FFE709980499CE
:105A100000EB4110D0F8000B02900B98049901EBB9
:105A2000C10100EB810090F8580201282FD1FFE757
:105A30009DF80B000006002829D5FFE7029800F426
:105A400080310B98D0F8D40400F00100B0EB114F76
:105A50001DD1FFE70B98049901EBC10100EB810117
:105A6000012081F857020A99886940F08000886116
:105A70000A9840690006002808D4FFE70999D1F880
:105A8000040840F40070C1F8040805E0FFE7FFE7F0
:105A9000049801300490B3E70B980168486900F45A
:105AA00000104861FFE70B9800680BF0A1FE400072
:105AB00000280AD5FFE70B98FFF74EF90B9801680D
:105AC000486900F080404861FFE70B9800680BF0E0
:105AD0008FFE4007002815D5FFE70B980068406847
